:020000040800F2
:1000000000500020A9170008391700083B17000806
:100010003D1700083F1700084117000800000000C6
:10002000000000000000000000000000D1510008A6
:10003000431700080000000061520008451700083F
:10004000F1170008F1170008F1170008F117000870
:10005000F11700085D170008F1170008F1170008F4
:10006000F1170008F1170008F1170008F117000850
:10007000F1170008F1170008F1170008F117000840
:10008000F1170008F1170008F1170008F117000830
:10009000F1170008F1170008F1170008F117000820
:1000A000611700086D170008F117000871170008A4
:1000B00075170008F1170008F117000881170008EC
:1000C0008D170008F1170008F1170008F117000854
:1000D000F1170008F117000899170008F117000838
:1000E000F1170008F1170008F117000800000000E0
:1000F0000000000000000000000000000000000000
:0C01000000000000000000005FF808F1A3
:1001100010B5054C237833B9044B13B10448AFF341
:1001200000800123237010BD10000020000000009B
:100130006C56000808B5034B1BB103490348AFF3E5
:10014000008008BD00000000140000206C5600086C
:1001500080F0004002E000BF81F0004142001FBF7C
:100160005FEA410392EA030F7FEA226C7FEA236C85
:100170006AD04FEA1262D2EB1363C1BFD21841407A
:1001800048404140B8BF5B42192B88BF704710F010
:10019000004F40F4000020F07F4018BF404211F0B3
:1001A000004F41F4000121F07F4118BF494292EA1B
:1001B000030F3FD0A2F1010241FA03FC10EB0C0047
:1001C000C3F1200301FA03F100F0004302D54942D4
:1001D00060EB4000B0F5000F13D3B0F1807F06D381
:1001E00040084FEA310102F10102FE2A51D2B1F179
:1001F000004F40EBC25008BF20F0010040EA03006E
:100200007047490040EB0000013A28BFB0F5000FED
:10021000EDD2B0FA80FCACF1080CB2EB0C0200FAA3
:100220000CF0AABF00EBC25052421843BCBFD040F2
:100230001843704792F0000F81F4000106BF80F46C
:1002400000000132013BB5E74FEA41037FEA226C2F
:1002500018BF7FEA236C21D092EA030F04D092F0FA
:10026000000F08BF0846704790EA010F1CBF00202E
:10027000704712F07F4F04D1400028BF40F000408B
:10028000704712F100723CBF00F50000704700F0AB
:10029000004343F0FE4040F4000070477FEA2262D2
:1002A00016BF08467FEA23630146420206BF5FEAA3
:1002B000412390EA010F40F4800070474FF00003A3
:1002C00004E000BF10F0004348BF40425FEA000C6A
:1002D00008BF704743F0964301464FF000001CE012
:1002E00050EA010208BF70474FF000030AE000BF68
:1002F00050EA010208BF704711F0004302D54042A6
:1003000061EB41015FEA010C02BF84460146002017
:1003100043F0B64308BFA3F18053A3F50003BCFA32
:100320008CF2083AA3EBC25310DB01FA02FC6344DF
:1003300000FA02FCC2F12002BCF1004F20FA02F2E6
:1003400043EB020008BF20F00100704702F12002D9
:1003500001FA02FCC2F1200250EA4C0021FA02F23A
:1003600043EB020008BF20EADC7070474FF0FF0C3F
:100370001CEAD0521EBF1CEAD15392EA0C0F93EA3A
:100380000C0F6FD01A4480EA010C400218BF5FEADC
:1003900041211ED04FF0006343EA501043EA51114F
:1003A000A0FB01310CF00040B1F5000F3EBF490049
:1003B00041EAD3715B0040EA010062F17F02FD2A4D
:1003C0001DD8B3F1004F40EBC25008BF20F0010030
:1003D000704790F0000F0CF0004C08BF49024CEA47
:1003E000502040EA51207F3AC2BFD2F1FF0340EAD9
:1003F000C250704740F400004FF00003013A5DDC4A
:1004000012F1190FDCBF00F000407047C2F100028A
:10041000410021FA02F1C2F1200200FA02FC5FEA77
:10042000310040F1000053EA4C0308BF20EADC70C1
:10043000704792F0000F00F0004C02BF400010F433
:10044000000F013AF9D040EA0C0093F0000F01F0E0
:10045000004C02BF490011F4000F013BF9D041EA02
:100460000C018FE70CEAD15392EA0C0F18BF93EA04
:100470000C0F0AD030F0004C18BF31F0004CD8D12E
:1004800080EA010000F00040704790F0000F17BFB5
:1004900090F0004F084691F0000F91F0004F14D0FB
:1004A00092EA0C0F01D142020FD193EA0C0F03D153
:1004B0004B0218BF084608D180EA010000F0004056
:1004C00040F0FE4040F40000704740F0FE4040F431
:1004D000400070474FF0FF0C1CEAD0521EBF1CEAD0
:1004E000D15392EA0C0F93EA0C0F69D0A2EB0302EE
:1004F00080EA010C49024FEA402037D04FF0805388
:1005000043EA111143EA10130CF000408B4238BF4C
:100510005B0042F17D024FF4000C8B4224BF5B1A5A
:1005200040EA0C00B3EB510F24BFA3EB510340EAA8
:100530005C00B3EB910F24BFA3EB910340EA9C0056
:10054000B3EBD10F24BFA3EBD10340EADC001B01C6
:1005500018BF5FEA1C1CE0D1FD2A3FF650AF8B426A
:1005600040EBC25008BF20F0010070470CF0004C77
:100570004CEA50207F32C2BFD2F1FF0340EAC250A2
:10058000704740F400004FF00003013A37E792F063
:10059000000F00F0004C02BF400010F4000F013AC1
:1005A000F9D040EA0C0093F0000F01F0004C02BFBC
:1005B000490011F4000F013BF9D041EA0C0195E725
:1005C0000CEAD15392EA0C0F08D142027FF47DAFBE
:1005D00093EA0C0F7FF470AF084676E793EA0C0FAE
:1005E00004D14B023FF44CAF08466EE730F0004CAC
:1005F00018BF31F0004CCAD130F000427FF45CAF3C
:1006000031F000437FF43CAF5FE700BF4FF0FF3CA9
:1006100006E000BF4FF0010C02E000BF4FF0010CFC
:100620004DF804CD4FEA40024FEA41037FEA226CC5
:1006300018BF7FEA236C11D001B052EA530C18BFE7
:1006400090EA010F58BFB2EB030088BFC81738BF4C
:100650006FEAE17018BF40F0010070477FEA226C3A
:1006600002D15FEA402C05D17FEA236CE4D15FEA36
:10067000412CE1D05DF8040B704700BF844608466A
:100680006146FFE70FB5FFF7C9FF002848BF10F12B
:10069000000F0FBD4DF808EDFFF7F4FF0CBF012070
:1006A00000205DF808FB00BF4DF808EDFFF7EAFFFA
:1006B00034BF012000205DF808FB00BF4DF808EDB5
:1006C000FFF7E0FF94BF012000205DF808FB00BFAA
:1006D0004DF808EDFFF7D2FF94BF012000205DF830
:1006E00008FB00BF4DF808EDFFF7C8FF34BF01203D
:1006F00000205DF808FB00BF42000ED2B2F1FE4FB1
:100700000BD34FF09E03B3EB126209D44FEA0023E0
:1007100043F0004323FA02F070474FF000007047A7
:1007200012F1610F01D1420202D14FF0FF30704748
:100730004FF00000704700BF1E4B33F811200270CD
:100740004A1C33F8122042708A1C33F8122082703F
:10075000CA1C33F81220C2700A1D33F8122002712D
:100760004A1D33F8122042718A1D33F8122082711B
:10077000CA1D33F81220C27101F1080233F81220A9
:10078000027201F1090233F81220427201F10A02E9
:1007900033F81220827201F10B0233F81220C27278
:1007A00001F10C0233F812200D31027333F81130CD
:1007B00043737047BA01002002781F4B10B523F82D
:1007C000112044784A1C23F8124084788A1C23F8AC
:1007D0001240C478CA1C23F8124004790A1D23F879
:1007E000124044794A1D23F8124084798A1D23F867
:1007F0001240C479CA1D23F81240047A01F108029C
:1008000023F81240447A01F1090223F81240847A55
:1008100001F10A0223F81240C47A01F10B0223F815
:100820001240047B01F10C0223F81240427B0D318F
:1008300023F8112010BD00BFBA01002010B50446F6
:1008400068B9124B024618711021114801F0BEF927
:100850002246BDE8104002210E4801F0B7B9012838
:1008600008D10A4B024618711021094801F0AEF96F
:100870000022EEE7022808D1044B00221871102153
:10088000034801F0A3F90122E3E710BD7A0000203C
:1008900000080140000C014010B5044678B90F4B28
:1008A00022464FF400710E481C7101F08FF90022AE
:1008B000BDE810404FF480510A4801F087B9012883
:1008C000EDD0022809D1054B002218714FF40071B8
:1008D000034801F07BF90122EAE710BD6C0000201B
:1008E00000080140000C01404378064A012B15BF67
:1008F00000230373037313871CBF13870371002046
:10090000704700BFBA010020044B1B68DA6A5143EC
:100910006422B1FBF2F15963704700BFFC02002072
:10092000044B1B68DA6A51436422B1FBF2F159634C
:10093000704700BF6C020020F8B51E46114B01281D
:10094000114C08BF1C464FF00005104B08462361B0
:100950000F4B256063610F4B6560A3610E4BA56073
:10096000E56017460D4C08BF1C46FFF7C5FEE07159
:100970003846FFF7C1FE20723046FFF7BDFE6072B9
:10098000F8BD00BF500000203400002000007A4471
:10099000000020410000C8427A0000206C000020C6
:1009A0002DE9F74F81465A4BB9F1010F594E08BF57
:1009B0001E46594B08461146584C08BF1C46FFF7C7
:1009C000CBFB0546E060307AFFF778FC5449FFF72F
:1009D00081FD0746707AFFF771FC5149FFF77AFDF8
:1009E0008246F079FFF76AFC4D49FFF773FD29460F
:1009F000FFF7BCFC4B4983462846FFF7B7FC21684C
:100A0000FFF7ACFB0021804620603846A669FFF75F
:100A100041FE002862D139463046FFF75BFD0146B2
:100A200040460191FFF75EFE0199002858D02160F1
:100A300038462168FFF79AFC616801902846FFF765
:100A40008BFB3849FFF746FDB9F1010F36490CBF62
:100A5000364F374FFFF78AFCD7F80080814635497B
:100A60004046FFF783FC01464846FFF777FB0199B4
:100A70008146386065605846FFF770FB5146054671
:100A80004846FFF773FC01462846FFF767FB2549F8
:100A900005466069FFF76AFCD4F8089007464946A6
:100AA0002846FFF759FB804601463846FFF7FCFD14
:100AB00000B339464846FFF751FB05463146284604
:100AC000FFF710FE28B900212846FFF7EDFDE8B931
:100AD0002E463046A66003B0BDE8F08F21699FE73F
:100AE00001F1004140460191FFF7DEFD00289FD053
:100AF00001999CE7414607F10040FFF7F3FD00280C
:100B0000DCD039464846FFF727FBD6E70026E0E76A
:100B10007A0000206C0000205000002034000020EB
:100B20000000C8420AD7233CCDCCCC3D3000002089
:100B30002C0000206666663F70B5284B284D984211
:100B4000284B044608BF1D46437814BF02260126E1
:100B500013B10378022B18D000232B606B60AB60BD
:100B6000EB600025012E29462046E57007D1FFF7EE
:100B7000CBFE2846FFF762FE0025284670BDFFF732
:100B8000CFFE2846FFF788FEF6E7807AFFF796FB50
:100B90006861E078FFF792FB0546A078FFF78EFBCF
:100BA0002A4601463046FFF7FBFEFFF7A5FD6579B3
:100BB000C0B2854228BF0546A379E070AB4202D996
:100BC000002D18BF1D46012E2946204602D1FFF7F1
:100BD0009BFED2E7FFF7A4FECFE700BF7A0000201C
:100BE00034000020500000204278012A09D1037807
:100BF000012B02D0022B02D07047FFF775BEFFF722
:100C00009BBF1AB9024902730A870271704700BF7D
:100C1000BA01002003222F4B70B51A8040F2011256
:100C20006420052101245A800A26002204259A8086
:100C3000DA801A815C819A811C845A849A84DA84CD
:100C40001A85D8851E8659861A875A8758859A85A7
:100C50009986DD86A3F84040A3F84220A3F84420FB
:100C6000A3F84620A3F84820A3F84E00A3F850604C
:100C7000A3F85210A3F85820A3F85A20A3F84A006A
:100C8000A3F84C20A3F85410A3F85650A3F8602002
:100C9000A3F86220A3F86420A3F86620A3F86820D4
:100CA000A3F88020A3F88220A3F88420A3F886204C
:100CB000A3F88820084B1A805A809A80DA801A811B
:100CC000064B1A605A60064B1A705A709A70DA70A6
:100CD00070BD00BFBA010020B0010020A8010020B3
:100CE000A401002070B5002204464FF6FF70084EA4
:100CF0008A4200DB70BD0825A35C584040F3000326
:100D0000334083EA5003013D98B2F7D10132EFE757
:100D100001A0FFFF02680D4B10B59A4215D14FF4A8
:100D200000510B4800F057FF00230A4C0A4A0B48B9
:100D30002370137002F06BFD237809490122BDE88E
:100D400010400648194402F098BF10BD004400400E
:100D5000001001409900002098000020240200208B
:100D60009A00002010B5084C204602F050FD0023E8
:100D7000064A20461370064A06491370BDE8104023
:100D8000012202F07ABF00BF240200209900002057
:100D9000980000209A0000202DE9F041794EC0B063
:100DA0003778052F40F28D80774C2578032D40F061
:100DB0008880B91E2046FFF795FF625CC3B29A4255
:100DC00006D1274417F8013CC0F30F20834207D017
:100DD0004FF400516D4840B0BDE8F04100F0FBBE5B
:100DE00063788DF80050062B8DF8013000F09C8060
:100DF00007D8032B2ED0042B6DD0012243F08003A3
:100E000087E0102BF9D16288A38852BA5BBA92B2FC
:100E10009BB202EB0308B8F1350F94F802E094F8A6
:100E200003C027796079A1797CDCB1EB430F79D1DC
:100E3000574901EB420200218B4204F1020440F3C6
:100E4000908094F80580A579013145EA082522F8BB
:100E5000025BF1E76288A38852BA5BBA92B29BB296
:100E6000D118352953DC4A49002001EB42016A467A
:100E70005D008DF80250834202F1020224DC03354A
:100E8000EDB229466846FFF72DFF6B1C0DF80500F3
:100E9000DBB2000AAA1C0DF80300694664233D4832
:100EA000D2B202F066FC002865D038484FF40051F9
:100EB00000F091FE374802F0AAFC0023364A337056
:100EC000137040B0BDE8F08131F8024B0130270AC1
:100ED00057709470CFE76288A38852BA5BBA92B217
:100EE0009BB2D118052919DC2C49002001EB4201E5
:100EF0006A465D008DF80250834202F10202BEDDB7
:100F000031F8024B0130270A57709470F4E78323BD
:100F100002228DF801308DF80220B2E78423F7E732
:100F20008623F5E79023F3E7B4F8028094F802E013
:100F300098FA98F292B2342A94F803C0A1882779DB
:100F40006079EDD8124B4CBAB8F5806F23F8124097
:100F500007D1B1F5807F04D100225A87A3F85A2027
:100F6000DA8006258DF802E08DF803C08DF8047054
:100F70008DF8050085E74FF40041044800F02BFE92
:100F80009BE700BF990000209A000020001001405C
:100F9000BA0100202402002098000020B0010020A7
:100FA00002681D4B70B59A42064633D100F064FCCE
:100FB0001A4D1B4B1B4C18602B781B49FF2B25D05F
:100FC000326850685A1CE0540123D2B2052A2A70B4
:100FD0000B7013D96378062B03D004D8033B012B85
:100FE0000AD8082306E0102B06D1062A04D0A379DC
:100FF0000933DBB29A4201D3FFF7CEFE29780122F2
:1010000021440A48BDE8704002F037BE00232B702F
:101010000B70F3E770BD00BF004400409900002052
:10102000940000209A000020980000202402002054
:1010300008B50A4E0A4D0B4C4FF48041304600F083
:10104000CAFD2B6801332B60238000F015FC608003
:101050004FF47A7002F092FEEEE700BF00100140FC
:10106000A0010020B001002008B50D4C0D4D0E4E22
:1010700023680133236000F0FFFB2B68C01A42F2A3
:101080001073984204D9FFF76DFE00F0F5FB28605D
:1010900033780BB1FFF780FE642002F06FFEE7E7C4
:1010A0009C010020940000209800002038B5012009
:1010B000134B144A1449FFF73FFC0220104B114A0E
:1010C0001149FFF739FC114D114C28461021FFF74B
:1010D00033FB20212046FFF72FFB2846FFF784FD36
:1010E0002046FFF781FD28461021FFF765FB2046CB
:1010F0002021FFF761FB0A2002F040FEE5E700BF78
:101100000000A040000020410000C8427A000020FA
:101110006C00002010B590B01422002108A804F043
:101120006BFA1422002101A804F066FA02244FF49D
:1011300080330122CDE90D43CDE906234FF4E013BE
:1011400006A80A920F9301F059FC08B172B6FEE7A7
:101150000F23CDE901344FF480630390CDE90430CF
:10116000214601A801F00CFE08B172B6FEE710B0EE
:1011700010BD0000F0B59BB000F060FBFFF7CAFFA8
:101180001022002112A804F037FAAC4B4FF4604152
:101190009A69AB4842F010029A619A69002402F001
:1011A00010020192019A9A69022542F020029A6186
:1011B0009A69012602F020020292029A9A6942F08C
:1011C00004029A619A6902F004020392039A9A69EE
:1011D00042F008029A619B69002203F0080304931D
:1011E000049B00F0F3FC00224FF40471954800F0DA
:1011F000EDFC002241F21A01934800F0E7FC4FF4A5
:1012000060438F4812A9CDE91445CDE9123600F0AC
:1012100009FC4FF404738B4812A9CDE91445CDE9BC
:10122000123600F0FFFB41F21A03874812A9CDE9FC
:101230001445CDE91236854D00F0F4FB8448854B0A
:10124000C0E90244C0E900534FF48043C0E90644BA
:10125000C0E90434046200F0C7FC044608B172B669
:10126000FEE70146102212A804F0C6F94FF6FF76F9
:101270004FF08043784DCDE90B442846C5E9003452
:10128000C5E90364AC60AC6101F076FF08B172B6E9
:10129000FEE74FF48057284612A9129702F052F841
:1012A00008B172B6FEE7CDE90B000BA9284602F0A3
:1012B00041F9034608B172B6FEE74FF4E1326748E0
:1012C0006749C0E90233C0E900120C220361C0E99A
:1012D0000523C36102F01EFA044608B172B6FEE7A8
:1012E0000146102207A804F087F91C2221460BA80A
:1012F0005C4DCDE9054404F07FF92022214612A877
:1013000004F07AF9584B2846C5E90034C5E902468D
:10131000C5E90444AC6101F02FFF08B172B6FEE7E5
:10132000284607A9079702F00DF808B172B6FEE744
:10133000284601F04DFF08B172B6FEE7CDE9050081
:1013400005A9284602F0F6F8024608B172B6FEE793
:101350006023CDE90D00CDE90B30CDE90F001190F0
:101360000BA9284601F08CFF08B172B6FEE70422F3
:101370003C480BA901F084FF08B172B6FEE74FF4B8
:101380000053CDE91200CDE914001690199012A96E
:101390003448179302F0FCF8044608B172B6FEE731
:1013A000304800F041F921462E4802F0C1F80421EE
:1013B0002C4802F0BDF82D4B1C602D4B1C602D4BB2
:1013C0001C70FFF727FC2C4B4FF480721C805C8054
:1013D0009C80DC801C81294B21461C605C60284B72
:1013E00028481C705C709C70DC7004F005F9264B7A
:1013F0001C70264B1C7000F03FFA254B0122186030
:101400002049164802F039FC02F048FC2146214AE6
:10141000214802F06FFC214B21461860204A2148E8
:1014200002F068FC204B21461860204A204802F058
:1014300061FC204B186002F043FCFEE70010024004
:101440000010014000080140000C01400054004021
:1014500044030020A0860100B402002024020020E2
:1014600000440040FC020020002C014090000020BD
:101470008C00002088000020B0010020A80100207E
:10148000A40100209A00002099000020980000206C
:10149000940000200057000831100008A00300202D
:1014A000DC560008691000089C030020B8560008AC
:1014B000AD10000898030020154B07B59A690F215D
:1014C00042F001029A619A696FF0010002F0010294
:1014D0000092009ADA6942F08052DA61DB690022F8
:1014E00003F080530193019B00F0DEF905210022F7
:1014F000084600F0D9F9052000F006FA054A5368BD
:1015000023F0E06343F00073536003B05DF804FB25
:10151000001002400000014010B5044686B01022C1
:10152000002102A804F068F82268194B9A422CD1D5
:10153000184CC022A369184843F00803A361A369AB
:1015400002A903F008030093009B1223CDE90223B4
:101550000323059300F066FAE369002243F40013C5
:10156000E361E369052103F400131F200193019B4C
:1015700000F09AF91F2000F0C7F920200022052171
:1015800000F092F9202000F0BFF906B010BD00BFB6
:101590000054004000100240000C014007B50368F1
:1015A0001F4A934224D11F4B05219A69182042F407
:1015B00000629A619B69002203F400630093009B20
:1015C00000F072F9182000F09FF90022052119207F
:1015D00000F06AF9192000F097F91B20002205217C
:1015E00000F062F91B2003B05DF804EB00F08CB949
:1015F000B3F1804F11D103F50433DA691C2042F0B6
:101600000102DA61DB69002203F001030193052185
:10161000019B00F049F91C20E5E703B05DF804FBED
:10162000002C01400010024010B5044686B0102284
:10163000002102A803F0E0FF22681A4B9A422ED143
:1016400003F564439A69022442F008029A619A6998
:10165000154802F008020092009A9A6902A942F025
:1016600004029A619B69059403F004030193019BB2
:101670000123CDE9023400F0D5F94FF480730B4813
:1016800002A9CDE90234059400F0CCF9084A536868
:1016900023F0C00343F0E06343F04003536006B01F
:1016A00010BD00BF002C0140000C014000080140AB
:1016B0000000014010B5044686B01022002102A8A7
:1016C00003F09AFF22681A4B9A422FD103F5E633B2
:1016D000DA69184842F40032DA61DA6902A902F4E0
:1016E00000320092009A9A69002442F004029A6142
:1016F0009B69042203F004030193019B0223CDE9BB
:1017000002230323059300F08DF9082309480DEB0C
:101710000301CDE90234049400F084F92620224626
:10172000052100F0C1F8262000F0EEF806B010BD4B
:101730000044004000080140FEE7FEE7FEE7FEE748
:10174000FEE7704708B500F08BF803F0C3FA0128F4
:1017500003D0BDE8084003F0A5BD08BD70470000F8
:10176000014801F043BC00BFFC020020FFF7F8BFB6
:10177000FFF7F6BF014801F039BC00BFB4020020FA
:10178000014800F043BC00BF44030020014801F0C1
:1017900095B800BF44030020014802F00BB900BF18
:1017A0002402002070470000FFF7FCFF0B480C49A3
:1017B0000C4A002302E0D458C4500433C4188C42AD
:1017C000F9D3094A094C002301E013600432A24214
:1017D000FBD303F019FFFFF7CDFC7047000000209A
:1017E000100000205857000810000020F41C0020B2
:1017F000FEE7000038B50E4B05461A784FF47A73B1
:10180000B3FBF2F30B4A1068B0FBF3F000F08AF878
:10181000044658B90F2D09D8024629464FF0FF302B
:1018200000F042F82046044B1D6038BD0120FCE763
:10183000040000200000002008000020074A08B52E
:101840001368032043F01003136000F01BF80F200F
:10185000FFF7D0FFFFF730FE002008BD0020024058
:10186000034A044B11681B780B441360704700BF98
:10187000A403002004000020014B1868704700BF3B
:10188000A403002007490302CA6803F4E06322F4BA
:10189000E0621204120C134343F0BF6343F40033BD
:1018A000CB60704700ED00E0154B30B5DC68C4F349
:1018B0000224C4F10703251D042B28BF0423062D91
:1018C0004FF0FF3594BF0024033C05FA03F321EAEF
:1018D0000303A54022EA0502A340002843EA0203CD
:1018E000ACBF00F16040074A4FEA0313DBB2ABBF65
:1018F00000F5614000F00F0080F80033135430BD54
:1019000000ED00E014ED00E0002807DB01234109B1
:10191000034A00F01F00834042F82130704700BFA7
:1019200000E100E00138B0F1807F0BD24FF0E023FE
:10193000F021054A586182F823100020072298619F
:101940001A6170470120704700ED00E090F82120F7
:101950000346022A06D0042282630120002283F873
:10196000202070470268C06B116821F00E011160E1
:10197000116821F00101116001211A6C01FA02F2D3
:101980004260002083F82110E8E7000008B590F8D5
:101990002130022B03D004238363012008BD036898
:1019A0001A6822F00E021A601A6822F001021A6008
:1019B000174A93421FD0143293421ED014329342DE
:1019C0001DD0143293421DD0143293421DD01432D4
:1019D000934214BF4FF080734FF480130D4A53604D
:1019E000012380F82130002380F82030436B03B1BD
:1019F00098470020D2E70123F0E71023EEE74FF4E9
:101A00008073EBE74FF48053E8E74FF48033E5E76A
:101A1000080002400000024090F821007047806BEF
:101A2000704700002DE9F74F00244FF00F0E2646B7
:101A3000DFF884C1614B00F104080A6832FA06F548
:101A400002D103B0BDE8F08F012505FA06F702EADE
:101A5000070537EA020276D14A68032A07D8013A15
:101A6000022A00F28380DFE802F091969C00122A9D
:101A700000F0948069D8112A00F08A80FF2D94BF6D
:101A80008146C1464FEA8602D9F8007088BF203AE5
:101A90000EFA02FA27EA0A0704FA02F21743C9F813
:101AA0000070D1F8049019F0805F4CD0DCF8182059
:101AB00026F0030742F00102CCF81820DCF81820C9
:101AC00007F1804702F00102019207F5803706F026
:101AD000030A019A4FEA8A0ABA680EFA0AFB22EA56
:101AE0000B0B374A904260D002F5806290425ED084
:101AF00002F5806290425CD002F58062904214BF91
:101B00000422032202FA0AF242EA0B02BA609A683D
:101B100019F4801F14BF2A43AA439A60DA6819F4A3
:101B2000001F14BF2A43AA43DA605A6819F4003F21
:101B300014BF2A43AA435A601A6819F4803F14BF9D
:101B40002A43AA431A60013677E7DFF878904A45BE
:101B50000CD014D8A9F580194A4507D009F5702989
:101B60004A4503D0A9F580194A4587D18A68D2B180
:101B7000012A4FF008040CBF076147617EE7DFF8D8
:101B800048904A45F2D009F58039EDE7CC6875E711
:101B9000CC68043472E7CC6808346FE7CC680C3446
:101BA0006CE700246AE7042468E70022AAE7012220
:101BB000A8E70222A6E700BF00100240000401408F
:101BC0000008014000002210000031100AB101613C
:101BD00070470904FBE7C36801EA030221EA030135
:101BE00041EA02410161704770B5044608B901201D
:101BF00070BD90F83D3003F0FF021BB980F83C2027
:101C0000FFF78AFC242384F83D3023681A6822F009
:101C100001021A601A6842F400421A601A6822F43B
:101C200000421A6001F048F93F4B65689D4294BF3D
:101C30003E4B3F4B98428CBF00230123002BD6D153
:101C4000394E3C4BB542B0FBF3F388BF4FF4967668
:101C50002268516821F03F0141EA030182BF7343CA
:101C60004FF47A76B3FBF6F35160116A013321F039
:101C70003F010B431362D169431E2B4821F44F41AE
:101C8000854221F0FF0132D86D00B3FBF5F340F639
:101C9000FC700133034242D0C3F30B031943D161FB
:101CA0001168D4E9073021F0C00103430B431360EE
:101CB0009168D4E9030321F40341034321F0FF01B8
:101CC0000B439360D168D4E9053021F0FF01034351
:101CD0000B43D3601368002043F0010313602023FB
:101CE000206484F83D30206384F83E0080E7A068DB
:101CF00050B905EB4505B3FBF5F30133C3F30B0313
:101D00007BB143F40043C9E719206843B3FBF0F308
:101D10000133C3F30B0323B143F44043BEE7042371
:101D2000BCE70123BAE700BFA08601007F841E0044
:101D3000FF083D0040420F007047704770477047F2
:101D400070477047704790F83D2008B5036DD2B2D8
:101D500083B9C36C0268012B836C05D1DBB21361BC
:101D6000036D0233036508BDC3F307231361036DDD
:101D70000133F7E7036D012B03D1836C0268DBB2FB
:101D8000F4E7036D022B2FD1222A05D102681368D4
:101D900043F480731360EAE7438D9BB263B1212A59
:101DA0000AD1436A026813F8011B11614362438D33
:101DB000013B9BB24385D6E7438D9BB2002BD2D12A
:101DC000212AD0D10268516821F4E0615160116884
:101DD00041F4007111602022036380F83D2080F8F7
:101DE0003E30FFF7AFFFBEE703685A69120644BFF3
:101DF00000221A61B7E7704770477047002337B574
:101E000046F2A81101932C4B406A1B6890F83D20C4
:101E1000B3FBF1F323214B4301930368D2B2019941
:101E200041BB016C41F020010164446B0CB1002105
:101E3000A162816B09B100258D621D6825F4806562
:101E40001D600025458504B1656301B14D631968C6
:101E500021F00101196090F83D10602911D1202373
:101E600080F83D30002380F83E300364FFF7C5FF63
:101E700003B030BD01990139019119688905CED4AB
:101E8000D3E702F02802282A0ED1196841F0010197
:101E90001960196841F4806119600023036380F8B8
:101EA0003D20FFF7A9FFE3E7202380F83D30002322
:101EB00080F83E30F5E700BF0000002010B590F834
:101EC0003D2090F83E300446102BD9B2D2B20368C0
:101ED00001D0402913D1222A11D1196821F40061BF
:101EE0001960596811F4006106D1602A1EBF2022D2
:101EF00084F83D2084F83E100022226307E002F0BF
:101F000028012829EDD10022226384F83D105A6867
:101F100012F400624FD05A68606B22F400625A607B
:101F200090F82130012B374B2BD04363FFF72EFD68
:101F300050B12268606B136823F001031360202303
:101F400084F83D30436B9847236C19071FBF226804
:101F5000536823F4E063536094F83D30226CDBB2A5
:101F600052070DD5282B0BD1274B2022E3620023EB
:101F70002046236384F83D2084F83E30FFF7E1FEDD
:101F800010BDA06B4363FFF701FD0028DCD0236880
:101F90005A69510605D51A69636A1A70636A013372
:101FA00063622268A06B136823F00103136020238F
:101FB00084F83D30C6E794F83D10602915D1202102
:101FC00084F83D1022645A69520605D51A69636A7D
:101FD0001A70636A0133636222682046136823F033
:101FE00001031360FFF709FFAEE75A69500605D5F4
:101FF0001A69636A1A70636A013363622046FFF7E5
:10200000FBFEA1E7FD1D00080000FFFFF0B5044640
:1020100003688FB05A68C66A90F83E0094F83D1085
:102020001028C5B2C9B202D0402D40F0E5829F69A8
:10203000586910F0010F07D1B6F52A0F02D0B6F19A
:102040002A4F51D10FB0F0BD96054DD5E26AB2F5D9
:102050002A0F0CD10122E26294F83E20402A11D1CD
:10206000226D52B9626C02F0FE021A61EAE7E26A7E
:10207000B2F12A4FF0D10822EDE7626C42F0010282
:10208000D2B2F2E72269B2F5804F1AD194F83D201E
:10209000212A626C11D102F0FE021A61626B0AB150
:1020A000926A2AB9A26B002ACCD0926A002AC9D0BF
:1020B0005A6842F400625A60C4E742F00102D2B2A8
:1020C000EBE7226D32B9626CD21102F0060242F0E7
:1020D000F002CAE7226D012AB4D1626CD21102F07B
:1020E000060242F0F102C0E7060703D5960501D5C6
:1020F000626CE4E7860740F1F080960540F1ED80E0
:1021000094F83E10E26A256B94F83D00C9B222288B
:1021100040F0DB80206D40B9402906D100905A691B
:1021200000929B690093009B8CE7216D89B920691F
:10213000B0F5404F0DD101915A6901929A6901920F
:10214000019A1A6842F480721A60236D0133236584
:1021500078E7618D89B251B902915A6902929A6900
:102160000292029A1A6842F400721A6019E0618DB4
:1021700089B2012949D112F5803F1BD11A6822F496
:1021800080621A605A6812F400620CD01A6822F455
:1021900080621A60002203925A6903929B6903933A
:1021A000039B0023D3E704925A6904929A6904922C
:1021B000049AD7E7082A1CD0202A1AD0122D0DD154
:1021C000012A16D11A6822F480621A600022059250
:1021D0005A6905929B690593059BE2E7102AF1D89D
:1021E000864941FA02F2D707ECD41A6842F48062B9
:1021F000EBE71A6822F480621A60002206925A699C
:1022000006929A690692069AACE7618D89B2022914
:1022100038D1102A03D87A49D140CE0718D419688A
:1022200041F400611960002107915969079199698A
:1022300007910799196821F48061196059680D05A3
:10224000AFD5202A1BD8072A0ED8012AA9D111E020
:10225000196841F480611960002108915969089159
:10226000996908910899E9E7A2F10801654ACA400D
:10227000D00796D55A6842F480525A6091E712F519
:10228000803FE3E7196841F48061196059680905E6
:1022900010D5202A16D8072A06D8012A0AD15A684A
:1022A00042F480525A6005E0A2F10801554ACA4042
:1022B000D207F4D4002209925A6909929B690993C2
:1022C000099B6EE712F5803FE8E700220A925A69FF
:1022D0000A929B690A930A9BB4E67F0740F19480B7
:1022E0005E6836053FF5AEAE070600F004063ED543
:1022F00050053CD5002E3DD194F83D20258D94F815
:102300003E10D2B2E06AC9B2C5B9212A18D1082854
:1023100058D0202856D010F5803F53D05A6822F468
:10232000E0625A6011232363002384F83E302023A7
:10233000204684F83D30FFF7FFFC83E6212A05D0D4
:1023400040297FF47FAE222A7FF47CAE628D92B268
:102350001AB95A6822F48062ADE694F83E20402A09
:1023600016D120460FB0BDE8F040FFF7ECBC002EC0
:102370003FF468AE97057FF565AE212939D1E16A52
:1023800094F83D20212A7FF45DAE628D92B24AB16D
:10239000626A12F8011B19616262638D013B9BB294
:1023A00063854FE608290DD020290BD011F5803F19
:1023B00008D0596821F4E06159601123236384F83F
:1023C0003E20B4E75A68204622F4E0625A601A6858
:1023D00042F400721A6000232022236384F83D2017
:1023E00094F83E2084F83E30402AA4D1FFF7AAFC9E
:1023F00028E6402D7FF426AEB3E700BFEBFFFEFFDB
:10240000140001000101000159680E053FF51AAEE4
:10241000450600F0040140F18680500540F18380BC
:10242000002940F0838094F83D20222A7FF40AAEF0
:10243000E06A628D92B2032A14D91A69636A1A702B
:10244000636A01336362638D013B9BB26385638D75
:102450009BB2032B7FF4F6AD2268536823F48063AC
:102460005360EFE5E56A022D3FF473AF012A3FF6B2
:1024700070AF0B9146F2A811784A1268B2FBF1F2E4
:1024800002EB82020B920B9A013A0B920B99D1B993
:10249000226C204642F0200222645A6822F4E06254
:1024A0005A601A69636A1A70636A01336362638DE2
:1024B000013B9BB26385202384F83D3084F83E10B5
:1024C000FFF79AFCBEE51A6812F40072DBD11968B6
:1024D00021F480611960596821F4E061596019693B
:1024E000636A1970636A01336362638D013B9BB257
:1024F0006385202384F83D3094F83E3084F83E20F4
:10250000402B04D122632046FFF775FC9AE508288A
:1025100001D0202801D1002300E0122320462363AC
:10252000FFF70BFC8EE500293FF48CAD92057FF59B
:1025300089ADE26A608D616A80B2042809D15A6867
:1025400022F480625A601B690B70636A0133636214
:1025500023E7608D80B203280CD15868042A20F448
:1025600080605860EFD0022AEDD01A6822F48062B1
:102570001A60E8E7608D80B20228E4D1042A33D0E3
:1025800007D8012A07D0022A2ED0186840F400701C
:1025900004E0102AF9D1186820F4806018601B69E3
:1025A0000B70616A4B1C6362638D013B9BB2638558
:1025B00023681B694B70636A216801336362638D12
:1025C000013B9BB263854B6823F440734B6020232F
:1025D00084F83D3094F83E30402B4FF0000384F8EF
:1025E0003E3005D123638EE7186840F48060D5E75C
:1025F000082A90D0202A8DE7206C10B30025586956
:1026000087072DD596052BD5226C02B19D6994F8CC
:102610003D2002F02802282A16D15A682F0622F4FB
:1026200080625A604FF0000385F00401204654BFD9
:10263000A289228BC1F3800184F83C30FFF780FB34
:1026400000E59D695869DBE700220C9259690C91FD
:102650009B6984F83C200C930C9BF3E40000002061
:10266000C60640F1B180950540F1AE8094F83D502A
:102670005A68EDB222F4E0625A6000220D925A6963
:102680000D921A6842F001021A600D9A1A6822F43B
:1026900080621A605A68100520D505F0F702222AD8
:1026A0004AD1A06B0268526892B26285628D92B282
:1026B0001AB1226C42F0040222645A6822F40062C9
:1026C0005A60FFF7A9F9012808D0A06B794B436342
:1026D000FFF75CF910B1A06B436B9847638D9BB219
:1026E00013B323685A69510709D51A69636A1A70C6
:1026F000636A01336362638D013B9BB26385236828
:102700005A69520609D51A69636A1A70636A0133F5
:102710006362638D013B9BB26385638D9BB21BB18A
:10272000236C43F004032364236C13B320460FB0DF
:10273000BDE8F040FFF7C2BB606B0268526892B21E
:102740006285628D92B21AB1226C42F00402226458
:102750005A6822F400625A60FFF75EF90128BDD082
:10276000606B544B4363FFF711F90028B6D0606BE0
:10277000B2E72A2D06D123632823204684F83D3072
:10278000FFF7DDFA94F83D30282B0CD14A4B20227C
:10279000E36200232046236384F83D2084F83E3022
:1027A000FFF7CFFA4EE4236B222B02D0222D7FF4C9
:1027B00049AC00232022236384F83D2084F83E3076
:1027C0002046FFF7BCFA3DE401F0F701212900F0B3
:1027D000040535D1070627D5560525D53DBB94F808
:1027E0003D00628DC0B292B2002A3FF42BAC626A07
:1027F00012F8015B1D616262628D013A92B26285DC
:10280000628D92B2002A7FF41DAC29287FF41AACA5
:102810005A68204622F480625A602823216384F893
:102820003D30FFF78BFA0DE4002D3FF40BAC95051E
:102830007FF508AC628D92B2002A3FF403ACA7E5A5
:10284000400627D5510525D53DBB94F83D20618D27
:10285000D2B289B200293FF4F5AB1969636A1970E5
:10286000636A01336362638D013B9BB26385638D51
:102870009BB2002B7FF4E6AB2A2A7FF4E3AB2268FD
:10288000536823F48063536022232363282384F84E
:102890003D3095E7002D3FF4D5AB92057FF5D2ABE7
:1028A000628D92B2002A3FF4CDAB1A69636A1A7046
:1028B0004BE600BFFD1D00080000FFFFF8B50368F0
:1028C00004465F695E6890F83E2017F48075D2B2C6
:1028D0000AD016F4807507D06FF480710125596114
:1028E000196841F400411960B80506D5F10542BFE9
:1028F0006FF4007145F002055961780536D5F10590
:1029000034D5608D94F83D10202AD4F830C080B2C0
:10291000C9B25FD100285DD101F0F700212804D0B1
:10292000282957D1BCF1210F54D194F83D20E16AF8
:10293000D2B2082901D020292AD1282A28D12E4A0A
:102940002046E2625A6822F4E0625A606FF48062C4
:102950005A611A6822F480621A60002320222363DD
:1029600084F83D2084F83E30FFF7EBF93A053FD577
:10297000F3053DD56FF40062236845F008055A6100
:10298000236C20462B432364BDE8F840FFF796BA3A
:10299000212A1BD11849E16222630021202284F8F8
:1029A0003D2084F83E105A6822F4E0625A606FF4C9
:1029B00080625A611A6822F480621A605A691006AD
:1029C00048BF19612046FFF7B9F9CFE76FF480627D
:1029D0005A61CBE76FF48061102A596145F0040514
:1029E00001D0402AC2D11A6842F400721A60BDE7D1
:1029F000002DC5D1F8BD00BF0000FFFF2DE9F34158
:102A0000054638B30368DB0710D42B689F075ED4F4
:102A10002B68190700F195802B685A0700F1C180D7
:102A2000EB69002B40F02C81002029E0904C63687A
:102A300003F00C03042B07D0636803F00C03082B8E
:102A40000AD16368DE0307D523689C03DDD56B6874
:102A5000002BDAD1012013E06B68B3F5803F12D16F
:102A6000236843F480332360FEF706FF064623689D
:102A70009803CAD4FEF700FF801B6428F7D903200F
:102A800002B0BDE8F0819BB9236823F48033236052
:102A9000236823F480232360FEF7EEFE06462368B6
:102AA0009903B2D5FEF7E8FE801B6428F7D9E6E764
:102AB000B3F5A02F236803D143F480232360CFE72D
:102AC00023F480332360236823F48023CBE7684C0E
:102AD000636813F00C0F07D0636803F00C03082B36
:102AE00010D16368DA030DD423689B0702D52B69E4
:102AF000012BAFD123686A6923F0F80343EAC203CC
:102B0000236085E72A695B4B6AB101221A60FEF7F0
:102B1000B3FE064623689F07ECD4FEF7ADFE801B8C
:102B20000228F7D9ABE71A60FEF7A6FE064623682F
:102B300098077FF56DAFFEF79FFE801B0228F6D940
:102B40009DE7AA694A4E4B4BE2B10122C3F88024AB
:102B5000FEF792FE0446736A9B070DD54FF4FA52B6
:102B6000454B1B68B3FBF2F3019300BF019B5A1E58
:102B70000192002BF9D14FE7FEF77EFE001B0228E1
:102B8000E9D97CE7C3F88024FEF776FE0446736A31
:102B90009F077FF541AFFEF76FFE001B0228F6D9B5
:102BA0006DE7334CE369D80024D40127E36943F08F
:102BB0008053E361E36903F080530093009B2F4E41
:102BC0003368D90518D5EB68012B26D1236A43F069
:102BD00001032362FEF750FE41F288380646236A5D
:102BE0009B073FD5002F3FF41BAFE36923F08053D1
:102BF000E36115E70027E2E7336843F4807333604D
:102C0000FEF73AFE80463368DA05DCD4FEF734FE80
:102C1000A0EB08006428F6D931E7ABB9236A41F28A
:102C2000883823F001032362236A23F0040323621C
:102C3000FEF722FE0646236A9807D3D5FEF71CFE50
:102C4000801B4045F7D91AE7052B236A03D143F0CF
:102C500004032362BAE723F001032362236A23F00B
:102C60000403B6E7FEF708FE801B4045B7D906E728
:102C700000100240000042420000002000700040AE
:102C80002A4C626802F00C02082A3ED00022022B75
:102C9000274B1A662CD1FEF7EFFD064623689901F3
:102CA00020D42B6AB3F5803F05D16268A96822F46D
:102CB00000320A436260696A62680B4322F474124C
:102CC0001343012263601A4B1A66FEF7D5FD0546D1
:102CD00023689A013FF5A8AEFEF7CEFD401B0228FF
:102CE000F6D9CCE6FEF7C8FD801B0228D6D9C6E689
:102CF000FEF7C2FD054623689B017FF595AEFEF702
:102D0000BBFD401B0228F6D9B9E6012B3FF4A2AE69
:102D100060682B6A00F480329A427FF49BAE6B6A43
:102D200000F47010C01A18BF0120A9E6001002407C
:102D3000000042420D4A536803F00C01082912D1E9
:102D40000B48C3F38341DB03405C09D55368094A50
:102D5000C3F340435043084AD35CB0FBF3F07047E1
:102D6000064B584370470348704700BF00100240AD
:102D70003E57000800127A003C57000800093D0049
:102D80002DE9F0410D46044610B90120BDE8F0815F
:102D9000444A136803F007038B4228D321688E0747
:102DA00030D4CA0743D43F4A136803F00703AB4249
:102DB00065D822683C4D12F0040F6CD1130706D57C
:102DC0006B68226923F4605343EAC2036B60FFF728
:102DD000B1FF6B68354AC3F30313D35CD840344B5F
:102DE0001860344B1868FEF705FD0020CEE7136825
:102DF00023F007030B431360136803F007038B42B0
:102E0000C3D1CBE7284B11F0040F1EBF5A6842F420
:102E1000E0625A60080742BF5A6842F460525A6042
:102E20005A68A06822F0F00202435A60B9E762686B
:102E30001D4E012A33681AD113F4003FA5D07368E0
:102E400041F2883823F0030313437360FEF714FD47
:102E500007467368626803F00C03B3EB820FA2D0DD
:102E6000FEF70AFDC01B4045F3D903208EE7022A76
:102E700002D113F0007FE1E713F0020FDEE71368E1
:102E800023F007032B431360136803F00703AB42DF
:102E90007FF47BAF8DE76B68E16823F4E0630B435D
:102EA0006B608BE700200240001002402C570008A6
:102EB0000000002008000020044B054A5B68C3F3B3
:102EC0000223D35C034A1068D840704700100240C8
:102ED0002457000800000020044B054A5B68C3F338
:102EE000C223D35C034A1068D840704700100240E8
:102EF0002457000800000020036A026A70B522F01F
:102F000001020262446882690D6822F073022A435A
:102F10008D6823F002032B430A4DA8420BD1CD68E4
:102F200023F008032B4324F44074D1E905563543BC
:102F300023F004032C43446082614A6842630362C5
:102F400070BD00BF002C0140036A026A70B522F414
:102F5000807202624468C2690D6822F073022A43DB
:102F60008D6823F4007343EA05230B4DA8420DD16D
:102F7000CD6823F4006343EA052324F44054D1E9E7
:102F80000556354323F4806344EA05144460C26166
:102F90004A68C263036270BD002C0140036A026A82
:102FA00030B522F4805202624468C2690D6822F48E
:102FB000E64242EA05228D6823F4005343EA0533D2
:102FC000064DA84202BF4D6924F4804444EA8514AA
:102FD0004460C2614A680264036230BD002C014053
:102FE000704770477047704770477047036870B507
:102FF000DD681E690446B1070DD5AA070BD56FF031
:1030000002021A61012202779B699B0769D0FFF7D0
:10301000EAFF00232377710710D56A070ED56FF0FA
:103020000402236820461A61022222779B6913F466
:10303000407F5CD0FFF7D7FF0023237733070FD5FE
:1030400028070DD56FF00802236820461A61042274
:103050002277DB69990750D0FFF7C5FF002323775C
:10306000F20610D5EB060ED56FF01002236820464D
:103070001A6108222277DB6913F4407F43D0FFF7FF
:10308000B2FF00232377F00708D5E90706D56FF0D4
:103090000102236820461A61FFF7A3FF320608D514
:1030A0002B0606D56FF08002236820461A6100F0D7
:1030B00096FA700608D5690606D56FF040022368B7
:1030C00020461A61FFF791FFB20622D5AB0620D544
:1030D0006FF0200223682046BDE870401A6100F0BE
:1030E0007DBAFFF77FFF2046FFF77EFF91E7FFF7EE
:1030F00079FF2046FFF778FF9EE7FFF773FF204632
:10310000FFF772FFAAE7FFF76DFF2046FFF76CFF9E
:10311000B7E770BD174A036890420AD0B0F1804FFC
:1031200007D0A2F59432904203D002F5806290421B
:1031300007D14A6823F070031343CA6823F440732D
:1031400013434A6923F08003134303608B68C3620F
:103150000B688362074B984204BF0B69036301232A
:1031600043610369DB0742BF036923F00103036185
:10317000704700BF002C014010B5044630B390F8F2
:103180003D3003F0FF021BB980F83C20FEF706FA41
:103190000223206884F83D30211DFFF7BBFF012387
:1031A000002084F8463084F83E3084F83F3084F8BC
:1031B000403084F8413084F8423084F8433084F859
:1031C000443084F8453084F83D3010BD0120FCE7E0
:1031D00010B5044630B390F83D3003F0FF021BB940
:1031E00080F83C20FFF7FCFE0223206884F83D3085
:1031F000211DFFF78FFF0123002084F8463084F85B
:103200003E3084F83F3084F8403084F8413084F810
:10321000423084F8433084F8443084F8453084F8F0
:103220003D3010BD0120FCE7036A026A70B522F050
:1032300010020262446882690D6822F4E64242EAA2
:1032400005228D6823F0200343EA05130B4DA842A5
:103250000DD1CD6823F0800343EA051324F44064C4
:10326000D1E90556354323F0400344EA8504446020
:1032700082614A688263036270BD00BF002C014016
:1032800038B590F83C300446012B4FD00120082A75
:1032900084F83C003AD006D8BAB1042A26D00023DC
:1032A00084F83C3038BD0C2AF9D12068FFF776FE4F
:1032B000C3690A6943F40063C361C36923F480638B
:1032C000C361C36943EA02232EE02068FFF714FEBE
:1032D00083690A6943F008038361836923F0040367
:1032E00083618369134383610020D8E72068FFF777
:1032F0009BFF83690A6943F400638361836923F454
:1033000080638361836943EA0223ECE72068FFF767
:103310001BFEC3690A6943F00803C361C36923F054
:103320000403C361C3691343C361DDE70220B9E746
:1033300010B584680A4324F47F4442EA03222243FE
:10334000826010BD38B590F83C300446012B4FF038
:10335000020000F08E80012284F83D00206884F88D
:103360003C20836823F47F4323F0770383600B685A
:10337000602B4FD032D8402B64D016D8202B0DD0E4
:103380000AD833F0100109D0012384F83D3000231E
:1033900084F83C30104638BD302BF5D1826822F0DD
:1033A0007002134343F0070328E0502BECD14A6826
:1033B000CD68016A036A21F00A0123F00103036268
:1033C00083690A4323F0F00343EA05138361026231
:1033D000836823F0700343F057030FE0B3F5805F79
:1033E0000DD0B3F5005F0CD0702BCDD1CB68D1E9F7
:1033F0000121FFF79DFF836843F07703836000227C
:10340000C2E7CB68D1E90121FFF792FF836843F45B
:103410008043F3E7036A026A4D6822F01002C9682C
:103420000262826923F0A00322F4704243EA05138A
:1034300042EA013282610362836823F0700343F041
:103440006703DBE74A68CD68016A036A21F00A0175
:1034500023F00103036283690A4323F0F00343EA84
:10346000051383610262836823F0700343F047030E
:10347000C4E702468EE710B50124036A01F01F017C
:103480008C4023EA04030362036A8A401A430262FF
:1034900010BD000008B529B990F83E30012B1DD0B1
:1034A00001202EE0042907D190F83F30012BF7D1FD
:1034B000022380F83F3014E0082907D190F840300B
:1034C000012BEDD1022380F840300AE090F8413022
:1034D000012BE5D1022380F8413002E0022380F87D
:1034E0003E3000680122FFF7C6FF0F4B984209D01B
:1034F000B0F1804F0BD1836803F00703062B0DD189
:10350000002008BD436C43F400434364F3E7074BDA
:103510009842F0D003F580639842ECD0036843F002
:1035200001030360ECE700BF002C014000040040F1
:10353000FFF7B0BF30B590F83C300246012B4FF09A
:10354000020022D0136882F83D005C680D6824F008
:1035500070042C4398685C600C4CA3420AD0B3F111
:10356000804F07D0A4F59434A34203D004F58064BF
:10357000A34204D1496820F08000014399600123EF
:10358000002082F83D3082F83C0030BD002C014024
:1035900090F83C300246012B1ED0CB68886823F49B
:1035A00040730343486823F480630343086823F4AB
:1035B00000630343086923F480530343486923F4F9
:1035C000005303430020C96923F480430B4311686F
:1035D0004B6482F83C007047022070477047704788
:1035E000026802F10C0353E8003F23F490730C329D
:1035F00042E8003102680029F2D102F1140353E8D5
:10360000003F23F0010302F1140C4CE800310029C3
:10361000F3D1036B012B0BD102F10C0353E8003FF4
:1036200023F0100302F10C0C4CE800310029F3D117
:10363000202380F8423000230363704710B504460E
:103640000368C1681A6922F440520A431A61826809
:103650000069D9680243606921F4B05121F00C017E
:1036600002430A43DA605A69A16922F440720A43AC
:103670005A610E4A934215D1FFF72EFC192343439A
:10368000626820689200B3FBF2F36422B3FBF2F1AC
:1036900002FB11331B013233B3FBF2F303EB0113D3
:1036A000836010BDFFF708FCE8E700BF0038014069
:1036B000F7B505460C4617461E462A68136834EAD5
:1036C000030301D1002021E0701CF7D0FEF7D4F8ED
:1036D000C01B86421CD3DEB12B68DA685107ECD5DB
:1036E000802CEAD0402CE8D01A681207E5D50024D7
:1036F00001941A68284601925B680193019BFFF7C9
:103700006FFF082301206B6485F8404003B0F0BDD3
:103710000320FBE710B5044648B390F8413003F0AE
:10372000FF021BB980F84020FDF7C4FF2423226864
:1037300084F84130D368204623F40053D360FFF768
:103740007DFF236800201A6922F490421A615A69A9
:1037500022F02A025A61DA6842F40052DA60202329
:10376000606484F8413084F84230606310BD012009
:10377000FCE72DE9F843984690F841300446202BA9
:103780000E4617463FD100293FD0002A3DD02123C5
:103790000025456480F84130FEF76EF8A368814645
:1037A000B3F5805FA784E78403D123690BB935465D
:1037B0001E46E38C9BB253B943464A4640212046FD
:1037C000FFF776FF202350B984F841300AE04346E2
:1037D0004A4680212046FFF76BFF28B120230320B3
:1037E00084F84130BDE8F88322684EB935F8023BD1
:1037F000C3F308035360E18C013989B2E184D8E74F
:1038000016F8013BF6E70220ECE70120EAE710B5E5
:103810000446226802F10C0353E8003F23F4F073DE
:103820000C3242E8003123680029F2D103F114027E
:1038300052E8002F22F0010203F1140040E80021B9
:103840000029F3D1226B012A0BD103F10C0252E8BB
:10385000002F22F0100203F10C0040E800210029A3
:10386000F3D15A6912061AD503F1140252E8002F57
:1038700022F0800203F1140040E800210029F3D176
:10388000A06B60B14163FEF761F840B1A06BFEF739
:10389000C6F8202803D110230320636410BD2268DA
:1038A00053695B0616D502F1140353E8003F23F079
:1038B000400302F1140040E800310029F3D1E06B2D
:1038C00040B14163FEF742F820B1E06BFEF7A7F884
:1038D0002028E0D000202023E084E085606484F884
:1038E000423084F841302063D8E7704708B50023A0
:1038F000406AC385C384FDF70DFA08BD704790F890
:10390000423007B5222B42D181680268B1F5805F51
:10391000836A3FD1016900293FD15268C2F308028E
:1039200023F8022B8362C38D013B9BB2C385002B1E
:103930002DD10268D16821F02001D160D16821F435
:103940008071D160516921F001015161202280F81C
:1039500042204363026B012A026828D1036302F10B
:103960000C0353E8003F23F0100302F10C0C4CE869
:1039700000310029F3D11368DB0605D501911368E6
:10398000019353680193019B818DFFF7B7FF03B04B
:103990005DF804FB39B9016929B95268D2B21A70CD
:1039A000836A0133BEE7526802F07F02F7E7FDF752
:1039B000F7FAECE7036873B51A6804461607D96886
:1039C0005D6908D1960668D58D0666D502B0BDE85A
:1039D0007040FFF794BF05F0010001F490750543B6
:1039E0005BD0D60705D5CD0542BF636C43F001031C
:1039F0006364530704D518B1636C43F00203636436
:103A0000960704D518B1636C43F00403636415078B
:103A100007D501F0200303431EBF636C43F0080386
:103A20006364636C002B32D0920604D58B0602D5FA
:103A30002046FFF764FF266820467369626C03F036
:103A4000400302F0080253EA020522D0FFF7C8FD46
:103A500073695E0618D5226802F1140353E8003F2B
:103A600023F04003143242E800310029F3D1E06B27
:103A700050B1744B4363FDF789FF40B1E06B436B7A
:103A800002B0BDE8704018472046FDF743F902B088
:103A900070BDFDF73FF96564F9E7206B012840F040
:103AA0009480D50640F19180C80640F18E800022B6
:103AB00001921A6801925A680192019A5A69520653
:103AC0004DD5E16B0A68526892B2002ADFD0A08D12
:103AD0009042DCD9E2858A69202A36D003F10C02B3
:103AE00052E8002F22F4807203F10C0040E800211C
:103AF0000029F3D103F1140252E8002F22F0010251
:103B000003F1140040E800210029F3D103F114026D
:103B100052E8002F22F0400203F1140040E8002197
:103B20000029F3D1202284F84220216303F10C0202
:103B300052E8002F22F0100203F10C0040E80021AF
:103B40000029F3D1E06BFDF701FF02236363E38DEE
:103B5000A18DC91A89B22046FFF7D0FE97E7E28D02
:103B6000E08DA18D80B292B2002890D0891A89B2DE
:103B700000298CD003F10C0252E8002F22F490723D
:103B800003F10C0545E800200028F3D103F11402ED
:103B900052E8002F22F0010203F1140545E800204D
:103BA0000028F3D1202284F84220206303F10C0284
:103BB00052E8002F22F0100203F10C0545E8002026
:103BC0000028F3D102236363C5E7160628D50D0646
:103BD00026D594F84120212A7FF459AFA168226AA2
:103BE000B1F5805F17D12169A9B932F8021BC1F381
:103BF000080159602262E28C013A92B2E284002A02
:103C00007FF445AFDA6822F08002DA60DA6842F0C9
:103C10004002DA603BE7511C216212785A60EAE701
:103C200050067FF534AF4A067FF531AFDA6820469B
:103C300022F04002DA60202384F84130FFF755FE7D
:103C400025E700BFED3800080023C2854364222326
:103C50008285026980F84230816203681AB1DA68AD
:103C600042F48072DA605A69002042F001025A611F
:103C7000DA6842F02002DA60704770B490F842606F
:103C8000202E06D141B13AB10024046370BCFFF785
:103C9000DBBF022070BC70470120FBE7EFF3058318
:103CA0002BB9064B186828B901221A6070476FF0CB
:103CB000050070474FF0FF30704700BF600A0020DA
:103CC00010B5EFF305845CB9084B1A68012A0AD1D4
:103CD000074AD47702221A6000F074FD204610BD16
:103CE0006FF00500FBE74FF0FF30F8E7600A0020B7
:103CF00000ED00E0F0B51446002287B00B460592B7
:103D0000EFF30582FAB9F0B154B3A56925B1691E84
:103D1000372902D9002017E018256268D207F9D4A4
:103D200066699EB1B2082168D4E9027C87B1BCF112
:103D30005B0F08D9246934B12EB1CDE90147009554
:103D400000F0D9FC0590059807B0F0BD8022EAE7A5
:103D5000BCF1000FF7D12469002CF4D10C4601E02E
:103D60001825802205A9CDE9005192B2214600F024
:103D7000FAFC01281CBF00230593E4E708B5EFF324
:103D8000058222B908B100F07DFE002008BD6FF069
:103D90000500FBE7034B0360034B0B6080231360BC
:103DA000704700BF040A002004080020034B036092
:103DB000034B0B604FF4807313607047A80700201B
:103DC000A80300204FF0FF3200F10803C0E90223EE
:103DD0004360036100230360704700230361704761
:103DE00043689A684B608A60516099600368086113
:103DF00001330360704730B50C68631C0AD1036956
:103E00005A684A6091608B605960036808610133A9
:103E1000036030BD00F10802134652681568A542E0
:103E2000FAD9EDE70369D0E901128A605160596857
:103E3000814208BF5A60002202611A68013A1A6082
:103E40001868704710B5044601F0D4F9A46B01F06E
:103E5000F1F9B4FA84F0400910BD70B51646026C51
:103E60000446856B42B906689EB9806800F042FF3F
:103E7000A6600135A56370BD6EB9406801F0E8FB2E
:103E80006368226C1344A2686360934224BF236872
:103E900063600020EDE7C06801F0DAFB226CE368A4
:103EA00051429B1A2268E36093423EBFA3685B18AD
:103EB000E360022EEDD10DB1013DEAE72846D8E7D7
:103EC00003461A6C084610B462B1DC689968144461
:103ED0008C4228BF1968DC6028BFD960D96810BC43
:103EE00001F0B6BB10BC704770B5044601F082F912
:103EF00094F8455004F124066DB2002D01DD636A8B
:103F0000B3B9FF2384F8453001F094F901F072F958
:103F100094F8445004F110066DB2002D01DD2369C0
:103F20007BB9FF2384F84430BDE8704001F082B9CA
:103F3000304600F041FE08B100F0C6FE013D6DB212
:103F4000DBE7304600F038FE08B100F0BDFE013D71
:103F50006DB2E2E738B50D46044640B94FF0500364
:103F600083F31188BFF36F8FBFF34F8FFEE701F02C
:103F700041F9D4E90F314B432268D0185B1AA06095
:103F8000626000201A44FF23A063E26084F844309A
:103F900084F84530A5B9236973B104F1100000F02D
:103FA0000BFE48B14FF0E0234FF08052C3F8042DD0
:103FB000BFF34F8FBFF36F8F01F03CF9012038BD85
:103FC00004F11000FFF7FEFE04F12400FFF7FAFEF3
:103FD000F2E737B50D461C4640B94FF0500383F366
:103FE0001188BFF36F8FBFF34F8FFEE743B94FF0D8
:103FF000500383F31188BFF36F8FBFF34F8FFEE73A
:104000004AB191B94FF0500383F31188BFF36F8F1A
:10401000BFF34F8FFEE741B14FF0500383F3118898
:10402000BFF36F8FBFF34F8FFEE750230193019BC8
:10403000502B08D04FF0500383F31188BFF36F8FDC
:10404000BFF34F8FFEE70121002D08BF2246C4E9D0
:104050000F0584F8461020462260019BFFF77AFF87
:1040600020469DF8183084F84C3003B030BD2DE95F
:10407000FF410F461E460446019240B94FF05003DF
:1040800083F31188BFF36F8FBFF34F8FFEE751B9F2
:10409000036C43B14FF0500383F31188BFF36F8F6C
:1040A000BFF34F8FFEE7022E0BD1E36B012B08D03D
:1040B0004FF0500383F31188BFF36F8FBFF34F8F1F
:1040C000FEE700F007FE054620B300254FF000088C
:1040D00001F090F8A26BE36B9A4227D23246394640
:1040E0002046FFF7BAFE636A1BB104F1240000F01A
:1040F00063FD48B14FF0E0234FF08052C3F8042D28
:10410000BFF34F8FBFF36F8F01F094F8012004B01D
:10411000BDE8F081019B002BD8D04FF0500383F312
:104120001188BFF36F8FBFF34F8FFEE7022ED5D0FC
:10413000019B1BB901F07EF80020E8E715B902A841
:1041400000F07AFD01F076F800F082FB01F052F801
:1041500094F84430FF2B08BF84F8448094F845302D
:10416000FF2B08BF84F8458001F064F801A902A87C
:1041700000F06EFD38BB01F03DF8A26BE36B9A4294
:104180000ED101F057F8019904F1100000F0DAFCAB
:104190002046FFF7A9FE00F001FC48B1012597E792
:1041A00001F048F82046FFF79FFE00F0F7FBF5E727
:1041B0004FF0E0234FF08052C3F8042DBFF34F8F30
:1041C000BFF36F8FEAE72046FFF78EFE00F0E6FBB5
:1041D000B2E72DE9F843894617461E46044640B922
:1041E0004FF0500383F31188BFF36F8FBFF34F8FEE
:1041F000FEE751B9036C43B14FF0500383F31188CC
:10420000BFF36F8FBFF34F8FFEE7022E0BD1E36B2F
:10421000012B08D04FF0500383F31188BFF36F8F49
:10422000BFF34F8FFEE701F0BDF8EFF311884FF0B9
:10423000500383F31188BFF36F8FBFF34F8FA26BCF
:10424000E36B9A4201D3022E1ED194F845503246B8
:10425000494620466DB2A36BFFF7FFFD6B1C0ED1E4
:10426000636A3BB104F1240000F0A6FC10B10FB169
:1042700001233B60012088F31188BDE8F8830135F4
:104280006DB284F84550F5E70020F4E72DE9FF41D1
:104290000E460446019240B94FF0500383F3118853
:1042A000BFF36F8FBFF34F8FFEE751B9036C43B17C
:1042B0004FF0500383F31188BFF36F8FBFF34F8F1D
:1042C000FEE700F007FD054618B300254FF0000893
:1042D00000F090FFA76B47B331462046013FFFF740
:1042E000EFFDA763236973B104F1100000F064FCD3
:1042F00048B14FF0E0234FF08052C3F8042DBFF3D4
:104300004F8FBFF36F8F00F095FF012004B0BDE821
:10431000F081019B002BD9D04FF0500383F311881B
:10432000BFF36F8FBFF34F8FFEE7019B1BB900F008
:1043300081FF0020EAE715B902A800F07DFC00F03B
:1043400079FF00F085FA00F055FF94F84430FF2B18
:1043500008BF84F8448094F84530FF2B08BF84F8E8
:10436000458000F067FF01A902A800F071FC00BBC6
:104370002046FFF767FDB0B1019904F1240000F079
:10438000E1FB2046FFF7B0FD00F008FB48B94FF015
:10439000E0234FF08052C3F8042DBFF34F8FBFF3DB
:1043A0006F8F012594E72046FFF79EFD00F0F6FA97
:1043B000F7E72046FFF798FD00F0F0FA2046FFF7F8
:1043C00041FD0028EDD0B4E7002330B5064A52F88D
:1043D000335002EBC3041DB942F83310606030BDA6
:1043E0000133082BF3D1FAE7640A002070B50446C4
:1043F0000D46164600F0FEFE94F84430FF2B04BF35
:10440000002384F8443094F84530FF2B04BF002388
:1044100084F8453000F00EFFA36B2BB932462946D5
:1044200004F1240000F0A8FB2046BDE87040FFF72F
:104430005BBD00002DE9F041044600F0DBFE304B8F
:10444000304E1A68304F01321A603568002D4BD15A
:1044500034601B68012B1FD1B84640460135FFF779
:10446000B1FC382D08F11408F7D1DFF8A080284DF1
:104470004046FFF7A7FC2846FFF7A4FC2548FFF7B6
:10448000A1FC2548FFF79EFC2448FFF79BFC244B2A
:10449000C3F80080234B1D601420234A13680133A6
:1044A0001360224A63641168E36A8B4200FB037065
:1044B00004F1040188BF1360FFF792FC00F0BAFE1C
:1044C0001B4B1B6873B13368DA6AE36A9A4209D2FC
:1044D0004FF0E0234FF08052C3F8042DBFF34F8F0D
:1044E000BFF36F8FBDE8F081114B1A68E36A002AB1
:1044F000D2D13268D26A9A4298BF3460CCE700BF0A
:10450000C80A00209C0F00203C0B0020280B002034
:10451000140B0020F80A0020E40A0020CC0A002036
:10452000100B00200C0B0020AC0A0020C00A002059
:10453000BC0A0020F8B50646144B154D1C682868C7
:104540000F460430FFF76EFC731C07D137B12968A2
:1045500010480431BDE8F840FFF742BC2B68A419AD
:104560005C6007D30C4B18682968BDE8F84004313B
:10457000FFF741BC094B186829680431FFF73BFC81
:10458000074B1A68A24288BF1C60F8BDC40A00200D
:104590009C0F0020CC0A00200C0B0020100B0020E8
:1045A000A80A0020064A13681968064B19B94FF08B
:1045B000FF321A6070471268D268D2685268F8E712
:1045C000100B0020A80A002010B590F859300446BE
:1045D0003BB9006B00F0D2FF2046BDE8104000F070
:1045E000CDBF012BF9D0022B08D04FF0500383F33D
:1045F0001188BFF36F8FBFF34F8FFEE710BD000030
:1046000080B5134C134F144D236873B9134B1B68BB
:10461000012BF8D94FF0E0234FF08052C3F8042D5E
:10462000BFF34F8FBFF36F8FEDE700F0E3FDFB6843
:10463000DE68301DFFF7F6FB2B68013B2B6023681B
:10464000013B236000F0F6FD3046FFF7BDFFDBE7DE
:10465000E00A0020E40A0020C80A00203C0B0020E9
:104660002DE9F0470D46DDE90994960032460746EC
:10467000A521206B984600F0BFFF236B043E1E442B
:1046800026F00706A5B36B1E04F133020F3513F8AD
:10469000011F02F8011F09B1AB42F8D1002384F8D1
:1046A0004330089D4FF0000A372D28BF3725201DC5
:1046B000E562E564C4F850A0FFF78FFBC5F138054B
:1046C00004F11800FFF789FBC4F854A042463946AC
:1046D00030462461A561646284F858A000F064FD4E
:1046E0002060B9F1000F01D0C9F80040BDE8F087A3
:1046F00084F83450D5E770B586B0DDE90B5445B980
:104700004FF0500383F31188BFF36F8FBFF34F8FC8
:10471000FEE744B94FF0500383F31188BFF36F8F66
:10472000BFF34F8FFEE75C260596059E5C2E08D0F2
:104730004FF0500383F31188BFF36F8FBFF34F8F98
:10474000FEE72563022584F8595004AD01950A9DC2
:1047500002940095059EFFF783FF2046FFF76AFE4F
:10476000049806B070BD2DE9F043074685B090006F
:1047700088461646994600F069FE054620B94FF076
:10478000FF3005B0BDE8F0835C2000F05FFE04461A
:1047900098B1002380F859300D9B056301930C9B61
:1047A000324641460290009338464B46FFF758FF89
:1047B0002046FFF73FFE0120E3E7284600F0DEFE3B
:1047C000DDE7000010B5002488B007AA06A905A8F7
:1047D000CDE90544FFF7DEFA059B079A0293069B95
:1047E0001649CDE9004316482346FFF784FF18B366
:1047F00000F014FB012814D14FF0500383F311880B
:10480000BFF36F8FBFF34F8F4FF0FF320D4B1A6026
:104810000D4B18600D4B1C6008B0BDE8104000F057
:1048200069BD013008D14FF0500383F31188BFF305
:104830006F8FBFF34F8FFEE708B010BDA35600087F
:1048400001460008A80A0020BC0A0020C40A002073
:10485000024A136801331360704700BFA40A0020A6
:10486000014B1868704700BFC40A0020404B2DE977
:10487000F74F1B68002B73D13E4B1C6801341C6042
:10488000BCB93D4B1A68126842B14FF0500383F334
:104890001188BFF36F8FBFF34F8FFEE7374A196858
:1048A000106818601160364A136801331360FFF70F
:1048B00079FE344D4FF0000B2B68334E9C42334F42
:1048C00012D214213A68D26A4A43B258022A304AB4
:1048D00028BF4FF0010B1268002A18BF4FF0010BE0
:1048E000584603B0BDE8F08FDFF88C90DFF8A4A045
:1048F000D9F8002012681AB94FF0FF322A60E0E7B9
:10490000D9F80020D268D2F80C80D8F804108C4274
:1049100001D22960D5E708F1040318460193FFF797
:1049200081FAD8F8281019B108F11800FFF77AFABF
:104930001423D8F82C00DAF80010884288BFCAF88F
:10494000000008F1040103FB0060FFF749FA386832
:10495000D8F82C10C26A914228BF4FF0010BC7E76C
:104960000D4A4FF0000B136801331360B8E700BF26
:10497000A40A0020C40A0020100B00200C0B002009
:10498000B00A0020A80A00203C0B00209C0F002049
:10499000B40A0020C00A0020B80A00202DE9F04126
:1049A000304C236843B94FF0500383F31188BFF3B1
:1049B0006F8FBFF34F8FFEE700F01CFC2368013BB5
:1049C000236024682CB1002400F034FC2046BDE8AC
:1049D000F081254B1B68002BF5D0244D244EDFF8C9
:1049E00094801DE0EB68DC68271D04F11800FFF7D8
:1049F00019FA3846FFF716FA1420E36A326800FB0A
:104A000003809342394688BF3360FFF7E9F91A4BB8
:104A1000E26A1B68DB6A9A4202D30122174B1A60D2
:104A20002B68002BDED10CB1FFF7BCFD144D2C68B8
:104A300044B10127114EFFF719FF00B13760013C67
:104A4000F9D12C600D4B1B68002BBCD04FF0E0233C
:104A50004FF08052C3F8042DBFF34F8FBFF36F8F19
:104A60000124B1E7A40A0020C80A0020F80A0020A7
:104A7000C00A00203C0B00209C0F0020B40A00203C
:104A8000B80A002008B550B94FF0E0234FF080522B
:104A9000C3F8042DBFF34F8FBFF36F8F08BD0A4BD0
:104AA000196841B14FF0500383F31188BFF36F8F42
:104AB000BFF34F8FFEE7FFF7CBFEFFF73BFDFFF79E
:104AC0006DFF0028E0D0E9E7A40A0020184B70B57C
:104AD0001A68184B12B101221A6070BD1426164DC7
:104AE0001A602A68154906FB02F3CC58C81894B11D
:104AF0004468083364680B449C4208BF63684460A0
:104B000008BF4360142303FB02114B68D9680C4BA8
:104B100019602A60E1E742B94FF0500383F311882E
:104B2000BFF36F8FBFF34F8FFEE7013ADBE700BFA4
:104B3000A40A0020B40A0020C00A00203C0B002078
:104B40009C0F002010B50C4640B94FF0500383F382
:104B50001188BFF36F8FBFF34F8FFEE7054B1968C6
:104B60001831FFF748F92046BDE810400121FFF752
:104B7000E1BC00BF9C0F002038B50D46144640B97B
:104B80004FF0500383F31188BFF36F8FBFF34F8F44
:104B9000FEE7084B19681831FFF722F9002C21466F
:104BA00008BF2846BDE8384018BF4FF0FF30FFF778
:104BB000C1BC00BF9C0F002038B5C368DC6844B995
:104BC0004FF0500383F31188BFF36F8FBFF34F8F04
:104BD000FEE704F118052846FFF724F9104B1B687F
:104BE000DBB9251D2846FFF71DF90E4A1420116870
:104BF000E36A8B42294688BF13600B4A00FB0320FF
:104C0000FFF7EEF8094BE26A1B68DB6A9A4285BF40
:104C10000120074B0020186038BD29460548EFE702
:104C2000A40A0020C00A00203C0B00209C0F00209A
:104C3000B40A0020F80A0020034B1B680360034BF2
:104C40001B684360704700BFB00A0020C40A002000
:104C500070B50C46054640B94FF0500383F31188F8
:104C6000BFF36F8FBFF34F8FFEE741B94FF0500393
:104C700083F31188BFF36F8FBFF34F8FFEE700F010
:104C8000B9FA0F4B196823685A1C10D00D482E68CA
:104C900000686A68864201D08A420FD9881A834226
:104CA0000AD95B1A134428462360FFF7C5FF002486
:104CB00000F0C0FA204670BD002323600124F7E70E
:104CC000C40A0020B00A00200122014B1A6070477C
:104CD000B40A0020054B1B6833B1054B1868B0FAC5
:104CE00080F040094000704701207047BC0A002056
:104CF000A40A002038B508B9002038BD1B4B1C6839
:104D0000844208D04FF0500383F31188BFF36F8FB4
:104D1000BFF34F8FFEE7236D43B94FF0500383F38A
:104D20001188BFF36F8FBFF34F8FFEE7E16AE26C2C
:104D3000013B91422365DFD0002BDDD1251D2846A4
:104D4000FFF770F81420E36CC3F13802A261084A3F
:104D5000E36211688B4288BF1360064A294600FB54
:104D60000320FFF73DF80120C7E700BF9C0F00209C
:104D7000C00A00203C0B0020914208B54160006150
:104D80000AD8D21A83699A420DD2084B011D1868BD
:104D9000FFF731F8002008BD9A4201D2994202D2B1
:104DA000034B011DF3E70120F5E700BF9C10002035
:104DB000A0100020F7B5114C00F01CFA2568BDB911
:104DC0000F4F104E3846FEF7FDFF3046FEF7FAFF54
:104DD0000D4B10211F600D4B0A201E600C4A0D4B1D
:104DE0000095FFF7F6F8206010B10B49FFF7ECFAD9
:104DF00003B0BDE8F04000F01DBA00BF98100020DD
:104E0000B8100020A4100020A01000209C1000204A
:104E1000F00F0020A00F0020A856000810B588B0A1
:104E2000FFF7C8FF124B1B68B3B1002407AA06A9FD
:104E300005A8CDE90544FEF7B9FF059B079A029343
:104E4000069B0C49019302230B4800932346FFF76E
:104E500052FC0A4B186040B94FF0500383F311889D
:104E6000BFF36F8FBFF34F8FFEE7012008B010BD77
:104E700098100020AD5600087D4F000894100020C7
:104E80007FB5164604461A4640B94FF0500383F3E7
:104E90001188BFF36F8FBFF34F8FFEE70D4D28686A
:104EA00080B10529CDE9001602940DDCFFF712FF51
:104EB0000023022818BF1A46694608BF089A2868C6
:104EC000FFF7D5F804B070BD00236946FFF781F9FC
:104ED000F8E700BF981000202DE9F3470646FFF7DA
:104EE000BFFCDFF88C800546D8F80030834209D932
:104EF000204F3B681A686AB91F4A1168136039600D
:104F0000012300E0002328463360C8F8005002B0B7
:104F1000BDE8F087DB68DC68D3F8009004F1040A90
:104F20005046FEF77FFF236A2046984794F82830C2
:104F30005B07DED5A3694B44994506D251463868D4
:104F400063602461FEF757FFD3E700234A46194602
:104F500020460093FFF794FF0028CAD14FF050037A
:104F600083F31188BFF36F8FBFF34F8FFEE700BF4E
:104F700090100020A01000209C1000202DE9F0438C
:104F80006E4D6F4E89B02B68D3F80080B8F1000FDA
:104F900035D00024DB68D3F80080FFF759FC04A863
:104FA000FFF79AFF049B8146002B69D1002C4CD15E
:104FB000404550D3FFF7F2FC2B68DB68DF68381DF3
:104FC000FEF730FF97F8283058071AD5B9694346DD
:104FD0004A4638464144FFF7CFFEB0B12346424629
:104FE000214638460094FFF74BFF70B94FF050034D
:104FF00083F31188BFF36F8FBFF34F8FFEE7012458
:10500000CBE723F0010387F8283038463B6A9847FE
:105010000022306804A9FFF739F90028B3D0049BB7
:105020000698002B2FDB069C6369002B32D103A866
:10503000FFF752FF049B0246092BE9D8DFE803F093
:105040002E2E2E575E762E2E575E3E4B1B681C680A
:10505000B4FA84F4640922463068A8EB0901FFF72A
:10506000C5F9FFF79BFC0028D2D14FF0E0234FF0A9
:105070008052C3F8042DBFF34F8FBFF36F8FC7E784
:10508000FFF78CFCC4E7059B07999847049B002B0E
:10509000BEDBC8E7201DFEF7C5FEC8E794F8283040
:1050A000A16943F0010384F82830059B2046194488
:1050B000FFF762FE0028ABD0236A2046984794F899
:1050C00028305907A4D50023A269059920460A442F
:1050D00000931946FFF7D4FE002899D14FF05003F2
:1050E00083F31188BFF36F8FBFF34F8FFEE794F800
:1050F000283023F0010384F8283089E794F8283019
:1051000043F0010384F828300599A16141B94FF0BB
:10511000500383F31188BFF36F8FBFF34F8FFEE708
:10512000034601442046FFF727FE71E794F8283034
:105130009A07DED4204600F021FA69E7A01000208B
:10514000981000209C10002006480068006880F33A
:10515000088862B661B6BFF34F8FBFF36F8F00DF71
:1051600000BF000008ED00E0002382B001930D4B6A
:105170001B68013308D04FF0500383F31188BFF34D
:105180006F8FBFF34F8FFEE74FF0500383F311880B
:10519000BFF36F8FBFF34F8F019B002BFCD002B08A
:1051A000704700BF0C0000204FF0807340F8043CB3
:1051B000054B21F0010140F8081C40F80C3C40F878
:1051C000202C4038704700BF6951000800000000E3
:1051D000074B19680868B0E8F00F80F30988BFF33F
:1051E0006F8F4FF0000080F311884EF00D0E704766
:1051F0009C0F00204FF0500383F31188BFF36F8F93
:10520000BFF34F8F0A4A13680133012B13600ED18D
:105210004FF0E023D3F8043DDBB243B14FF050032D
:1052200083F31188BFF36F8FBFF34F8FFEE7704793
:105230000C000020084A136843B94FF0500383F371
:105240001188BFF36F8FBFF34F8FFEE7013B1360F1
:105250000BB983F3118870470C0000200000000098
:10526000EFF30980BFF36F8F0D4B1A6820E9F00F41
:1052700010602DE908404FF0500080F31188FFF7CF
:1052800025FC4FF0000080F31188BDE80840196844
:105290000868B0E8F00F80F30988BFF36F8F70479C
:1052A0009C0F002008B54FF0500383F31188BFF323
:1052B0006F8FBFF34F8FFFF7D9FA28B14FF0E0237C
:1052C0004FF08052C3F8042D002383F3118808BDEA
:1052D0004FF0E02200234FF47A7113619361044B85
:1052E0001B68B3FBF1F3013B536107231361704764
:1052F0000000002013B5274B1A78D2B20192FF228A
:105300001A701B78244ADBB28DF803309DF8033005
:1053100003F0500313700723204A13609DF8031015
:10532000136809060AD4032B11D04FF0500383F3FE
:105330001188BFF36F8FBFF34F8FFEE7013B136000
:105340009DF803305B00DBB28DF80330E6E74FF4E5
:1053500040731360019B0F4ADBB213704FF0E023E0
:105360000024D3F8202D42F47002C3F8202DD3F886
:10537000202D42F07042C3F8202DFFF7A9FF084B03
:105380001C60FFF7E1FEFFF7A1FB2046FFF7ECFEF4
:1053900002B010BD00E400E0D0100020CC100020CE
:1053A0000C000020EFF305830F2B0ED9114A9B5CF4
:1053B000114A12789A4208D94FF0500383F31188AA
:1053C000BFF36F8FBFF34F8FFEE74FF0E0230B4A21
:1053D000D3F80C3D126803F4E063934208D94FF010
:1053E000500383F31188BFF36F8FBFF34F8FFEE736
:1053F000704700BFF0E300E0D0100020CC10002088
:1054000010B5104B1A461B688342FBD35468111920
:10541000884201BF4168104609195160446801196A
:105420008B420CD1084909688B4203D0596821444A
:10543000416019689042016018BF106010BD1946A4
:10544000F8E700BFEC100020E81000202DE9F04143
:105450000446FFF7FDF94249424D0B680BBB424A37
:1054600056071FBFD01D20F0070002F54062131A37
:105470000CBF4FF440630246002013443B4E083BF0
:1054800023F0070370603260C3E90000981AC2E994
:1054900000300B60364B1860364B18604FF00043FD
:1054A0002B602E68264255D1002C46D004F108030B
:1054B00060071CBF23F007030833002B4AD02D4F91
:1054C0003C689C4246D3294A15686868984204D2D1
:1054D000D5F800C0BCF1000F15D10968A94239D038
:1054E0002968D2F800801160C21A102A12D9E8186F
:1054F00041070BD04FF0500383F31188BFF36F8F38
:10550000BFF34F8FFEE72A466546DEE742606B60D9
:10551000FFF776FF00236A681549A41A1643164A56
:1055200008682B601368844203F101033C6038BFB4
:105530000C606E6008F108041360FFF72FFA630730
:105540000AD04FF0500383F31188BFF36F8FBFF37E
:105550004F8FFEE70024F0E72046BDE8F08100BF52
:10556000E8100020D4100020F4100020EC100020DF
:10557000E0100020E4100020DC10002010B50446EC
:1055800090B31A4A50F8043C1268134208D14FF005
:10559000500383F31188BFF36F8FBFF34F8FFEE784
:1055A00050F8081C41B14FF0500383F31188BFF34A
:1055B0006F8FBFF34F8FFEE723EA020340F8043CEE
:1055C000FFF746F90A4A54F8043C1168A4F10800B0
:1055D0000B441360FFF714FFBDE81040054A136841
:1055E00001331360FFF7DAB910BD00BFD4100020FB
:1055F000E4100020D810002003460244934200D15A
:10560000704703F8011BF9E770B500260C4D0D4CEF
:10561000641BA410A64209D100F028F800260A4D08
:105620000A4C641BA410A64205D170BD55F8043B7A
:1056300098470136EEE755F8043B98470136F2E704
:10564000505700085057000850570008545700089A
:105650000A44914200F1FF3300D1704710B511F8B0
:10566000014B914203F8014FF9D110BDF8B500BFCD
:10567000F8BC08BC9E467047F8B500BFF8BC08BC33
:045680009E4670478B
:105684004D6F746F725461736B0055617274546121
:10569400736B0064656661756C745461736B004967
:1056A400444C4500546D725100546D72205376631E
:1056B4000000000084560008000000000000000004
:1056C40000000000000000000002000018000000BC
:1056D40000000000000000008E56000800000000DA
:1056E40000000000000000000000000000020000B4
:1056F4002800000000000000000000009756000889
:105704000000000000000000000000000000000095
:10571400000200001800000000000000000000006B
:10572400000000000102030400000000000000006B
:10573400010203040607080901020203040506071F
:0C57440008090A0B0C0D0E0F10100000DD
:045750003501000817
:045754001101000837
:1057580000127A000100000010000000AAAAAAAAFC
:04000005080017A92F
:00000001FF
