:020000040800F2
:100000000050002055200008611F0008631F0008F1
:10001000651F0008671F0008691F00080000000036
:1000200000000000000000000000000081630008E4
:100030006B1F000800000000116400086D1F00081D
:100040009D2000089D2000089D2000089D2000089C
:100050009D200008851F00089D2000089D200008A5
:100060009D2000089D2000089D2000089D2000087C
:100070009D2000089D2000089D2000089D2000086C
:100080009D2000089D2000089D2000089D2000085C
:100090009D2000089D2000089D2000089D2000084C
:1000A000891F0008951F00089D200008D91F00081F
:1000B000DD1F0008E91F00089D2000082D20000812
:1000C000392000089D2000089D2000089D20000880
:1000D0009D2000089D200008452000089D20000864
:1000E0009D2000089D2000089D20000800000000C1
:1000F0000000000000000000000000000000000000
:0C01000000000000000000005FF808F1A3
:1001100010B5054C237833B9044B13B10448AFF341
:1001200000800123237010BD140000200000000097
:100130001C68000808B5034B1BB103490348AFF323
:10014000008008BD00000000180000201C680008A6
:1001500080F0004002E000BF81F0004142001FBF7C
:100160005FEA410392EA030F7FEA226C7FEA236C85
:100170006AD04FEA1262D2EB1363C1BFD21841407A
:1001800048404140B8BF5B42192B88BF704710F010
:10019000004F40F4000020F07F4018BF404211F0B3
:1001A000004F41F4000121F07F4118BF494292EA1B
:1001B000030F3FD0A2F1010241FA03FC10EB0C0047
:1001C000C3F1200301FA03F100F0004302D54942D4
:1001D00060EB4000B0F5000F13D3B0F1807F06D381
:1001E00040084FEA310102F10102FE2A51D2B1F179
:1001F000004F40EBC25008BF20F0010040EA03006E
:100200007047490040EB0000013A28BFB0F5000FED
:10021000EDD2B0FA80FCACF1080CB2EB0C0200FAA3
:100220000CF0AABF00EBC25052421843BCBFD040F2
:100230001843704792F0000F81F4000106BF80F46C
:1002400000000132013BB5E74FEA41037FEA226C2F
:1002500018BF7FEA236C21D092EA030F04D092F0FA
:10026000000F08BF0846704790EA010F1CBF00202E
:10027000704712F07F4F04D1400028BF40F000408B
:10028000704712F100723CBF00F50000704700F0AB
:10029000004343F0FE4040F4000070477FEA2262D2
:1002A00016BF08467FEA23630146420206BF5FEAA3
:1002B000412390EA010F40F4800070474FF00003A3
:1002C00004E000BF10F0004348BF40425FEA000C6A
:1002D00008BF704743F0964301464FF000001CE012
:1002E00050EA010208BF70474FF000030AE000BF68
:1002F00050EA010208BF704711F0004302D54042A6
:1003000061EB41015FEA010C02BF84460146002017
:1003100043F0B64308BFA3F18053A3F50003BCFA32
:100320008CF2083AA3EBC25310DB01FA02FC6344DF
:1003300000FA02FCC2F12002BCF1004F20FA02F2E6
:1003400043EB020008BF20F00100704702F12002D9
:1003500001FA02FCC2F1200250EA4C0021FA02F23A
:1003600043EB020008BF20EADC7070474FF0FF0C3F
:100370001CEAD0521EBF1CEAD15392EA0C0F93EA3A
:100380000C0F6FD01A4480EA010C400218BF5FEADC
:1003900041211ED04FF0006343EA501043EA51114F
:1003A000A0FB01310CF00040B1F5000F3EBF490049
:1003B00041EAD3715B0040EA010062F17F02FD2A4D
:1003C0001DD8B3F1004F40EBC25008BF20F0010030
:1003D000704790F0000F0CF0004C08BF49024CEA47
:1003E000502040EA51207F3AC2BFD2F1FF0340EAD9
:1003F000C250704740F400004FF00003013A5DDC4A
:1004000012F1190FDCBF00F000407047C2F100028A
:10041000410021FA02F1C2F1200200FA02FC5FEA77
:10042000310040F1000053EA4C0308BF20EADC70C1
:10043000704792F0000F00F0004C02BF400010F433
:10044000000F013AF9D040EA0C0093F0000F01F0E0
:10045000004C02BF490011F4000F013BF9D041EA02
:100460000C018FE70CEAD15392EA0C0F18BF93EA04
:100470000C0F0AD030F0004C18BF31F0004CD8D12E
:1004800080EA010000F00040704790F0000F17BFB5
:1004900090F0004F084691F0000F91F0004F14D0FB
:1004A00092EA0C0F01D142020FD193EA0C0F03D153
:1004B0004B0218BF084608D180EA010000F0004056
:1004C00040F0FE4040F40000704740F0FE4040F431
:1004D000400070474FF0FF0C1CEAD0521EBF1CEAD0
:1004E000D15392EA0C0F93EA0C0F69D0A2EB0302EE
:1004F00080EA010C49024FEA402037D04FF0805388
:1005000043EA111143EA10130CF000408B4238BF4C
:100510005B0042F17D024FF4000C8B4224BF5B1A5A
:1005200040EA0C00B3EB510F24BFA3EB510340EAA8
:100530005C00B3EB910F24BFA3EB910340EA9C0056
:10054000B3EBD10F24BFA3EBD10340EADC001B01C6
:1005500018BF5FEA1C1CE0D1FD2A3FF650AF8B426A
:1005600040EBC25008BF20F0010070470CF0004C77
:100570004CEA50207F32C2BFD2F1FF0340EAC250A2
:10058000704740F400004FF00003013A37E792F063
:10059000000F00F0004C02BF400010F4000F013AC1
:1005A000F9D040EA0C0093F0000F01F0004C02BFBC
:1005B000490011F4000F013BF9D041EA0C0195E725
:1005C0000CEAD15392EA0C0F08D142027FF47DAFBE
:1005D00093EA0C0F7FF470AF084676E793EA0C0FAE
:1005E00004D14B023FF44CAF08466EE730F0004CAC
:1005F00018BF31F0004CCAD130F000427FF45CAF3C
:1006000031F000437FF43CAF5FE700BF4FF0FF3CA9
:1006100006E000BF4FF0010C02E000BF4FF0010CFC
:100620004DF804CD4FEA40024FEA41037FEA226CC5
:1006300018BF7FEA236C11D001B052EA530C18BFE7
:1006400090EA010F58BFB2EB030088BFC81738BF4C
:100650006FEAE17018BF40F0010070477FEA226C3A
:1006600002D15FEA402C05D17FEA236CE4D15FEA36
:10067000412CE1D05DF8040B704700BF844608466A
:100680006146FFE70FB5FFF7C9FF002848BF10F12B
:10069000000F0FBD4DF808EDFFF7F4FF0CBF012070
:1006A00000205DF808FB00BF4DF808EDFFF7EAFFFA
:1006B00034BF012000205DF808FB00BF4DF808EDB5
:1006C000FFF7E0FF94BF012000205DF808FB00BFAA
:1006D0004DF808EDFFF7D2FF94BF012000205DF830
:1006E00008FB00BF4DF808EDFFF7C8FF34BF01203D
:1006F00000205DF808FB00BF42000ED2B2F1FE4FB1
:100700000BD34FF09E03B3EB126209D44FEA0023E0
:1007100043F0004323FA02F070474FF000007047A7
:1007200012F1610F01D1420202D14FF0FF30704748
:100730004FF00000704700BF034B0246587008217D
:10074000024801F019BF00BF30000020000C01403A
:10075000064AB2F88030003B18BF01230370B2F89C
:100760008230003B18BF0123437070470601002010
:100770000278034BA3F880204278A3F882207047C8
:100780000601002001280A4605D1064B06481970CB
:10079000102101F0F1BE022802D10846FFF7CCBFBC
:1007A000704700BF30000020000C014010B5094C1C
:1007B000E3880BB9E18C01B101210120FFF7E2FFD1
:1007C000B4F90032BDE81040002BB4BF0120002076
:1007D000FFF7B2BF0601002010B500240A4B1C60D1
:1007E00001F0A0FC3222094B1860094B09489A809D
:1007F0000C221C721C805C80DA8003685C6203F04F
:10080000C5F8054B1C8010BD3C00002040000020B6
:100810003200002014050020440000200023034A79
:1008200053801380D380024A136070473200002047
:100830003C000020024B1A88024BA3F86A20704744
:100840003200002006010020024B5A88024BA3F818
:100850006C2070473200002006010020024B1A7AFB
:10086000024BA3F8722070473200002006010020DE
:10087000024BB3F86E20024B9A80704706010020AD
:1008800032000020044B054AB3F87230003B18BF19
:1008900001231372704700BF0601002032000020C0
:1008A000024BB3F87020024BDA807047060100203B
:1008B000320000202DE9F84F384CFFF7E3FF237A90
:1008C0000BB1FFF7ABFFFFF7D3FFA3880BB93223C0
:1008D000A380FFF7E5FFE3880BB90C23E380304BDF
:1008E00030481A680188526ADFF8BC8092B291429F
:1008F00089BFDB68511A5B1A013388BF9B180280DD
:10090000D8F8002094BF8BB29BB21A44C8F80020DC
:1009100001F008FCDFF894900646D9F80030C31ABD
:10092000B3F5FA7F32D3E588A0886D0008BF18259B
:10093000FFF7C4FC1E49FFF719FD83462846FFF761
:10094000BDFC01465846FFF7C5FD4FF6FF73D8F8CA
:1009500000A00546534528BF53464FEA4A07DFF833
:1009600054A09BB26380AAF86C303846FFF7A6FC0F
:100970002946FFF7FBFCFFF7BFFE002380B2208073
:10098000AAF86A00C8F80030C9F80060FFF752FF03
:10099000FFF75AFFBDE8F84FFFF760BF32000020B5
:1009A00014050020440000203C00002040000020EE
:1009B000DB0F494006010020264B10B533F811200B
:1009C000541E012C98BF02704A1C33F81220012AD1
:1009D00098BF42708A1C33F812201AB1632A8CBF68
:1009E0006422D2B28270CA1C33F81220C2700A1D6F
:1009F00033F81220012A01D91C8804B102714A1D62
:100A000033F8122042718A1D33F812208271CA1DF8
:100A100033F81220C27101F1080233F81220027279
:100A200001F1090233F81220427201F10A0233F88F
:100A30001220827201F10B0233F81220C27201F10E
:100A40000C0233F812200D31027333F81130437366
:100A500010BD00BF060100200F4BB3F8002202803A
:100A6000B3F802224281B3F804228281B3F806224D
:100A7000C281B3F808220282B3F80A224280B3F896
:100A80000C224282B3F80E228280B3F81022C28078
:100A9000B3F81232038170470601002002781F4B21
:100AA00010B523F8112044784A1C23F812408478AA
:100AB0008A1C23F81240C478CA1C23F81240047917
:100AC0000A1D23F8124044794A1D23F81240847904
:100AD0008A1D23F81240C479CA1D23F81240047AF3
:100AE00001F1080223F81240447A01F1090223F8C7
:100AF0001240847A01F10A0223F81240C47A01F10B
:100B00000B0223F81240047B01F10C0223F812407F
:100B1000427B0D3123F8112010BD00BF06010020DB
:100B200002880F4BA3F800224288A3F80A22828889
:100B3000A3F80E22C288A3F810220289A3F8122279
:100B40004289A3F802228289A3F80422C289A3F869
:100B50000622028AA3F80822428AA3F80C227047D0
:100B60000601002038B50C4679B9144D01710A46CA
:100B70001348102101F000FD2B78012B04D12146F0
:100B8000104803F075FB2C7038BD012911D10A46BD
:100B9000017110210A4801F0EFFC084B1B78002B73
:100BA000F2D10021074803F027FB0122034B1A7002
:100BB000EAE70229E8D100220171EAE78104002076
:100BC00000080140CC04002038B50C4679B9144D1A
:100BD00001710A461348022101F0CEFC2B78012B4B
:100BE00004D12146104803F043FB2C7038BD012985
:100BF00011D10A46017102210A4801F0BDFC084BDF
:100C00001B78002BF2D10021074803F0F5FA0122EE
:100C1000034B1A70EAE70229E8D100220171EBE7E1
:100C200080040020000C01405C0500202DE9F84301
:100C30000468474B07469C42884616461BD0A3F5DE
:100C400094339C4215D1434D30464349D5F810901A
:100C5000FFF734FDF0B148463F49FFF743FD30B19F
:100C6000B8F1000F09D1C4F8348000232B610023B0
:100C70002B73BDE8F883394DE6E7B8F1040F4FF068
:100C8000000301D1A363F0E7B8F1080F0CBFE363E1
:100C90002364EAE730463249FFF724FD00B1304EC5
:100CA00049463046FFF758FA2E4920F00040FFF73A
:100CB000FBFC0028DDD1264B9C422B4C3ED102F0A0
:100CC000E1FD636813F4605F18BF4000FFF7F6FAB8
:100CD0003146FFF7FFFB4FF08F418046FFF702FDE3
:100CE000044660B14FF05E514046FFF73FFBFFF70F
:100CF00003FD4FF6FF73984228BF18460446601C58
:100D0000FFF7DCFA01464046FFF7E4FBFFF7F4FC8F
:100D1000D0B14FF6FF720138904228BF1046421CF6
:100D2000A0B1520801232B73AA603A68C5E90040BC
:100D3000D3682E6143F00103D3609AE702F092FD7D
:100D4000636813F4E06FBFE70122EBE70020E9E7F7
:100D5000002C0140480000200000C8435C00002037
:100D600000504347CDCCCC3D00100240F8B5642381
:100D7000234EC5790446B04214BF0226012680786E
:100D80005D43FFF79FFA1F49FFF7A4FBA5F5C87560
:100D900007462846FFF796FA01463846FFF7E6FA77
:100DA0001949FFF7DBF9FFF7A7FC87B2A7F5C87071
:100DB00090FBF5F0FFF786FA1249FFF7D7FA00210A
:100DC0000546FFF771FCB0B928460E49FFF78AFCCB
:100DD00098B92846FFF790FCE0703846FFF76EFAA6
:100DE000012E02464FF000010CBF08480848FFF7EB
:100DF0001DFFE078F8BD0025EBE7024DE9E700BFF5
:100E0000CA0000200000C8420000C843CC040020F3
:100E10005C0500206E4B2DE9F04F984214BF022371
:100E2000012385B001936B4B6B4C08BF1C466423B8
:100E300090F80790064603FB09F9A9F5C870FFF77B
:100E400041FA0090B078FFF73DFA6449FFF742FBA2
:100E50000099FFF78BFA6249FFF780F9D4F818A0E0
:100E6000206051460746FFF777F95E49054620F0B6
:100E70000040FFF719FC4FF00008002840F0978071
:100E80004146284696F809B0FFF72CFC002800F0F0
:100E900088805846FFF716FA5049FFF767FA01466F
:100EA000D4F814B0A1605846FFF760FA6168FFF704
:100EB00055F9337A054618460393FFF703FA474975
:100EC000FFF754FA014602902846FFF70BFC039BFC
:100ED00008B102990D465842FFF7F4F93F49FFF770
:100EE00045FA29460290FFF7FDFB08B1029B1D461B
:100EF000294658466560FFF739FA5146FFF72EF943
:100F000082464846FFF7DEF9814601465046FFF724
:100F1000E9FB00B1CA4650463149FFF7C5FB08B1AD
:100F2000DFF8BCA000212846C4F818A0FFF7BCFBDE
:100F300000283ED051463846FFF7CAFB20B1A761D2
:100F4000C4F80480C4F80880A56925492846FFF73D
:100F500003F90099FFF7BEFA2049FFF707FA0021CD
:100F60000446FFF7A1FB00282ED120461B49FFF7BE
:100F7000B9FB58BB2046FFF7BFFBF0702846FFF7D0
:100F8000BBFB80B2FFF79AF9019B0246012B0CBF15
:100F9000154816480021FFF749FEF07805B0BDE876
:100FA000F08F5846FFF78AF900F1004074E7414698
:100FB00076E700212846FFF795FB0028C4D051466C
:100FC0003846FFF77BFBB9E70024D3E7034CD1E7B2
:100FD000CA0000208C000020700000200000C842E1
:100FE0000000C843BD378635CC0400205C050020D6
:100FF00010B543780446012B26D1214B98420ED1DF
:101000000179FFF7AFFD00224FF400711D4801F098
:10101000B3FA2378012B0DD0022B10D010BD1A4B40
:101020009842F6D10179FFF7CFFD00224FF48051AD
:101030001648ECE72046BDE81040FFF797BE204673
:10104000BDE81040FFF7E6BE002BE7D1104A03735E
:101050001383C3700A4B012298424FF0000407D15A
:101060004FF40071074801F087FA0A4B9C61D5E7FD
:101070004FF48051054801F07FFA074BF6E700BFB7
:10108000CA00002000080140BC000020000C014004
:10109000060100208C00002070000020074A084B49
:1010A0000849012808BF1346074A59611A600022FF
:1010B0005A609A60DA601A619A6170478C00002069
:1010C000700000206F12033C0000C84308B500F018
:1010D00013F80648FFF7C0FC00210548FFF76CFC39
:1010E000BDE8084010210348FFF766BCA8000020B7
:1010F000CA000020BC000020002270B5052101209C
:10110000022664250424314BA3F80012A3F802122E
:10111000A3F80812D98119829982D985A3F80422EB
:10112000A3F80602A3F80A02A3F80C02A3F80E2201
:10113000A3F81022A3F8122218805A809A80DA802D
:101140001A815E821A835A835D819A81DC821884B7
:101150005A849A84DA841A85198699863221A3F8EA
:101160006E100C215E861A875A875D859A85DC860B
:10117000A3F84020A3F84220A3F84420A3F8462077
:10118000A3F84820A3F84A20A3F86A20A3F86C200B
:10119000A3F87010A3F87220A3F86020A3F86220CF
:1011A000A3F86420A3F86620A3F86820084B1A80EF
:1011B0005A809A80DA801A81064B1A605A60064B70
:1011C0001A705A709A70DA7070BD00BF0601002064
:1011D000FC000020F4000020F000002070B5002288
:1011E00004464FF6FF70084E8A4200DB70BD0825AA
:1011F000A35C584040F30003334083EA5003013DB1
:1012000098B2F7D10132EFE701A0FFFF02681D4B52
:1012100010B59A4234D100F085FF1B4B1B49186072
:101220000B78FF2B28D01A4C5A1CD2B219482478BC
:10123000022A0A70C45418D94378062B03D00BD85D
:10124000033B012B18D808239A420ED30123124ADC
:101250001370124A137008E0102B0DD1062A04D91E
:101260008379093313F0FF03EED1BDE8104001226A
:1012700007490B4803F0BBBB0023074A0B70E9E7A3
:1012800010BD00BF00440040600300206503002043
:101290005E0300206603002064030020DC000020C1
:1012A0008404002008B50268094B9A420ED100233D
:1012B000084A09481370094A137003F062F9BDE83F
:1012C000084001220649044803F091BB08BD00BF55
:1012D00000440040650300208404002064030020D3
:1012E0005E03002010B5084C204603F04AF90023A5
:1012F000064A20461370064A06491370BDE810409E
:10130000012203F074BB00BF8404002065030020A9
:10131000640300205E0300202DE9F0417B4DC0B046
:101320002F78052F23D97A4E7A4CB6F8003294F8EC
:101330000080984504D00023774A2B70137016E084
:10134000B91E2046FFF74AFF625CC3B29A4206D13B
:10135000274417F8013CC0F30F2083420AD0002332
:101360006D4A2B7013706D4A13680133136040B0DF
:10137000BDE8F08163788DF80080062B8DF8013090
:1013800000F09F8007D8032B2DD0042B6FD00122B3
:1013900043F0800389E0102BF9D16288A38852BA08
:1013A0005BBA92B29BB202EB0308B8F5967F94F851
:1013B00002E094F803C027796079A1797FDCB1EB72
:1013C000430F7CD106EB42060022934204F1020453
:1013D00040F3918094F80580A179013241EA082117
:1013E00026F8021BF1E76288A08852BA40BA92B28E
:1013F00080B21118B1F5967F55DC002441008DF8BC
:10140000021006EB42025F1C1E46A04203F10203DB
:10141000FFB2DBB221DC0331C9B26846FFF7DEFE62
:101420008C1C0DF801003E4E0131000AC9B20DF8C6
:1014300001003068E4B218B14FF0FF3103F076FBE1
:10144000642322466946374803F04DF83068002887
:101450003FF471AF03F08DFB6DE732F802CB01343E
:101460004FEA1C2E0DF806E00DF807C0CBE76288A6
:10147000A38852BA5BBA92B29BB2D11805291ADC82
:101480002948002400EB42006A4659008DF80210FA
:10149000A34202F10202BEDD30F8026B0134370ACA
:1014A00057709670F4E78323022203218DF80130F0
:1014B0008DF80220B1E78423F6E78623F4E7902332
:1014C000F2E7618894F802E04BBA9BB2B3F5967FDD
:1014D00094F803C0A28827796079EED254BA26F82E
:1014E000134040F60113994205D1B2F5807F02D135
:1014F0000023A6F8103206218DF802E08DF803C013
:101500008DF804708DF8050087E700BF65030020A3
:10151000060100206603002064030020E000002094
:101520006804002084040020FC00002070B51F4CDB
:101530001F4E2278B6F802329A4236D01D4D2868E6
:1015400018B14FF0FF3103F0F1FAB6F80232013B67
:10155000032B22D8DFE803F02502191D02224FF4E5
:1015600096432270144C2046636002F0A2FF20468E
:1015700002F070FF01222046104903F038FA286873
:1015800098B1BDE8704003F0F4BA03224FF416435B
:10159000E7E704224FF46143E3E705224FF4E13328
:1015A000DFE701224FF41653DBE770BD0000002097
:1015B0000601002068040020840400205E0300204F
:1015C00038B500F0AFFD094A04461368C31AB3F5F5
:1015D0007A7F0AD3106047F23052054D2B68C31A48
:1015E000934202D9FFF77EFE2C6038BDD800002060
:1015F0006003002008B500F095FD054B012218603E
:10160000044B054918600548BDE8084003F0EFB9F0
:1016100060030020D80000205E0300208404002026
:10162000F8B503F021FA04460C4D0D4F0D4E284637
:10163000FFF78EF82846FFF7B9F82846FFF798F825
:101640003B6804F5FA7401333B60338000F06AFDB7
:101650007080204603F053FAE9E700BF3000002015
:10166000EC000020FC0000202DE9F04142F6F824B7
:10167000FFF7C0FF194B1A4F5B681A4EB4FBF3F427
:10168000A400052C38BF052403F0EEF905463B689D
:1016900001333B6033785BB9DFF84C8098F8003059
:1016A00063B91435FFF78CFF284603F028FAEEE7FC
:1016B000FFF732FE3378002BF3D1EDE700F032FD77
:1016C0000A4B1B68C01AA042EBD90023084A88F8CD
:1016D00000303370136801331360E2E784040020A4
:1016E000E800002064030020650300206003002060
:1016F000E0000020F8B503F0B7F904460120FFF739
:10170000CDFC0220FFF7CAFC154F164E164D1448AB
:10171000FFF7A2F900213046FFF74EF910212846C5
:10172000FFF74AF93B89012B01D1FFF7CFFCFFF707
:10173000FDFE3046FFF75CFC2846FFF759FC3046BB
:101740000021FFF7ABF910212846FFF7A7F9143461
:101750003846FFF7E5F9204603F0D1F9D7E700BF97
:10176000A8000020CA000020BC00002070B503F0D3
:101770007BF904460A4E0B4D4FF40041084800F037
:1017800000FF2B78012B06D14FF48041304600F04A
:10179000F8FE00232B707834204603F0B0F9EBE715
:1017A00000100140DC00002010B503F05DF9044694
:1017B0006434FFF77FF8204603F0A1F9F8E710B58D
:1017C00090B01422002108A804F0EEFF142200219A
:1017D00001A804F0E9FF02244FF480330122CDE98F
:1017E0000D43CDE906234FF4E01306A80A920F93A8
:1017F00001F0DAFD08B172B6FEE70F23CDE901343E
:101800004FF480630390CDE90430214601A801F034
:101810008DFF08B172B6FEE710B010BD80B59AB06A
:1018200000F062FCFFF7CBFF1022002112A804F0A9
:10183000BBFFAD4B4FF460419A69AC4842F01002D7
:101840009A619A69002402F010020192019A9A6941
:10185000022542F020029A619A69012702F02002D3
:101860000292029A9A69202642F004029A619A69C9
:1018700002F004020392039A9A6942F008029A6104
:101880009B69002203F008030493049B00F074FE9C
:1018900000224FF40471964800F06EFE002241F2DF
:1018A0001A01944800F068FE4FF460438F4812A973
:1018B000CDE91237CDE9144500F01CFD4FF4047357
:1018C0008B4812A9CDE91237CDE9144500F012FD7D
:1018D000874812A9CDE91264149400F00BFD41F27F
:1018E0001A03844812A9CDE91237CDE9144500F056
:1018F00001FD4FF4C8437F4812A9CDE912347E4D53
:10190000149400F0F7FC7D487D4BC0E90244C0E927
:1019100000534FF48043C0E90644C0E90434046234
:1019200000F038FE054608B172B6FEE70146142203
:1019300012A804F039FF102229460BA84FF6FF77B2
:10194000CDE9075504F030FF4FF080436D4C204641
:10195000C4E90035C4E90375A560A56102F00AF980
:1019600008B172B6FEE7204602F05CF908B172B623
:10197000FEE707204023CDE912030823204612A9E1
:10198000169302F0B5FB08B172B6FEE7CDE9070089
:1019900007A9204602F06EFC024608B172B6FEE7C7
:1019A00003230B90CDE90C300E900BA9204602F0DA
:1019B00011FA034608B172B6FEE74FF4E13252481D
:1019C0005249C0E90233C0E900120C220361C0E9A8
:1019D0000523C36102F03EFD044608B172B6FEE77E
:1019E0000146102207A804F0DFFE1C2221460BA8A6
:1019F000CDE9054404F0D8FE3246214612A804F091
:101A0000D3FE434D434B2846C5E900348023C5E946
:101A10000247C5E90444AB6102F0ACF808B172B604
:101A2000FEE74FF48053284607A9079302F067FAB0
:101A300008B172B6FEE7284602F0C8F808B172B6DF
:101A4000FEE70023324805A9CDE9053302F012FC78
:101A5000024608B172B6FEE76026CDE90D00CDE979
:101A60000B60CDE90F0011900BA9294802F032F963
:101A700008B172B6FEE7082225480BA902F02AF940
:101A800008B172B6FEE74FF40053CDE91200CDE97C
:101A900014001690199012A91D48179302F018FC13
:101AA000054608B172B6FEE7194800F0C3F91022E6
:101AB00029460BA804F078FE1C22294612A8164CD1
:101AC000CDE9075504F070FE144B2046C4E90035FB
:101AD0004FF6FF73C4E903358023A560A36102F0CC
:101AE00049F8E8B172B6FEE700100240001001406C
:101AF00000080140000C014000540040A4050020F3
:101B0000A086010014050020840400200044004049
:101B10005C050020002C0140CC04002000040040A3
:101B20004FF4805320460BA90B9302F0E8F908B15B
:101B300072B6FEE7204602F049F808B172B6FEE739
:101B4000CDE9070007A9204602F094FB024608B140
:101B500072B6FEE7CDE912601490169012A92046E5
:101B600002F0B8F808B172B6FEE70422204612A9C6
:101B700002F0B0F808B172B6FEE70024234800F086
:101B800059F9234B1C60234B1C60234B1C70FFF73F
:101B9000B3FAFEF721FE4FF4807221461F4804F08D
:101BA00003FE1F4B1C701F4B1C7000F0BBFA1E4B3A
:101BB0000122186019491D4802F019FF02F028FFA0
:101BC00021461B4A1B4802F056FF1B4B214618605A
:101BD0001A4A1B4802F04FFF1A4B214618601A4A56
:101BE0001A4802F048FF1A4B21461860194A1A4851
:101BF00002F041FF194B21461860194A194802F0BA
:101C00003AFF194B186002F015FFFEE7CC040020E4
:101C1000E4000020E0000020DD000020660300203A
:101C2000650300206403002060030020840400207A
:101C300008690008211600087C040020E4680008F8
:101C40006916000878040020C0680008F51600082E
:101C5000740400209C6800086D17000870040020C0
:101C600078680008A91700086C040020154B07B518
:101C70009A690F2142F001029A619A696FF001009E
:101C800002F001020092009ADA6942F08052DA61B1
:101C9000DB69002203F080530193019B00F05AFAA4
:101CA00005210022084600F055FA052000F082FACE
:101CB000054A536823F0E06343F00073536003B0B8
:101CC0005DF804FB001002400000014010B504461E
:101CD00086B01022002102A804F066FD2268194B8C
:101CE0009A422CD1184CC022A369184843F008032B
:101CF000A361A36902A903F008030093009B1223C8
:101D0000CDE902230323059300F0F4FAE3690022EE
:101D100043F40013E361E369052103F400131F207A
:101D20000193019B00F016FA1F2000F043FA2020D7
:101D30000022052100F00EFA202000F03BFA06B048
:101D400010BD00BF0054004000100240000C0140D4
:101D5000102210B5044688B00DEB0200002104F0FB
:101D600023FD23682F4A934223D12F4B05219A69E3
:101D7000182042F400629A619B69002203F4006318
:101D80000093009B00F0E6F9182000F013FA0022FF
:101D90000521192000F0DEF9192000F00BFA1B20B4
:101DA0000022052100F0D6F91B2000F003FA08B04C
:101DB00010BDB3F1804F20D103F50433DA691B481D
:101DC00042F00102DA61DA6904A902F0010201922B
:101DD000019A9A6942F004029A619B6903F0040334
:101DE0000293029B0123049300F084FA1C2000223A
:101DF000052100F0AFF91C20D7E70D4A9342D6D158
:101E0000094B1D20DA69052142F00202DA61DB6923
:101E1000002203F002030393039B00F09BF91D20B3
:101E2000C3E700BF002C0140001002400008014041
:101E30000004004010B5044686B01022002102A81C
:101E400004F0B2FC2368144A934215D1134B9A69EB
:101E500042F004029A619B6903F004030093009B23
:101E60004FF4A063029302230D4802A90393059344
:101E700000F040FA06B010BD0A4A9342FAD1074B6F
:101E80009A6942F004029A619B6903F0040301938A
:101E9000019BC023E6E700BF002C01400010024078
:101EA000000801400004004010B5044686B010222E
:101EB000002102A804F078FC22681A4B9A422FD124
:101EC00003F5E633DA69184842F40032DA61DA6978
:101ED00002A902F400320092009A9A69002442F0AA
:101EE00004029A619B69042203F004030193019B9D
:101EF0000223CDE902230323059300F0FBF9082315
:101F000009480DEB0301CDE90234049400F0F2F925
:101F100026202246052100F01DF9262000F04AF96E
:101F200006B010BD004400400008014008B502683A
:101F3000084B9A420DD1084A0848D3690C2123F472
:101F40000033D36100F0AAFABDE80840262000F073
:101F50003FB908BD004400400010024000080140A5
:101F6000FEE7FEE7FEE7FEE7FEE7704708B500F094
:101F7000CDF803F0EFFE012803D0BDE8084004F0DF
:101F800069BA08BD70470000014801F02CBD00BFD0
:101F90005C0500200E4B1B681A69D10715D5DA685D
:101FA000D20712D50B4A117B79B111689962516839
:101FB000D9629168596300211173DA6822F0010235
:101FC000DA606FF001021A617047014801F00BBD41
:101FD0005C0500205C000020FFF7D6BF014801F03F
:101FE00002BD00BF140500200E4B1B681A69D10703
:101FF00015D5DA68D20712D50B4A117B79B1116871
:1020000099625168D9629168596300211173DA6845
:1020100022F00102DA606FF001021A617047014894
:1020200001F0E1BCCC04002048000020014800F091
:10203000C3BC00BFA4050020014801F015B900BFD2
:10204000A4050020014802F06FBB00BF84040020FB
:1020500070470000FFF7FCFF0B480C490C4A0023B7
:1020600002E0D458C4500433C4188C42F9D3094A4E
:10207000094C002301E013600432A242FBD304F0B8
:102080009BFBFFF7CBFB70470000002014000020F3
:10209000606900081400002048230020FEE70000CB
:1020A00038B50E4B05461A784FF47A73B3FBF2F34A
:1020B0000B4A1068B0FBF3F000F09CF8044658B9E6
:1020C0000F2D09D8024629464FF0FF3000F042F8A4
:1020D0002046044B1D6038BD0120FCE708000020AD
:1020E000040000200C000020074A08B513680320F4
:1020F00043F01003136000F01BF80F20FFF7D0FF30
:10210000FFF7B4FD002008BD00200240034A044B45
:1021100011681B780B441360704700BFF80500205E
:1021200008000020014B1868704700BFF805002028
:1021300007490302CA6803F4E06322F4E062120470
:10214000120C134343F0BF6343F40033CB6070477A
:1021500000ED00E0154B30B5DC68C4F30224C4F197
:102160000703251D042B28BF0423062D4FF0FF3540
:1021700094BF0024033C05FA03F321EA0303A540BE
:1021800022EA0502A340002843EA0203ACBF00F1A3
:102190006040074A4FEA0313DBB2ABBF00F5614072
:1021A00000F00F0080F80033135430BD00ED00E064
:1021B00014ED00E0002807DB01234109034A00F089
:1021C0001F00834042F82130704700BF00E100E06B
:1021D00000280CDB01220649430900F01F00824061
:1021E000203341F82320BFF34F8FBFF36F8F704729
:1021F00000E100E00138B0F1807F0BD24FF0E02326
:10220000F021054A586182F82310002007229861C6
:102210001A6170470120704700ED00E090F821201E
:102220000346022A06D0042282630120002283F89A
:10223000202070470268C06B116821F00E01116008
:10224000116821F00101116001211A6C01FA02F2FA
:102250004260002083F82110E8E7000008B590F8FC
:102260002130022B03D004238363012008BD0368BF
:102270001A6822F00E021A601A6822F001021A602F
:10228000174A93421FD0143293421ED01432934205
:102290001DD0143293421DD0143293421DD01432FB
:1022A000934214BF4FF080734FF480130D4A536074
:1022B000012380F82130002380F82030436B03B1E4
:1022C00098470020D2E70123F0E71023EEE74FF410
:1022D0008073EBE74FF48053E8E74FF48033E5E792
:1022E000080002400000024090F821007047806B17
:1022F000704700002DE9F74F00244FF00F0E2646DF
:10230000DFF884C1614B00F104080A6832FA06F56F
:1023100002D103B0BDE8F08F012505FA06F702EA05
:10232000070537EA020276D14A68032A07D8013A3C
:10233000022A00F28380DFE802F091969C00122AC4
:1023400000F0948069D8112A00F08A80FF2D94BF94
:102350008146C1464FEA8602D9F8007088BF203A0C
:102360000EFA02FA27EA0A0704FA02F21743C9F83A
:102370000070D1F8049019F0805F4CD0DCF8182080
:1023800026F0030742F00102CCF81820DCF81820F0
:1023900007F1804702F00102019207F5803706F04D
:1023A000030A019A4FEA8A0ABA680EFA0AFB22EA7D
:1023B0000B0B374A904260D002F5806290425ED0AB
:1023C00002F5806290425CD002F58062904214BFB8
:1023D0000422032202FA0AF242EA0B02BA609A6865
:1023E00019F4801F14BF2A43AA439A60DA6819F4CB
:1023F000001F14BF2A43AA43DA605A6819F4003F49
:1024000014BF2A43AA435A601A6819F4803F14BFC4
:102410002A43AA431A60013677E7DFF878904A45E5
:102420000CD014D8A9F580194A4507D009F57029B0
:102430004A4503D0A9F580194A4587D18A68D2B1A7
:10244000012A4FF008040CBF076147617EE7DFF8FF
:1024500048904A45F2D009F58039EDE7CC6875E738
:10246000CC68043472E7CC6808346FE7CC680C346D
:102470006CE700246AE7042468E70022AAE7012247
:10248000A8E70222A6E700BF0010024000040140B6
:102490000008014000002210000031102DE9F74F24
:1024A0004FF0040B00224FF0010A4FF00F0800EB31
:1024B0000B0301932E4B31FA02F402D103B0BDE8B5
:1024C000F08F0AFA02F70F4049D022F0030404F11A
:1024D000804404F5803402F0030CA5684FEA8C0CAC
:1024E00008FA0CF909EA050E224DA84239D005F583
:1024F0008065A84237D005F58065A84235D005F53E
:102500008065A84214BF0425032505FA0CF575451E
:102510006FEA07060FD11D6835401D605D683540C4
:102520005D60DD683540DD609D6835409D60A56873
:1025300025EA0905A560FF2F94BF0746019F4FEAD2
:1025400082043D6888BF203C08FA04FC25EA0C059B
:102550000BFA04F425433D60C4683440C460013282
:10256000A9E70025D1E70125CFE70225CDE700BF88
:1025700000040140000801400AB1016170470904EC
:10258000FBE7C36801EA030221EA030141EA0241D1
:102590000161704770B5044608B9012070BD90F81C
:1025A0003D3003F0FF021BB980F83C20FFF78EFBA3
:1025B000242384F83D3023681A6822F001021A604F
:1025C0001A6842F400421A601A6822F400421A6043
:1025D00001F048F93F4B65689D4294BF3E4B3F4B2D
:1025E00098428CBF00230123002BD6D1394E3C4B9F
:1025F000B542B0FBF3F388BF4FF49676226851687A
:1026000021F03F0141EA030182BF73434FF47A7620
:10261000B3FBF6F35160116A013321F03F010B4324
:102620001362D169431E2B4821F44F41854221F0AA
:10263000FF0132D86D00B3FBF5F340F6FC700133B7
:10264000034242D0C3F30B031943D1611168D4E9AB
:10265000073021F0C00103430B4313609168D4E9B4
:10266000030321F40341034321F0FF010B43936073
:10267000D168D4E9053021F0FF0103430B43D36057
:102680001368002043F0010313602023206484F8C2
:102690003D30206384F83E0080E7A06850B905EB28
:1026A0004505B3FBF5F30133C3F30B037BB143F4EF
:1026B0000043C9E719206843B3FBF0F30133C3F3C8
:1026C0000B0323B143F44043BEE70423BCE70123DB
:1026D000BAE700BFA08601007F841E00FF083D000E
:1026E00040420F007047704770477047704770470F
:1026F000704790F83D2008B5036DD2B283B9C36C22
:102700000268012B836C05D1DBB21361036D0233C8
:10271000036508BDC3F307231361036D0133F7E7B6
:10272000036D012B03D1836C0268DBB2F4E7036D08
:10273000022B2FD1222A05D10268136843F480733B
:102740001360EAE7438D9BB263B1212A0AD1436A41
:10275000026813F8011B11614362438D013B9BB278
:102760004385D6E7438D9BB2002BD2D1212AD0D10D
:102770000268516821F4E0615160116841F4007110
:1027800011602022036380F83D2080F83E30FFF77F
:10279000AFFFBEE703685A69120644BF00221A6100
:1027A000B7E7704770477047002337B546F2A81166
:1027B00001932C4B406A1B6890F83D20B3FBF1F36A
:1027C00023214B4301930368D2B2019941BB016CB1
:1027D00041F020010164446B0CB10021A162816BC6
:1027E00009B100258D621D6825F480651D600025F6
:1027F000458504B1656301B14D63196821F001019C
:10280000196090F83D10602911D1202380F83D30E7
:10281000002380F83E300364FFF7C5FF03B030BDEE
:1028200001990139019119688905CED4D3E702F0E5
:102830002802282A0ED1196841F00101196019688F
:1028400041F4806119600023036380F83D20FFF7A5
:10285000A9FFE3E7202380F83D30002380F83E30D5
:10286000F5E700BF0400002010B590F83D2090F877
:102870003E300446102BD9B2D2B2036801D04029B1
:1028800013D1222A11D1196821F400611960596805
:1028900011F4006106D1602A1EBF202284F83D2079
:1028A00084F83E100022226307E002F02801282964
:1028B000EDD10022226384F83D105A6812F40062C0
:1028C0004FD05A68606B22F400625A6090F8213051
:1028D000012B374B2BD04363FFF7C0FC50B122686C
:1028E000606B136823F001031360202384F83D30EC
:1028F000436B9847236C19071FBF2268536823F462
:10290000E063536094F83D30226CDBB252070DD582
:10291000282B0BD1274B2022E36200232046236380
:1029200084F83D2084F83E30FFF7E1FE10BDA06B37
:102930004363FFF793FC0028DCD023685A695106F3
:1029400005D51A69636A1A70636A01336362226883
:10295000A06B136823F001031360202384F83D303B
:10296000C6E794F83D10602915D1202184F83D1068
:1029700022645A69520605D51A69636A1A70636A35
:102980000133636222682046136823F00103136059
:10299000FFF709FFAEE75A69500605D51A69636A61
:1029A0001A70636A013363622046FFF7FBFEA1E7FA
:1029B000A92700080000FFFFF0B5044603688FB0A8
:1029C0005A68C66A90F83E0094F83D101028C5B2C7
:1029D000C9B202D0402D40F0E5829F69586910F0DD
:1029E000010F07D1B6F52A0F02D0B6F12A4F51D107
:1029F0000FB0F0BD96054DD5E26AB2F52A0F0CD1A5
:102A00000122E26294F83E20402A11D1226D52B98F
:102A1000626C02F0FE021A61EAE7E26AB2F12A4F42
:102A2000F0D10822EDE7626C42F00102D2B2F2E787
:102A30002269B2F5804F1AD194F83D20212A626CA8
:102A400011D102F0FE021A61626B0AB1926A2AB9D0
:102A5000A26B002ACCD0926A002AC9D05A6842F4EC
:102A600000625A60C4E742F00102D2B2EBE7226D85
:102A700032B9626CD21102F0060242F0F002CAE7EB
:102A8000226D012AB4D1626CD21102F0060242F02A
:102A9000F102C0E7060703D5960501D5626CE4E7AD
:102AA000860740F1F080960540F1ED8094F83E10E5
:102AB000E26A256B94F83D00C9B2222840F0DB8021
:102AC000206D40B9402906D100905A6900929B6957
:102AD0000093009B8CE7216D89B92069B0F5404FC8
:102AE0000DD101915A6901929A690192019A1A686D
:102AF00042F480721A60236D0133236578E7618D9B
:102B000089B251B902915A6902929A690292029A63
:102B10001A6842F400721A6019E0618D89B20129C5
:102B200049D112F5803F1BD11A6822F480621A60E5
:102B30005A6812F400620CD01A6822F480621A609B
:102B4000002203925A6903929B690393039B00231B
:102B5000D3E704925A6904929A690492049AD7E7D7
:102B6000082A1CD0202A1AD0122D0DD1012A16D1E4
:102B70001A6822F480621A60002205925A6905924E
:102B80009B690593059BE2E7102AF1D8864941FA33
:102B900002F2D707ECD41A6842F48062EBE71A68B5
:102BA00022F480621A60002206925A6906929A699B
:102BB0000692069AACE7618D89B2022938D1102AB3
:102BC00003D87A49D140CE0718D4196841F400617E
:102BD000196000210791596907919969079107992F
:102BE000196821F48061196059680D05AFD5202A54
:102BF0001BD8072A0ED8012AA9D111E0196841F47F
:102C000080611960002108915969089199690891BA
:102C10000899E9E7A2F10801654ACA40D00796D5AC
:102C20005A6842F480525A6091E712F5803FE3E718
:102C3000196841F4806119605968090510D5202A86
:102C400016D8072A06D8012A0AD15A6842F48052B7
:102C50005A6005E0A2F10801554ACA40D207F4D4EF
:102C6000002209925A6909929B690993099B6EE7B0
:102C700012F5803FE8E700220A925A690A929B699E
:102C80000A930A9BB4E67F0740F194805E6836059C
:102C90003FF5AEAE070600F004063ED550053CD524
:102CA000002E3DD194F83D20258D94F83E10D2B2EF
:102CB000E06AC9B2C5B9212A18D1082858D02028FD
:102CC00056D010F5803F53D05A6822F4E0625A6023
:102CD00011232363002384F83E302023204684F808
:102CE0003D30FFF7FFFC83E6212A05D040297FF421
:102CF0007FAE222A7FF47CAE628D92B21AB95A68F6
:102D000022F48062ADE694F83E20402A16D1204697
:102D10000FB0BDE8F040FFF7ECBC002E3FF468AE0A
:102D200097057FF565AE212939D1E16A94F83D20F8
:102D3000212A7FF45DAE628D92B24AB1626A12F8C6
:102D4000011B19616262638D013B9BB263854FE693
:102D500008290DD020290BD011F5803F08D05968E3
:102D600021F4E06159601123236384F83E20B4E725
:102D70005A68204622F4E0625A601A6842F40072EF
:102D80001A6000232022236384F83D2094F83E201B
:102D900084F83E30402AA4D1FFF7AAFC28E6402D53
:102DA0007FF426AEB3E700BFEBFFFEFF1400010087
:102DB0000101000159680E053FF51AAE450600F005
:102DC000040140F18680500540F18380002940F0E5
:102DD000838094F83D20222A7FF40AAEE06A628D57
:102DE00092B2032A14D91A69636A1A70636A0133AA
:102DF0006362638D013B9BB26385638D9BB2032B42
:102E00007FF4F6AD2268536823F480635360EFE5E6
:102E1000E56A022D3FF473AF012A3FF670AF0B91C4
:102E200046F2A811784A1268B2FBF1F202EB820274
:102E30000B920B9A013A0B920B99D1B9226C204656
:102E400042F0200222645A6822F4E0625A601A6951
:102E5000636A1A70636A01336362638D013B9BB2DC
:102E60006385202384F83D3084F83E10FFF79AFCF8
:102E7000BEE51A6812F40072DBD1196821F4806192
:102E80001960596821F4E06159601969636A197021
:102E9000636A01336362638D013B9BB263852023C8
:102EA00084F83D3094F83E3084F83E20402B04D125
:102EB00022632046FFF775FC9AE5082801D02028F8
:102EC00001D1002300E0122320462363FFF70BFC0F
:102ED0008EE500293FF48CAD92057FF589ADE26A5D
:102EE000608D616A80B2042809D15A6822F4806238
:102EF0005A601B690B70636A0133636223E7608D5C
:102F000080B203280CD15868042A20F480605860ED
:102F1000EFD0022AEDD01A6822F480621A60E8E746
:102F2000608D80B20228E4D1042A33D007D8012A68
:102F300007D0022A2ED0186840F4007004E0102A4E
:102F4000F9D1186820F4806018601B690B70616A01
:102F50004B1C6362638D013B9BB2638523681B69D5
:102F60004B70636A216801336362638D013B9BB2DE
:102F700063854B6823F440734B60202384F83D3015
:102F800094F83E30402B4FF0000384F83E3005D1DA
:102F900023638EE7186840F48060D5E7082A90D054
:102FA000202A8DE7206C10B30025586987072DD59E
:102FB00096052BD5226C02B19D6994F83D2002F054
:102FC0002802282A16D15A682F0622F480625A60F5
:102FD0004FF0000385F00401204654BFA289228BE4
:102FE000C1F3800184F83C30FFF780FB00E59D6968
:102FF0005869DBE700220C9259690C919B6984F8AF
:103000003C200C930C9BF3E404000020C60640F126
:10301000B180950540F1AE8094F83D505A68EDB20C
:1030200022F4E0625A6000220D925A690D921A68E9
:1030300042F001021A600D9A1A6822F480621A6046
:103040005A68100520D505F0F702222A4AD1A06B54
:103050000268526892B26285628D92B21AB1226C95
:1030600042F0040222645A6822F400625A60FFF7B8
:103070003BF9012808D0A06B794B4363FFF7EEF8CA
:1030800010B1A06B436B9847638D9BB213B3236859
:103090005A69510709D51A69636A1A70636A01335C
:1030A0006362638D013B9BB2638523685A69520654
:1030B00009D51A69636A1A70636A01336362638DA2
:1030C000013B9BB26385638D9BB21BB1236C43F0C4
:1030D00004032364236C13B320460FB0BDE8F04013
:1030E000FFF7C2BB606B0268526892B26285628D64
:1030F00092B21AB1226C42F0040222645A6822F49D
:1031000000625A60FFF7F0F80128BDD0606B544BA5
:103110004363FFF7A3F80028B6D0606BB2E72A2D0F
:1031200006D123632823204684F83D30FFF7DDFADB
:1031300094F83D30282B0CD14A4B2022E362002327
:103140002046236384F83D2084F83E30FFF7CFFA11
:103150004EE4236B222B02D0222D7FF449AC0023B6
:103160002022236384F83D2084F83E302046FFF778
:10317000BCFA3DE401F0F701212900F0040535D146
:10318000070627D5560525D53DBB94F83D00628D31
:10319000C0B292B2002A3FF42BAC626A12F8015B13
:1031A0001D616262628D013A92B26285628D92B255
:1031B000002A7FF41DAC29287FF41AAC5A682046F7
:1031C00022F480625A602823216384F83D30FFF79F
:1031D0008BFA0DE4002D3FF40BAC95057FF508ACA0
:1031E000628D92B2002A3FF403ACA7E5400627D5D2
:1031F000510525D53DBB94F83D20618DD2B289B2F1
:1032000000293FF4F5AB1969636A1970636A0133E9
:103210006362638D013B9BB26385638D9BB2002B20
:103220007FF4E6AB2A2A7FF4E3AB2268536823F4E9
:103230008063536022232363282384F83D3095E77D
:10324000002D3FF4D5AB92057FF5D2AB628D92B2E3
:10325000002A3FF4CDAB1A69636A1A704BE600BFCF
:10326000A92700080000FFFFF8B5036804465F695E
:103270005E6890F83E2017F48075D2B20AD016F43A
:10328000807507D06FF4807101255961196841F488
:1032900000411960B80506D5F10542BF6FF4007111
:1032A00045F002055961780536D5F10534D5608DB4
:1032B00094F83D10202AD4F830C080B2C9B25FD152
:1032C00000285DD101F0F700212804D0282957D12A
:1032D000BCF1210F54D194F83D20E16AD2B2082903
:1032E00001D020292AD1282A28D12E4A2046E2625C
:1032F0005A6822F4E0625A606FF480625A611A6878
:1033000022F480621A6000232022236384F83D2087
:1033100084F83E30FFF7EBF93A053FD5F3053DD58C
:103320006FF40062236845F008055A61236C20465B
:103330002B432364BDE8F840FFF796BA212A1BD13E
:103340001849E16222630021202284F83D2084F89C
:103350003E105A6822F4E0625A606FF480625A614B
:103360001A6822F480621A605A69100648BF19610F
:103370002046FFF7B9F9CFE76FF480625A61CBE7D7
:103380006FF48061102A596145F0040501D0402A8C
:10339000C2D11A6842F400721A60BDE7002DC5D18F
:1033A000F8BD00BF0000FFFF2DE9F341054638B32B
:1033B0000368DB0710D42B689F075ED42B681907BE
:1033C00000F195802B685A0700F1C180EB69002B52
:1033D00040F02C81002029E0904C636803F00C033E
:1033E000042B07D0636803F00C03082B0AD1636831
:1033F000DE0307D523689C03DDD56B68002BDAD18B
:10340000012013E06B68B3F5803F12D1236843F4C9
:1034100080332360FEF786FE064623689803CAD4ED
:10342000FEF780FE801B6428F7D9032002B0BDE8B8
:10343000F0819BB9236823F480332360236823F44D
:1034400080232360FEF76EFE064623689903B2D5FB
:10345000FEF768FE801B6428F7D9E6E7B3F5A02FD6
:10346000236803D143F480232360CFE723F4803320
:103470002360236823F48023CBE7684C636813F050
:103480000C0F07D0636803F00C03082B10D163689E
:10349000DA030DD423689B0702D52B69012BAFD12A
:1034A00023686A6923F0F80343EAC203236085E7CF
:1034B0002A695B4B6AB101221A60FEF733FE0646A9
:1034C00023689F07ECD4FEF72DFE801B0228F7D956
:1034D000ABE71A60FEF726FE0646236898077FF5DD
:1034E0006DAFFEF71FFE801B0228F6D99DE7AA6983
:1034F0004A4E4B4BE2B10122C3F88024FEF712FE84
:103500000446736A9B070DD54FF4FA52454B1B686E
:10351000B3FBF2F3019300BF019B5A1E0192002BF3
:10352000F9D14FE7FEF7FEFD001B0228E9D97CE741
:10353000C3F88024FEF7F6FD0446736A9F077FF503
:1035400041AFFEF7EFFD001B0228F6D96DE7334CC3
:10355000E369D80024D40127E36943F08053E36191
:10356000E36903F080530093009B2F4E3368D90525
:1035700018D5EB68012B26D1236A43F0010323629F
:10358000FEF7D0FD41F288380646236A9B073FD5F7
:10359000002F3FF41BAFE36923F08053E36115E78D
:1035A0000027E2E7336843F480733360FEF7BAFD27
:1035B00080463368DA05DCD4FEF7B4FDA0EB0800E2
:1035C0006428F6D931E7ABB9236A41F2883823F091
:1035D00001032362236A23F004032362FEF7A2FDA2
:1035E0000646236A9807D3D5FEF79CFD801B40450D
:1035F000F7D91AE7052B236A03D143F004032362AA
:10360000BAE723F001032362236A23F00403B6E739
:10361000FEF788FD801B4045B7D906E70010024041
:103620000000424204000020007000402A4C626802
:1036300002F00C02082A3ED00022022B274B1A6609
:103640002CD1FEF76FFD06462368990120D42B6A22
:10365000B3F5803F05D16268A96822F400320A43BD
:103660006260696A62680B4322F474121343012298
:1036700063601A4B1A66FEF755FD054623689A01EA
:103680003FF5A8AEFEF74EFD401B0228F6D9CCE66A
:10369000FEF748FD801B0228D6D9C6E6FEF742FD9C
:1036A000054623689B017FF595AEFEF73BFD401B69
:1036B0000228F6D9B9E6012B3FF4A2AE60682B6A66
:1036C00000F480329A427FF49BAE6B6A00F4701073
:1036D000C01A18BF0120A9E60010024000004242B3
:1036E0000D4A536803F00C01082912D10B48C3F3AB
:1036F0008341DB03405C09D55368094AC3F3404367
:103700005043084AD35CB0FBF3F07047064B584374
:1037100070470348704700BF001002404669000828
:1037200000127A004469000800093D002DE9F041CB
:103730000D46044610B90120BDE8F081444A1368E3
:1037400003F007038B4228D321688E0730D4CA07C1
:1037500043D43F4A136803F00703AB4265D822689D
:103760003C4D12F0040F6CD1130706D56B6822692B
:1037700023F4605343EAC2036B60FFF7B1FF6B6849
:10378000354AC3F30313D35CD840344B1860344B31
:103790001868FEF785FC0020CEE7136823F00703C6
:1037A0000B431360136803F007038B42C3D1CBE7CD
:1037B000284B11F0040F1EBF5A6842F4E0625A60B1
:1037C000080742BF5A6842F460525A605A68A068BB
:1037D00022F0F00202435A60B9E762681D4E012AE6
:1037E00033681AD113F4003FA5D0736841F28838CA
:1037F00023F0030313437360FEF794FC07467368DA
:10380000626803F00C03B3EB820FA2D0FEF78AFCD0
:10381000C01B4045F3D903208EE7022A02D113F0E2
:10382000007FE1E713F0020FDEE7136823F00703E0
:103830002B431360136803F00703AB427FF47BAFA5
:103840008DE76B68E16823F4E0630B436B608BE703
:1038500000200240001002403469000804000020EB
:103860000C000020044B054A5B68C3F30223D35CC1
:10387000034A1068D8407047001002402C690008C5
:1038800004000020044B054A5B68C3F3C223D35CE9
:10389000034A1068D8407047001002402C690008A5
:1038A00004000020036A026A70B522F0010202627D
:1038B000446882690D6822F073022A438D6823F000
:1038C00002032B430A4DA8420BD1CD6823F0080315
:1038D0002B4324F44074D1E90556354323F0040307
:1038E0002C43446082614A684263036270BD00BF3A
:1038F000002C0140036A026A70B522F480720262F1
:103900004468C2690D6822F073022A438D6823F46B
:10391000007343EA05230B4DA8420DD1CD6823F473
:10392000006343EA052324F44054D1E905563543A6
:1039300023F4806344EA05144460C2614A68C263A8
:10394000036270BD002C0140036A026A30B522F4A4
:10395000805202624468C2690D6822F4E64242EA7B
:1039600005228D6823F4005343EA0533064DA8422F
:1039700002BF4D6924F4804444EA85144460C26166
:103980004A680264036230BD002C014090F83D306B
:10399000012B1CD102230F4A80F83D30036893426B
:1039A0000AD0B3F1804F07D0A2F59432934203D0EE
:1039B00002F58062934204D19A6802F00702062A57
:1039C00003D01A6842F001021A60002070470120FB
:1039D000704700BF002C0140704770477047704728
:1039E000704770477047036870B5DD681E6904460C
:1039F000B1070DD5AA070BD56FF002021A6101229B
:103A000002779B699B0769D0FFF7EAFF00232377C2
:103A1000710710D56A070ED56FF00402236820469F
:103A20001A61022222779B6913F4407F5CD0FFF772
:103A3000D7FF0023237733070FD528070DD56FF065
:103A40000802236820461A6104222277DB6999075D
:103A500050D0FFF7C5FF00232377F20610D5EB0601
:103A60000ED56FF01002236820461A6108222277D3
:103A7000DB6913F4407F43D0FFF7B2FF00232377C5
:103A8000F00708D5E90706D56FF001022368204644
:103A90001A61FFF7A3FF320608D52B0606D56FF093
:103AA0008002236820461A6100F039FC700608D5B0
:103AB000690606D56FF04002236820461A61FFF7B9
:103AC00091FFB20622D5AB0620D56FF02002236805
:103AD0002046BDE870401A6100F020BCFFF77FFF70
:103AE0002046FFF77EFF91E7FFF779FF2046FFF7BB
:103AF00078FF9EE7FFF773FF2046FFF772FFAAE704
:103B0000FFF76DFF2046FFF76CFFB7E770BD0000C1
:103B1000174A036890420AD0B0F1804F07D0A2F54F
:103B20009432904203D002F58062904207D14A68F5
:103B300023F070031343CA6823F4407313434A69A4
:103B400023F08003134303608B68C3620B688362B6
:103B5000074B984204BF0B69036301234361036968
:103B6000DB0742BF036923F001030361704700BF15
:103B7000002C014010B5044630B390F83D3003F0FE
:103B8000FF021BB980F83C20FEF7E2F80223206810
:103B900084F83D30211DFFF7BBFF0123002084F88E
:103BA000463084F83E3084F83F3084F8403084F862
:103BB000413084F8423084F8433084F8443084F84B
:103BC000453084F83D3010BD0120FCE710B50446B7
:103BD00030B390F83D3003F0FF021BB980F83C2071
:103BE000FFF7FAFE0223206884F83D30211DFFF71D
:103BF0008FFF0123002084F8463084F83E3084F89B
:103C00003F3084F8403084F8413084F8423084F802
:103C1000433084F8443084F8453084F83D3010BD9A
:103C20000120FCE710B5044630B390F83D3003F0B6
:103C3000FF021BB980F83C20FFF7CFFE022320686B
:103C400084F83D30211DFFF763FF0123002084F835
:103C5000463084F83E3084F83F3084F8403084F8B1
:103C6000413084F8423084F8433084F8443084F89A
:103C7000453084F83D3010BD0120FCE7036A026A3C
:103C800070B522F010020262446882690D6822F465
:103C9000E64242EA05228D6823F0200343EA051339
:103CA0000B4DA8420DD1CD6823F0800343EA0513E4
:103CB00024F44064D1E90556354323F0400344EA37
:103CC0008504446082614A688263036270BD00BFFC
:103CD000002C014038B590F83C300446012B4FD001
:103CE0000120082A84F83C003AD006D8BAB1042A48
:103CF00026D0002384F83C3038BD0C2AF9D1206846
:103D0000FFF722FEC3690A6943F40063C361C36914
:103D100023F48063C361C36943EA02232EE0206871
:103D2000FFF7C0FD83690A6943F008038361836973
:103D300023F0040383618369134383610020D8E780
:103D40002068FFF79BFF83690A6943F4006383617E
:103D5000836923F480638361836943EA0223ECE788
:103D60002068FFF7C7FDC3690A6943F00803C36110
:103D7000C36923F00403C361C3691343C361DDE76F
:103D80000220B9E770B5056A046A114E24F00104F7
:103D90000462B042846916D0B0F1804F13D0A6F50A
:103DA0009436B0420FD006F58066B0420BD044F096
:103DB000010263F3071201F00A0125F00A03194317
:103DC0008261016270BD24F003042243F1E700BF69
:103DD000002C0140F8B590F83C300546012B0C460C
:103DE00000F081800120082A85F83C005BD006D8CD
:103DF00042B3042A35D0002385F83C30F8BD0C2AA4
:103E0000F9D1D1E900272B68CE68186A196A120324
:103E100021F480511962D96920F4005021F44071D5
:103E200041EA072102F4005266F30F310243D961DF
:103E30001A62DA69A16822F44062DA61DA6942EA58
:103E400001224EE02868CB6806C9FFF79BFF836913
:103E5000A26823F00C03836183691343836100200C
:103E6000C9E72B68D1E90027186ACE68196A1201E0
:103E700021F010011962996920F0A00021F440712D
:103E800041EA072102F0A00266F30F310243996173
:103E90001A629A69A16822F440629A619A6942EAB8
:103EA00001229A61DBE72B68D1E90021186A1E6ABA
:103EB000E76826F480761E62DE69120226F00306A9
:103EC000314320F4007002F4007267F307110243DB
:103ED000D9611A62DA69A16822F00C02DA61DA6942
:103EE0000A43DA61BBE7022088E710B584680A4319
:103EF00024F47F4442EA03222243826010BD38B595
:103F000090F83C300446012B4FF0020000F08E8008
:103F1000012284F83D00206884F83C20836823F463
:103F20007F4323F0770383600B68602B4FD032D838
:103F3000402B64D016D8202B0DD00AD833F01001B6
:103F400009D0012384F83D30002384F83C3010462A
:103F500038BD302BF5D1826822F07002134343F054
:103F6000070328E0502BECD14A68CD68016A036A48
:103F700021F00A0123F00103036283690A4323F05D
:103F8000F00343EA051383610262836823F0700340
:103F900043F057030FE0B3F5805F0DD0B3F5005F3A
:103FA0000CD0702BCDD1CB68D1E90121FFF79DFF5B
:103FB000836843F0770383600022C2E7CB68D1E9CE
:103FC0000121FFF792FF836843F48043F3E7036A1C
:103FD000026A4D6822F01002C9680262826923F009
:103FE000A00322F4704243EA051342EA01328261DF
:103FF0000362836823F0700343F06703DBE74A68DA
:10400000CD68016A036A21F00A0123F0010303620B
:1040100083690A4323F0F00343EA051383610262D4
:10402000836823F0700343F04703C4E702468EE73A
:1040300000684B68826810B522F070020C681A4361
:1040400022F007022243502B82602CD010D8402B44
:1040500019D04BD8202B14D005D833F0100314BF3F
:104060000120002010BDB3F1300018BF0120F9E796
:10407000602B28D0702B39D10B69D1E90221FFF7D1
:1040800034FF0020EEE7052C30D0026A036A09698C
:1040900023F001030362836923F0F00343EA011371
:1040A00083610262EDE78A680C69016A036A21F0A4
:1040B0000A0123F00103036283690A4323F0F0033A
:1040C00043EA0413ECE7036A026A8C6822F01002E8
:1040D00009690262826923F0A00322F4704242EA75
:1040E000013243EA041382610362CAE70120B9E79F
:1040F00038B590F83C300446012B4FF002031CD039
:10410000012580F83D3080F83C50FFF791FF30B139
:104110000023284684F83D5084F83C3038BD23689D
:10412000DA6822F04002DA60DA6822F48042DA606B
:1041300084F83D5084F83C00F0E71846EEE710B5EF
:104140000124036A01F01F018C4023EA0403036287
:10415000036A8A401A43026210BD000008B529B9FB
:1041600090F83E30012B1DD001202EE0042907D10C
:1041700090F83F30012BF7D1022380F83F3014E054
:10418000082907D190F84030012BEDD1022380F8A7
:1041900040300AE090F84130012BE5D1022380F84D
:1041A000413002E0022380F83E3000680122FFF730
:1041B000C6FF0F4B984209D0B0F1804F0BD18368F6
:1041C00003F00703062B0DD1002008BD436C43F418
:1041D00000434364F3E7074B9842F0D003F5806354
:1041E0009842ECD0036843F001030360ECE700BFA2
:1041F000002C014000040040FFF7B0BF38B500229A
:10420000044600680D46FFF79AFF184B98420DD1FF
:1042100041F21113026A1A4208D140F24443026A81
:104220001A4202BF436C23F40043436441F211136A
:10423000026A1A4208D140F24443026A1A4202BF9B
:10424000036823F00103036001231DB984F83E30A5
:10425000002038BD042D02D184F83F30F8E7082D46
:104260000CBF84F8403084F84130F1E7002C014065
:10427000FFF7C4BF30B590F83C300246012B4FF039
:10428000020022D0136882F83D005C680D6824F0BB
:1042900070042C4398685C600C4CA3420AD0B3F1C4
:1042A000804F07D0A4F59434A34203D004F5806472
:1042B000A34204D1496820F08000014399600123A2
:1042C000002082F83D3082F83C0030BD002C0140D7
:1042D00090F83C300246012B1ED0CB68886823F44E
:1042E00040730343486823F480630343086823F45E
:1042F00000630343086923F480530343486923F4AC
:10430000005303430020C96923F480430B43116821
:104310004B6482F83C00704702207047704770473A
:10432000026802F10C0353E8003F23F490730C324F
:1043300042E8003102680029F2D102F1140353E887
:10434000003F23F0010302F1140C4CE80031002976
:10435000F3D1036B012B0BD102F10C0353E8003FA7
:1043600023F0100302F10C0C4CE800310029F3D1CA
:10437000202380F8423000230363704710B50446C1
:104380000368C1681A6922F440520A431A618268BC
:104390000069D9680243606921F4B05121F00C0131
:1043A00002430A43DA605A69A16922F440720A435F
:1043B0005A610E4A934215D1FFF764FA1923434319
:1043C000626820689200B3FBF2F36422B3FBF2F15F
:1043D00002FB11331B013233B3FBF2F303EB011386
:1043E000836010BDFFF73EFAE8E700BF00380140E8
:1043F000F7B505460C4617461E462A68136834EA88
:10440000030301D1002021E0701CF7D0FDF78AFEE4
:10441000C01B86421CD3DEB12B68DA685107ECD58D
:10442000802CEAD0402CE8D01A681207E5D5002489
:1044300001941A68284601925B680193019BFFF77B
:104440006FFF082301206B6485F8404003B0F0BD86
:104450000320FBE710B5044648B390F8413003F061
:10446000FF021BB980F84020FDF71EFD24232268BF
:1044700084F84130D368204623F40053D360FFF71B
:104480007DFF236800201A6922F490421A615A695C
:1044900022F02A025A61DA6842F40052DA602023DC
:1044A000606484F8413084F84230606310BD0120BC
:1044B000FCE710B50446A0B12423026880F841301F
:1044C000D36823F40053D360FDF730FD002060640F
:1044D00084F8400084F8410084F84200206360635F
:1044E00010BD0120FCE72DE9F843984690F84130D3
:1044F0000446202B0E4617463FD100293FD0002A04
:104500003DD021230025456480F84130FDF70AFEA7
:10451000A3688146B3F5805FA784E78403D123694C
:104520000BB935461E46E38C9BB253B943464A4607
:1045300040212046FFF75CFF202350B984F841302A
:104540000AE043464A4680212046FFF751FF28B142
:104550002023032084F84130BDE8F88322684EB957
:1045600035F8023BC3F308035360E18C013989B28B
:10457000E184D8E716F8013BF6E70220ECE70120DA
:10458000EAE710B50446226802F10C0353E8003F45
:1045900023F4F0730C3242E8003123680029F2D191
:1045A00003F1140252E8002F22F0010203F114007B
:1045B00040E800210029F3D1226B012A0BD103F13D
:1045C0000C0252E8002F22F0100203F10C0040E828
:1045D00000210029F3D15A6912061AD503F11402F9
:1045E00052E8002F22F0800203F1140040E800217D
:1045F0000029F3D1A06B60B14163FDF70FFE40B11C
:10460000A06BFDF774FE202803D110230320636400
:1046100010BD226853695B0616D502F1140353E8F6
:10462000003F23F0400302F1140040E8003100296C
:10463000F3D1E06B40B14163FDF7F0FD20B1E06BD9
:10464000FDF755FE2028E0D000202023E084E085FF
:10465000606484F8423084F841302063D8E77047C2
:1046600008B50023406AC385C384FCF71BFE08BD60
:10467000704790F8423007B5222B42D1816802681A
:10468000B1F5805F836A3FD1016900293FD152684B
:10469000C2F3080223F8022B8362C38D013B9BB255
:1046A000C385002B2DD10268D16821F02001D16093
:1046B000D16821F48071D160516921F0010151610B
:1046C000202280F842204363026B012A026828D12D
:1046D000036302F10C0353E8003F23F0100302F1DF
:1046E0000C0C4CE800310029F3D11368DB0605D52A
:1046F00001911368019353680193019B818DFFF72A
:10470000B7FF03B05DF804FB39B9016929B95268F4
:10471000D2B21A70836A0133BEE7526802F07F0298
:10472000F7E7FCF773FDECE7036873B51A68044616
:104730001607D9685D6908D1960668D58D0666D5D5
:1047400002B0BDE87040FFF794BF05F0010001F42E
:10475000907505435BD0D60705D5CD0542BF636C88
:1047600043F001036364530704D518B1636C43F04D
:1047700002036364960704D518B1636C43F0040325
:104780006364150707D501F0200303431EBF636C64
:1047900043F008036364636C002B32D0920604D5A7
:1047A0008B0602D52046FFF764FF26682046736912
:1047B000626C03F0400302F0080253EA020522D0C3
:1047C000FFF7AEFD73695E0618D5226802F1140387
:1047D00053E8003F23F04003143242E8003100293F
:1047E000F3D1E06B50B1744B4363FDF737FD40B13B
:1047F000E06B436B02B0BDE8704018472046FCF701
:1048000051FD02B070BDFCF74DFD6564F9E7206B0A
:10481000012840F09480D50640F19180C80640F10F
:104820008E80002201921A6801925A680192019AC0
:104830005A6952064DD5E16B0A68526892B2002A55
:10484000DFD0A08D9042DCD9E2858A69202A36D05B
:1048500003F10C0252E8002F22F4807203F10C00E5
:1048600040E800210029F3D103F1140252E8002F9F
:1048700022F0010203F1140040E800210029F3D1E5
:1048800003F1140252E8002F22F0400203F1140059
:1048900040E800210029F3D1202284F8422021633E
:1048A00003F10C0252E8002F22F0100203F10C0079
:1048B00040E800210029F3D1E06BFDF7AFFC0223B3
:1048C0006363E38DA18DC91A89B22046FFF7D0FE3C
:1048D00097E7E28DE08DA18D80B292B2002890D052
:1048E000891A89B200298CD003F10C0252E8002FFA
:1048F00022F4907203F10C0545E800200028F3D162
:1049000003F1140252E8002F22F0010203F1140512
:1049100045E800200028F3D1202284F842202063BB
:1049200003F10C0252E8002F22F0100203F10C05F3
:1049300045E800200028F3D102236363C5E716068B
:1049400028D50D0626D594F84120212A7FF459AFA9
:10495000A168226AB1F5805F17D12169A9B932F83F
:10496000021BC1F3080159602262E28C013A92B243
:10497000E284002A7FF445AFDA6822F08002DA6030
:10498000DA6842F04002DA603BE7511C216212789B
:104990005A60EAE750067FF534AF4A067FF531AF3B
:1049A000DA68204622F04002DA60202384F84130A1
:1049B000FFF755FE25E700BF614600080023C285CA
:1049C000436422238285026980F842308162036851
:1049D0001AB1DA6842F48072DA605A69002042F053
:1049E00001025A61DA6842F02002DA60704770B45E
:1049F00090F84260202E06D141B13AB10024046300
:104A000070BCFFF7DBBF022070BC70470120FBE7E2
:104A1000EFF305832BB9064B186828B901221A60F9
:104A200070476FF0050070474FF0FF30704700BFD0
:104A3000B40C002010B5EFF305845CB9084B1A687C
:104A4000012A0AD1074AD47702221A6000F0C6FE72
:104A5000204610BD6FF00500FBE74FF0FF30F8E790
:104A6000B40C002000ED00E0EFF305830BB100F083
:104A700009BF00F001BFF0B51446002287B00B4615
:104A80000592EFF30582FAB9F0B154B3A56925B1E7
:104A9000691E372902D9002017E018256268D2075D
:104AA000F9D466699EB1B2082168D4E9027C87B165
:104AB000BCF15B0F08D9246934B12EB1CDE90147AF
:104AC000009500F024FE0590059807B0F0BD802207
:104AD000EAE7BCF1000FF7D12469002CF4D10C46B1
:104AE00001E01825802205A9CDE9005192B22146A6
:104AF00000F045FE01281CBF00230593E4E737B50D
:104B00000546EFF305845CB900F0B6FE291A0029CA
:104B1000019008DD01A800F0C9FF204603B030BDB8
:104B20006FF00500FAE76FF00300F7E738B50346CA
:104B30000C4620F0010003F00102EFF3058595B962
:104B4000012B13D962B100F029FC012801D100200A
:104B500038BD002C14BF6FF001006FF00200F7E7C2
:104B600000F05FFBF1E76FF00500F1E76FF0030085
:104B7000EEE7024608B520F0010002F00103EFF372
:104B8000058179B9012A10D93BB100F030FA01282A
:104B90000CBF00206FF0020008BD1A46194600F055
:104BA00074F9F4E76FF00500F6E76FF00300F3E740
:104BB000034B0360034B0B6080231360704700BFFF
:104BC000580C0020580A0020034B0360034B0B6075
:104BD0004FF4807313607047FC090020FC0500202F
:104BE0004FF0FF3200F10803C0E902234360036184
:104BF00000230360704700230361704743689A688D
:104C00004B608A60516099600368086101330360FA
:104C1000704730B50C68631C0AD103695A684A6052
:104C200091608B605960036808610133036030BD97
:104C300000F10802134652681568A542FAD9EDE75B
:104C40000369D0E901128A6051605968814208BF46
:104C50005A60002202611A68013A1A6018687047A7
:104C600010B5044601F09EFBA46B01F0BBFBB4FA47
:104C700084F0400910BD70B51646026C0446856B81
:104C800042B906689EB9806801F0B2F8A6600135A5
:104C9000A56370BD6EB9406801F0B2FD6368226C17
:104CA0001344A2686360934224BF236863600020BA
:104CB000EDE7C06801F0A4FD226CE36851429B1A45
:104CC0002268E36093423EBFA3685B18E360022E54
:104CD000EDD10DB1013DEAE72846D8E703461A6C4D
:104CE000084610B462B1DC68996814448C4228BF4D
:104CF0001968DC6028BFD960D96810BC01F080BD9C
:104D000010BC704770B5044601F04CFB94F8455058
:104D100004F124066DB2002D01DD636AB3B9FF23EF
:104D200084F8453001F05EFB01F03CFB94F8445000
:104D300004F110066DB2002D01DD23697BB9FF235C
:104D400084F84430BDE8704001F04CBB304600F0C0
:104D50006DFF08B100F0F2FF013D6DB2DBE73046B8
:104D600000F064FF08B100F0E9FF013D6DB2E2E739
:104D700038B50D46044640B94FF0500383F311880F
:104D8000BFF36F8FBFF34F8FFEE701F00BFBD4E94A
:104D90000F314B432268D0185B1AA060626000207C
:104DA0001A44FF23A063E26084F8443084F845305D
:104DB000A5B9236973B104F1100000F037FF48B1C1
:104DC0004FF0E0234FF08052C3F8042DBFF34F8F14
:104DD000BFF36F8F01F006FB012038BD04F1100016
:104DE000FFF7FEFE04F12400FFF7FAFEF2E737B505
:104DF0000D461C4640B94FF0500383F31188BFF3B2
:104E00006F8FBFF34F8FFEE743B94FF0500383F32B
:104E10001188BFF36F8FBFF34F8FFEE74AB191B98F
:104E20004FF0500383F31188BFF36F8FBFF34F8FA1
:104E3000FEE741B14FF0500383F31188BFF36F8F4A
:104E4000BFF34F8FFEE750230193019B502B08D0F7
:104E50004FF0500383F31188BFF36F8FBFF34F8F71
:104E6000FEE70121002D08BF2246C4E90F0584F8A2
:104E7000461020462260019BFFF77AFF20469DF8EE
:104E8000183084F84C3003B030BD2DE9FF410F4697
:104E90001E460446019240B94FF0500383F3118837
:104EA000BFF36F8FBFF34F8FFEE751B9036C43B170
:104EB0004FF0500383F31188BFF36F8FBFF34F8F11
:104EC000FEE7022E0BD1E36B012B08D04FF050030D
:104ED00083F31188BFF36F8FBFF34F8FFEE700F0AE
:104EE00039FF054620B300254FF0000801F05AFABB
:104EF000A26BE36B9A4227D2324639462046FFF72F
:104F0000BAFE636A1BB104F1240000F08FFE48B1C1
:104F10004FF0E0234FF08052C3F8042DBFF34F8FC2
:104F2000BFF36F8F01F05EFA012004B0BDE8F0819D
:104F3000019B002BD8D04FF0500383F31188BFF3AF
:104F40006F8FBFF34F8FFEE7022ED5D0019B1BB9A9
:104F500001F048FA0020E8E715B902A800F0A6FE23
:104F600001F040FA00F080FC01F01CFA94F84430A3
:104F7000FF2B08BF84F8448094F84530FF2B08BF0E
:104F800084F8458001F02EFA01A902A800F09AFEEB
:104F900038BB01F007FAA26BE36B9A420ED101F025
:104FA00021FA019904F1100000F006FE2046FFF7F7
:104FB000A9FE00F007FD48B1012597E701F012FABC
:104FC0002046FFF79FFE00F0FDFCF5E74FF0E023E1
:104FD0004FF08052C3F8042DBFF34F8FBFF36F8F94
:104FE000EAE72046FFF78EFE00F0ECFCB2E738B5AA
:104FF000044640B94FF0500383F31188BFF36F8F1D
:10500000BFF34F8FFEE7856800F09EFE85420BD10F
:10501000E368013BE3600BB1012038BD1A46194635
:105020002046FFF732FFF7E70020F6E72DE9F843C7
:10503000894617461E46044640B94FF0500383F395
:105040001188BFF36F8FBFF34F8FFEE751B9036C29
:1050500043B14FF0500383F31188BFF36F8FBFF359
:105060004F8FFEE7022E0BD1E36B012B08D04FF0E0
:10507000500383F31188BFF36F8FBFF34F8FFEE7A9
:1050800001F068FAEFF311884FF0500383F31188B1
:10509000BFF36F8FBFF34F8FA26BE36B9A4201D3C5
:1050A000022E1ED194F845503246494620466DB234
:1050B000A36BFFF7E0FD6B1C0ED1636A3BB104F1FB
:1050C000240000F0B3FD10B10FB101233B600120BB
:1050D00088F31188BDE8F88301356DB284F8455036
:1050E000F5E70020F4E72DE9FF410E460446019262
:1050F00040B94FF0500383F31188BFF36F8FBFF3B4
:105100004F8FFEE751B9036C43B14FF0500383F367
:105110001188BFF36F8FBFF34F8FFEE700F01AFEC9
:10512000054618B300254FF0000801F03BF9A76BC6
:1051300047B331462046013FFFF7D0FDA7632369FF
:1051400073B104F1100000F071FD48B14FF0E0239D
:105150004FF08052C3F8042DBFF34F8FBFF36F8F12
:1051600001F040F9012004B0BDE8F081019B002B63
:10517000D9D04FF0500383F31188BFF36F8FBFF383
:105180004F8FFEE7019B1BB901F02CF90020EAE7E5
:1051900015B902A800F08AFD01F024F900F064FBC3
:1051A00001F000F994F84430FF2B08BF84F84480E4
:1051B00094F84530FF2B08BF84F8458001F012F9C0
:1051C00001A902A800F07EFD00BB2046FFF748FDC4
:1051D000B0B1019904F1240000F0EEFC2046FFF785
:1051E00091FD00F0EFFB48B94FF0E0234FF0805203
:1051F000C3F8042DBFF34F8FBFF36F8F012594E7E2
:105200002046FFF77FFD00F0DDFBF7E72046FFF7C4
:1052100079FD00F0D7FB2046FFF722FD0028EDD0F6
:10522000B4E7F0B585B00446019140B94FF05003A2
:1052300083F31188BFF36F8FBFF34F8FFEE7056CC9
:1052400045B14FF0500383F31188BFF36F8FBFF365
:105250004F8FFEE700F07EFD064620B32E46002766
:1052600001F0A0F8A36B53B3013BA363236813B908
:1052700000F04EFEA060236973B104F1100000F04D
:10528000D5FC48B14FF0E0234FF08052C3F8042D15
:10529000BFF34F8FBFF36F8F01F0A4F8012005B06B
:1052A000F0BD3546DBE7019B002BFAD04FF05003F1
:1052B00083F31188BFF36F8FBFF34F8FFEE7019B1E
:1052C00053B9002D66D04FF0500383F31188BFF31C
:1052D0006F8FBFF34F8FFEE716B902A800F0E6FC10
:1052E00001F080F800F0C0FA01F05CF894F8443066
:1052F000FF2B08BF84F8447094F84530FF2B08BF9B
:1053000084F8457001F06EF801A902A800F0DAFCFB
:1053100050BB2046FFF7A4FC00B323683BB901F063
:1053200041F8A06800F026FD054601F05BF8019900
:1053300004F1240000F040FC2046FFF7E3FC00F0FD
:1053400041FB48B94FF0E0234FF08052C3F8042DE1
:10535000BFF34F8FBFF36F8F012681E72046FFF722
:10536000D1FC00F02FFBF7E72046FFF7CBFC00F065
:1053700029FB2046FFF774FC0028EDD065B101F051
:1053800011F8616A19B1236B1968C1F13801A0687D
:1053900000F070FD01F026F8002080E770B50D46A2
:1053A000044640B94FF0500383F31188BFF36F8F69
:1053B000BFF34F8FFEE7866800F0C6FC864204D13B
:1053C0000120E3680133E36070BD29462046FFF702
:1053D00028FF0028F8D0E3680133E360F4E7000019
:1053E000002330B5064A52F8335002EBC3041DB90E
:1053F00042F83310606030BD0133082BF3D1FAE777
:10540000B80C002070B504460D46164600F0CAFFE1
:1054100094F84430FF2B04BF002384F8443094F800
:105420004530FF2B04BF002384F8453000F0DAFF3D
:10543000A36B2BB93246294604F1240000F0D6FBB9
:105440002046BDE87040FFF75DBC00002DE9F0414B
:10545000044600F0A7FF304B304E1A68304F01323F
:105460001A603568002D4BD134601B68012B1FD1A9
:10547000B84640460135FFF7B3FB382D08F1140854
:10548000F7D1DFF8A080284D4046FFF7A9FB28465A
:10549000FFF7A6FB2548FFF7A3FB2548FFF7A0FB76
:1054A0002448FFF79DFB244BC3F80080234B1D606D
:1054B0001420234A136801331360224A636411687D
:1054C000E36A8B4200FB037004F1040188BF1360A0
:1054D000FFF794FB00F086FF1B4B1B6873B133682A
:1054E000DA6AE36A9A4209D24FF0E0234FF0805221
:1054F000C3F8042DBFF34F8FBFF36F8FBDE8F0816A
:10550000114B1A68E36A002AD2D13268D26A9A42F1
:1055100098BF3460CCE700BF1C0D0020F0110020C4
:10552000900D00207C0D0020680D00204C0D002007
:10553000380D0020200D0020640D0020600D00209B
:10554000000D0020140D0020100D0020F8B50646B7
:10555000144B154D1C6828680F460430FFF770FB8C
:10556000731C07D137B1296810480431BDE8F840F1
:10557000FFF744BB2B68A4195C6007D30C4B186879
:105580002968BDE8F8400431FFF743BB094B1868B0
:1055900029680431FFF73DFB074B1A68A24288BF18
:1055A0001C60F8BD180D0020F0110020200D002017
:1055B000600D0020640D0020FC0C0020064A1368DA
:1055C0001968064B19B94FF0FF321A60704712681C
:1055D000D268D2685268F8E7640D0020FC0C002005
:1055E00010B590F8593004463BB9006B01F09EF8B5
:1055F0002046BDE8104001F099B8012BF9D0022BEC
:1056000008D04FF0500383F31188BFF36F8FBFF3BF
:105610004F8FFEE710BD000080B5134C134F144DA3
:10562000236873B9134B1B68012BF8D94FF0E023A3
:105630004FF08052C3F8042DBFF34F8FBFF36F8F2D
:10564000EDE700F0AFFEFB68DE68301DFFF7F8FA0B
:105650002B68013B2B602368013B236000F0C2FEF6
:105660003046FFF7BDFFDBE7340D0020380D00208A
:105670001C0D0020900D00202DE9F0470D46DDE9BE
:105680000994960032460746A521206B984601F002
:105690008BF8236B043E1E4426F00706A5B36B1E51
:1056A00004F133020F3513F8011F02F8011F09B18D
:1056B000AB42F8D1002384F84330089D4FF0000A34
:1056C000372D28BF3725201DE562E564C4F850A0BA
:1056D000FFF791FAC5F1380504F11800FFF78BFACE
:1056E000C4F854A04246394630462461A56164623C
:1056F00084F858A000F030FE2060B9F1000F01D00E
:10570000C9F80040BDE8F08784F83450D5E770B59B
:1057100086B0DDE90B5445B94FF0500383F311888F
:10572000BFF36F8FBFF34F8FFEE744B94FF05003C5
:1057300083F31188BFF36F8FBFF34F8FFEE75C26B3
:105740000596059E5C2E08D04FF0500383F3118818
:10575000BFF36F8FBFF34F8FFEE72563022584F8F9
:10576000595004AD01950A9D02940095059EFFF7DE
:1057700083FF2046FFF76AFE049806B070BD2DE94E
:10578000F043074685B0900088461646994600F0DB
:1057900035FF054620B94FF0FF3005B0BDE8F08376
:1057A0005C2000F02BFF044698B1002380F85930AC
:1057B0000D9B056301930C9B32464146029000937A
:1057C00038464B46FFF758FF2046FFF73FFE0120C3
:1057D000E3E7284600F0AAFFDDE7000010B500244B
:1057E00088B007AA06A905A8CDE90544FFF7E0F9A6
:1057F000059B079A0293069B1649CDE9004316487C
:105800002346FFF784FF18B300F0E0FB012814D112
:105810004FF0500383F31188BFF36F8FBFF34F8FA7
:105820004FF0FF320D4B1A600D4B18600D4B1C6092
:1058300008B0BDE8104000F035BE013008D14FF08F
:10584000500383F31188BFF36F8FBFF34F8FFEE7D1
:1058500008B010BD6668000819560008FC0C00204E
:10586000100D0020180D0020024A13680133136048
:10587000704700BFF80C0020014B1868704700BF4C
:10588000180D002008B500F065FE014B186808BD32
:10589000180D0020404B2DE9F74F1B68002B73D1EA
:1058A0003E4B1C6801341C60BCB93D4B1A68126841
:1058B00042B14FF0500383F31188BFF36F8FBFF3F2
:1058C0004F8FFEE7374A1968106818601160364A32
:1058D000136801331360FFF771FE344D4FF0000B76
:1058E0002B68334E9C42334F12D214213A68D26A4D
:1058F0004A43B258022A304A28BF4FF0010B1268BF
:10590000002A18BF4FF0010B584603B0BDE8F08FD6
:10591000DFF88C90DFF8A4A0D9F8002012681AB93B
:105920004FF0FF322A60E0E7D9F80020D268D2F8C1
:105930000C80D8F804108C4201D22960D5E708F118
:10594000040318460193FFF77BF9D8F8281019B122
:1059500008F11800FFF774F91423D8F82C00DAF8CE
:105960000010884288BFCAF8000008F1040103FB58
:105970000060FFF743F93868D8F82C10C26A9142EA
:1059800028BF4FF0010BC7E70D4A4FF0000B13681B
:1059900001331360B8E700BFF80C0020180D002099
:1059A000640D0020600D0020040D0020FC0C002080
:1059B000900D0020F0110020080D0020140D002093
:1059C0000C0D00202DE9F041304C236843B94FF015
:1059D000500383F31188BFF36F8FBFF34F8FFEE740
:1059E00000F0E0FC2368013B236024682CB1002414
:1059F00000F0F8FC2046BDE8F081254B1B68002B29
:105A0000F5D0244D244EDFF894801DE0EB68DC686F
:105A1000271D04F11800FFF713F93846FFF710F9B6
:105A20001420E36A326800FB03809342394688BF42
:105A30003360FFF7E3F81A4BE26A1B68DB6A9A42AD
:105A400002D30122174B1A602B68002BDED10CB158
:105A5000FFF7B4FD144D2C6844B10127114EFFF738
:105A600019FF00B13760013CF9D12C600D4B1B6868
:105A7000002BBCD04FF0E0234FF08052C3F8042D30
:105A8000BFF34F8FBFF36F8F0124B1E7F80C0020F5
:105A90001C0D00204C0D0020140D0020900D002046
:105AA000F0110020080D00200C0D002010B540B9A9
:105AB0004FF0500383F31188BFF36F8FBFF34F8F05
:105AC000FEE741B94FF0500383F31188BFF36F8FA6
:105AD000BFF34F8FFEE7184B1B6843B14FF05003E5
