:020000040800F2
:10000000005000206D1E0008F11D0008F31D0008BF
:10001000F51D0008F71D0008F91D0008000000008C
:1000200000000000000000000000000091650008D2
:10003000FB1D00080000000021660008FD1D0008EF
:10004000B51E0008B51E0008B51E0008B51E000844
:10005000B51E0008151E0008B51E0008B51E0008D4
:10006000B51E0008B51E0008B51E0008B51E000824
:10007000B51E0008B51E0008B51E0008B51E000814
:10008000B51E0008B51E0008B51E0008B51E000804
:10009000B51E0008B51E0008B51E0008B51E0008F4
:1000A000191E0008251E0008B51E0008291E00089C
:1000B0002D1E0008391E0008B51E0008451E000848
:1000C000511E0008B51E0008B51E0008B51E000828
:1000D000B51E0008B51E00085D1E0008B51E00080C
:1000E000B51E0008B51E0008B51E0008000000007F
:1000F0000000000000000000000000000000000000
:0C01000000000000000000005FF808F1A3
:1001100010B5054C237833B9044B13B10448AFF341
:1001200000800123237010BD140000200000000097
:100130002C6A000808B5034B1BB103490348AFF311
:10014000008008BD00000000180000202C6A000894
:1001500080F0004002E000BF81F0004142001FBF7C
:100160005FEA410392EA030F7FEA226C7FEA236C85
:100170006AD04FEA1262D2EB1363C1BFD21841407A
:1001800048404140B8BF5B42192B88BF704710F010
:10019000004F40F4000020F07F4018BF404211F0B3
:1001A000004F41F4000121F07F4118BF494292EA1B
:1001B000030F3FD0A2F1010241FA03FC10EB0C0047
:1001C000C3F1200301FA03F100F0004302D54942D4
:1001D00060EB4000B0F5000F13D3B0F1807F06D381
:1001E00040084FEA310102F10102FE2A51D2B1F179
:1001F000004F40EBC25008BF20F0010040EA03006E
:100200007047490040EB0000013A28BFB0F5000FED
:10021000EDD2B0FA80FCACF1080CB2EB0C0200FAA3
:100220000CF0AABF00EBC25052421843BCBFD040F2
:100230001843704792F0000F81F4000106BF80F46C
:1002400000000132013BB5E74FEA41037FEA226C2F
:1002500018BF7FEA236C21D092EA030F04D092F0FA
:10026000000F08BF0846704790EA010F1CBF00202E
:10027000704712F07F4F04D1400028BF40F000408B
:10028000704712F100723CBF00F50000704700F0AB
:10029000004343F0FE4040F4000070477FEA2262D2
:1002A00016BF08467FEA23630146420206BF5FEAA3
:1002B000412390EA010F40F4800070474FF00003A3
:1002C00004E000BF10F0004348BF40425FEA000C6A
:1002D00008BF704743F0964301464FF000001CE012
:1002E00050EA010208BF70474FF000030AE000BF68
:1002F00050EA010208BF704711F0004302D54042A6
:1003000061EB41015FEA010C02BF84460146002017
:1003100043F0B64308BFA3F18053A3F50003BCFA32
:100320008CF2083AA3EBC25310DB01FA02FC6344DF
:1003300000FA02FCC2F12002BCF1004F20FA02F2E6
:1003400043EB020008BF20F00100704702F12002D9
:1003500001FA02FCC2F1200250EA4C0021FA02F23A
:1003600043EB020008BF20EADC7070474FF0FF0C3F
:100370001CEAD0521EBF1CEAD15392EA0C0F93EA3A
:100380000C0F6FD01A4480EA010C400218BF5FEADC
:1003900041211ED04FF0006343EA501043EA51114F
:1003A000A0FB01310CF00040B1F5000F3EBF490049
:1003B00041EAD3715B0040EA010062F17F02FD2A4D
:1003C0001DD8B3F1004F40EBC25008BF20F0010030
:1003D000704790F0000F0CF0004C08BF49024CEA47
:1003E000502040EA51207F3AC2BFD2F1FF0340EAD9
:1003F000C250704740F400004FF00003013A5DDC4A
:1004000012F1190FDCBF00F000407047C2F100028A
:10041000410021FA02F1C2F1200200FA02FC5FEA77
:10042000310040F1000053EA4C0308BF20EADC70C1
:10043000704792F0000F00F0004C02BF400010F433
:10044000000F013AF9D040EA0C0093F0000F01F0E0
:10045000004C02BF490011F4000F013BF9D041EA02
:100460000C018FE70CEAD15392EA0C0F18BF93EA04
:100470000C0F0AD030F0004C18BF31F0004CD8D12E
:1004800080EA010000F00040704790F0000F17BFB5
:1004900090F0004F084691F0000F91F0004F14D0FB
:1004A00092EA0C0F01D142020FD193EA0C0F03D153
:1004B0004B0218BF084608D180EA010000F0004056
:1004C00040F0FE4040F40000704740F0FE4040F431
:1004D000400070474FF0FF0C1CEAD0521EBF1CEAD0
:1004E000D15392EA0C0F93EA0C0F69D0A2EB0302EE
:1004F00080EA010C49024FEA402037D04FF0805388
:1005000043EA111143EA10130CF000408B4238BF4C
:100510005B0042F17D024FF4000C8B4224BF5B1A5A
:1005200040EA0C00B3EB510F24BFA3EB510340EAA8
:100530005C00B3EB910F24BFA3EB910340EA9C0056
:10054000B3EBD10F24BFA3EBD10340EADC001B01C6
:1005500018BF5FEA1C1CE0D1FD2A3FF650AF8B426A
:1005600040EBC25008BF20F0010070470CF0004C77
:100570004CEA50207F32C2BFD2F1FF0340EAC250A2
:10058000704740F400004FF00003013A37E792F063
:10059000000F00F0004C02BF400010F4000F013AC1
:1005A000F9D040EA0C0093F0000F01F0004C02BFBC
:1005B000490011F4000F013BF9D041EA0C0195E725
:1005C0000CEAD15392EA0C0F08D142027FF47DAFBE
:1005D00093EA0C0F7FF470AF084676E793EA0C0FAE
:1005E00004D14B023FF44CAF08466EE730F0004CAC
:1005F00018BF31F0004CCAD130F000427FF45CAF3C
:1006000031F000437FF43CAF5FE700BF4FF0FF3CA9
:1006100006E000BF4FF0010C02E000BF4FF0010CFC
:100620004DF804CD4FEA40024FEA41037FEA226CC5
:1006300018BF7FEA236C11D001B052EA530C18BFE7
:1006400090EA010F58BFB2EB030088BFC81738BF4C
:100650006FEAE17018BF40F0010070477FEA226C3A
:1006600002D15FEA402C05D17FEA236CE4D15FEA36
:10067000412CE1D05DF8040B704700BF844608466A
:100680006146FFE70FB5FFF7C9FF002848BF10F12B
:10069000000F0FBD4DF808EDFFF7F4FF0CBF012070
:1006A00000205DF808FB00BF4DF808EDFFF7EAFFFA
:1006B00034BF012000205DF808FB00BF4DF808EDB5
:1006C000FFF7E0FF94BF012000205DF808FB00BFAA
:1006D0004DF808EDFFF7D2FF94BF012000205DF830
:1006E00008FB00BF4DF808EDFFF7C8FF34BF01203D
:1006F00000205DF808FB00BF42000ED2B2F1FE4FB1
:100700000BD34FF09E03B3EB126209D44FEA0023E0
:1007100043F0004323FA02F070474FF000007047A7
:1007200012F1610F01D1420202D14FF0FF30704748
:100730004FF00000704700BF38B5084C204601F06C
:1007400065FD0A21204601F0FFFB204601F0A0FCD8
:100750000546204601F060FEA8B238BDB80500206D
:100760002DE9F04164250024DFF84C80134F144E2E
:10077000FFF7E2FFFFF7A6FD4146FFF7F7FD394619
:10078000FFF7EAFC3146FFF7A5FE01462046FFF7DA
:10079000E5FC0446012004F08AFA013DE8D109494C
:1007A0002046FFF7E3FDFFF7A7FF074B80B2A3F852
:1007B0004A00BDE8F08100BFD044D83CF62858413B
:1007C00000007A440000C842CA000020034B0246E1
:1007D00058700821024802F05DB800BF30000020C8
:1007E000000C0140064AB2F88030003B18BF0123DC
:1007F0000370B2F88230003B18BF0123437070478A
:10080000CA0000200278034BA3F880204278A3F8A6
:1008100082207047CA00002001280A4605D1064BF5
:1008200006481970102102F035B8022802D1084696
:10083000FFF7CCBF704700BF30000020000C014024
:1008400010B5094CE3880BB9E18C01B101210120FD
:10085000FFF7E2FFB4F90032BDE81040002BB4BF4F
:1008600001200020FFF7B2BFCA000020264B10B5C0
:1008700033F81120541E012C98BF02704A1C33F823
:100880001220012A98BF42708A1C33F812201AB134
:10089000632A8CBF6422D2B28270CA1C33F8122041
:1008A000C2700A1D33F81220012A01D91C8804B134
:1008B00002714A1D33F8122042718A1D33F812204A
:1008C0008271CA1D33F81220C27101F1080233F897
:1008D0001220027201F1090233F81220427201F172
:1008E0000A0233F81220827201F10B0233F812204F
:1008F000C27201F10C0233F812200D31027333F889
:100900001130437310BD00BFCA0000200F4BB3F875
:1009100000220280B3F802224281B3F804228281CD
:10092000B3F80622C281B3F808220282B3F80A2281
:100930004280B3F80C224282B3F80E228280B3F8D0
:100940001022C280B3F8123203817047CA0000201F
:1009500002781F4B10B523F8112044784A1C23F865
:10096000124084788A1C23F81240C478CA1C23F8E9
:10097000124004790A1D23F8124044794A1D23F8D5
:10098000124084798A1D23F81240C479CA1D23F8C5
:100990001240047A01F1080223F81240447A01F16E
:1009A000090223F81240847A01F10A0223F8124066
:1009B000C47A01F10B0223F81240047B01F10C020E
:1009C00023F81240427B0D3123F8112010BD00BFE7
:1009D000CA00002002880F4BA3F800224288A3F827
:1009E0000A228288A3F80E22C288A3F81022028964
:1009F000A3F812224289A3F802228289A3F80422D2
:100A0000C289A3F80622028AA3F80822428AA3F820
:100A10000C227047CA00002038B50C4679B9144D35
:100A200001710A461348102101F034FF2B78012B85
:100A300004D12146104803F0F3FC2C7038BD012985
:100A400011D10A46017110210A4801F023FF084B19
:100A50001B78002BF2D10021074803F0A5FC0122EE
:100A6000034B1A70EAE70229E8D100220171EAE794
:100A700041040020000801408C04002038B50C46D9
:100A800079B9144D01710A461348022101F002FFA1
:100A90002B78012B04D10421104803F0C1FC2C70E9
:100AA00038BD012911D10A46017102210A4801F01D
:100AB000F1FE084B1B78002BF2D10421074803F00C
:100AC00073FC0122034B1A70EAE70229E8D10022E5
:100AD0000171EBE740040020000C01408C04002071
:100AE000F8B506460D460768334910461446FFF729
:100AF000E5FD68B10DB97D63F8BD042D4FF000032D
:100B000001D1BB63F8E7082D0CBFFB633B64F3E73F
:100B100020462A49FFF7E6FD00B1284C284B9F42AA
:100B2000284F3AD103F03CF87B6813F4605F18BF9C
:100B30004000FFF7C3FB2146FFF7CCFC4FF08F418D
:100B40000746FFF7CFFD044660B14FF05E513846CF
:100B5000FFF70CFCFFF7D0FD4FF6FF73984228BF5C
:100B600018460446601CFFF7A9FB01463846FFF70C
:100B7000B1FCFFF7C1FD28B14FF6FF72013890427A
:100B800028BF1046012132689462D0625161411839
:100B900000B149083DB95163AEE702F0F1FF7B684F
:100BA00013F4E06FC3E7042D01D19163A4E7082D8E
:100BB0000CBFD16311649FE70000C8430050434756
:100BC000002C014000100240F8B56423224EC57984
:100BD0000446B04214BF0226012680785D43FFF729
:100BE00071FB1E49FFF776FCA5F5C8750746284638
:100BF000FFF768FB01463846FFF7B8FB1849FFF7D7
:100C0000ADFAFFF779FD87B2A7F5C87090FBF5F054
:100C1000FFF758FB1149FFF7A9FB00210546FFF735
:100C200043FDA8B928460D49FFF75CFD90B9284659
:100C3000FFF762FDE0703846FFF740FB012E0246E9
:100C40000CBF002104210748FFF74AFFE078F8BDF8
:100C50000025ECE7014DEAE78E0000200000C842C5
:100C60000000C8438C0400206E4B2DE9F04F9842E1
:100C700014BF0223012385B001936B4B6B4C08BF5B
:100C80001C46642390F80790064603FB09F9A9F572
:100C9000C870FFF717FB0090B078FFF713FB6449AB
:100CA000FFF718FC0099FFF761FB6249FFF756FA5E
:100CB000D4F818A0206051460746FFF74DFA5E4968
:100CC000054620F00040FFF7EFFC4FF00008002839
:100CD00040F097804146284696F809B0FFF702FD9C
:100CE000002800F088805846FFF7ECFA5049FFF7DB
:100CF0003DFB0146D4F814B0A1605846FFF736FB1F
:100D00006168FFF72BFA337A054618460393FFF71D
:100D1000D9FA4749FFF72AFB014602902846FFF718
:100D2000E1FC039B08B102990D465842FFF7CAFA4D
:100D30003F49FFF71BFB29460290FFF7D3FC08B1A0
:100D4000029B1D46294658466560FFF70FFB51463A
:100D5000FFF704FA82464846FFF7B4FA8146014697
:100D60005046FFF7BFFC00B1CA4650463149FFF775
:100D70009BFC08B1DFF8BCA000212846C4F818A0ED
:100D8000FFF792FC00283ED051463846FFF7A0FC02
:100D900020B1A761C4F80480C4F80880A56925497A
:100DA0002846FFF7D9F90099FFF794FB2049FFF790
:100DB000DDFA00210446FFF777FC00282ED12046FB
:100DC0001B49FFF78FFC58BB2046FFF795FCF070DE
:100DD0002846FFF791FC80B2FFF770FA019B0246AC
:100DE000012B0CBF154816480021FFF779FEF0785B
:100DF00005B0BDE8F08F5846FFF760FA00F10040FB
:100E000074E7414676E700212846FFF76BFC00288F
:100E1000C4D051463846FFF751FCB9E70024D3E768
:100E2000034CD1E78E000020500000203400002049
:100E30000000C8420000C843BD3786358C0400203E
:100E40001C05002010B543780446012B26D1214B08
:100E500098420ED10179FFF7DFFD00224FF40071B7
:100E60001D4801F017FD2378012B0DD0022B10D067
:100E700010BD1A4B9842F6D10179FFF7FFFD002211
:100E80004FF480511648ECE72046BDE81040FFF7CC
:100E90009BBE2046BDE81040FFF7E6BE002BE7D121
:100EA000104A03731383C3700A4B012298424FF018
:100EB000000407D14FF40071074801F0EBFC0A4B26
:100EC0009C61D5E74FF48051054801F0E3FC074BE6
:100ED000F6E700BF8E0000200008014080000020DF
:100EE000000C0140CA000020500000203400002007
:100EF000074A084B0849012808BF1346074A5961A9
:100F00001A6000225A609A60DA601A619A6170472A
:100F100050000020340000206F12033C0000C84342
:100F200008B500F013F80648FFF7F0FC002105486B
:100F3000FFF79CFCBDE8084010210348FFF796BC72
:100F40006C0000208E000020800000200022F0B500
:100F50000521012014270226642504242A4BA3F826
:100F60000012A3F80212A3F80422A3F80602A3F8C1
:100F70000812A3F80A02A3F80C02A3F80E22A3F8A1
:100F80001022A3F8122218805A809A80DA801A81DF
:100F9000DF8119825E821A835A835D819A819982E8
:100FA000DC8218845A849A84DA841A85DF8519864B
:100FB0005E861A875A875D859A859986DC86A3F8AE
:100FC0004020A3F84220A3F84420A3F84620A3F829
:100FD0004820A3F84A20A3F86020A3F86220A3F8D1
:100FE0006420A3F86620A3F86820084B1A805A8072
:100FF0009A80DA801A81064B1A605A60054B1A7083
:101000005A709A70DA70F0BDCA000020C00000204B
:10101000B8000020B400002070B5002204464FF64E
:10102000FF70084E8A4200DB70BD0825A35C584063
:1010300040F30003334083EA5003013D98B2F7D1F7
:101040000132EFE701A0FFFF02681D4B10B59A4285
:1010500034D100F073FF1B4B1B4918600B78FF2B3A
:1010600028D01A4C5A1CD2B219482478022A0A7085
:10107000C45418D94378062B03D00BD8033B012B5B
:1010800018D808239A420ED30123124A1370124A29
:10109000137008E0102B0DD1062A04D98379093387
:1010A00013F0FF03EED1BDE81040012207490B48C1
:1010B00003F075BD0023074A0B70E9E710BD00BFC0
:1010C00000440040240300202903002022030020C4
:1010D0002A03002028030020A00000204404002050
:1010E00008B50268094B9A420ED10023084A094804
:1010F0001370094A137003F01CFBBDE8084001227D
:101100000649044803F04BBD08BD00BF0044004041
:10111000290300204404002028030020220300208B
:1011200010B5084C204603F004FB0023064A204675
:101130001370064A06491370BDE81040012203F0FF
:101140002EBD00BF440400202903002028030020F6
:10115000220300202DE9F0417B4DC0B02F78052FF0
:1011600023D97A4E7A4CB6F8003294F8008098452C
:1011700004D00023774A2B70137016E0B91E204666
:10118000FFF74AFF625CC3B29A4206D1274417F8C0
:10119000013CC0F30F2083420AD000236D4A2B701C
:1011A00013706D4A13680133136040B0BDE8F081DD
:1011B00063788DF80080062B8DF8013000F09F8059
:1011C00007D8032B2DD0042B6FD0012243F08003CE
:1011D00089E0102BF9D16288A38852BA5BBA92B227
:1011E0009BB202EB0308B8F5967F94F802E094F8FE
:1011F00003C027796079A1797FDCB1EB430F7CD103
:1012000006EB42060022934204F1020440F391806F
:1012100094F80580A179013241EA082126F8021BE1
:10122000F1E76288A08852BA40BA92B280B211182F
:10123000B1F5967F55DC002441008DF8021006EBD5
:1012400042025F1C1E46A04203F10203FFB2DBB262
:1012500021DC0331C9B26846FFF7DEFE8C1C0DF8B5
:1012600001003E4E0131000AC9B20DF8010030689C
:10127000E4B218B14FF0FF3103F03CFD6423224685
:101280006946374803F007FA306800283FF471AF29
:1012900003F053FD6DE732F802CB01344FEA1C2E08
:1012A0000DF806E00DF807C0CBE76288A38852BAB4
:1012B0005BBA92B29BB2D11805291ADC29480024E6
:1012C00000EB42006A4659008DF80210A34202F179
:1012D0000202BEDD30F8026B0134370A5770967097
:1012E000F4E78323022203218DF801308DF80220D8
:1012F000B1E78423F6E78623F4E79023F2E76188D9
:1013000094F802E04BBA9BB2B3F5967F94F803C011
:10131000A28827796079EED254BA26F8134040F6B5
:101320000113994205D1B2F5807F02D10023A6F8BE
:10133000103206218DF802E08DF803C08DF804709C
:101340008DF8050087E700BF29030020CA000020B0
:101350002A03002028030020A40000202C040020E1
:1013600044040020C000002070B51F4C1F4E22789E
:10137000B6F802329A4236D01D4D286818B14FF0A7
:10138000FF3103F0B7FCB6F80232013B032B22D841
:10139000DFE803F02502191D02224FF49643227064
:1013A000144C2046636003F05CF9204603F02AF9F0
:1013B00001222046104903F0F2FB286898B1BDE8ED
:1013C000704003F0BABC03224FF41643E7E704224F
:1013D0004FF46143E3E705224FF4E133DFE70122F5
:1013E0004FF41653DBE770BD00000020CA00002058
:1013F0002C040020440400202203002038B500F013
:101400009DFD094A04461368C31AB3F57A7F0AD3CF
:10141000106047F23052054D2B68C31A934202D92F
:10142000FFF77EFE2C6038BD9C00002024030020C6
:1014300008B500F083FD054B01221860044B0549F7
:1014400018600548BDE8084003F0A9BB240300204C
:101450009C0000202203002044040020F8B503F083
:10146000DBFB04460D4D0E4F0E4E2846FFF7BAF932
:101470002846FFF7E5F92846FFF7C4F93B6804F56D
:10148000FA7401333B60338000F058FD7080FFF741
:1014900067F9204603F017FCE7E700BF30000020A3
:1014A000B0000020C00000202DE9F04142F6F824F1
:1014B000FFF7BEFF194B1A4F5B681A4EB4FBF3F4EB
:1014C000A400052C38BF052403F0A6FB05463B68A5
:1014D00001333B6033785BB9DFF84C8098F800301B
:1014E00063B91435FFF78AFF284603F0ECFBEEE7FB
:1014F000FFF730FE3378002BF3D1EDE700F01EFD4F
:101500000A4B1B68C01AA042EBD90023084A88F88E
:1015100000303370136801331360E2E744040020A5
:10152000AC00002028030020290300202403002011
:10153000A4000020F8B503F06FFB04460120FFF77C
:10154000D7FC0220FFF7D4FC154F164E164D144859
:10155000FFF7DCF900213046FFF788F91021284613
:10156000FFF784F93B89012B01D1FFF7D9FCFFF785
:10157000FBFE3046FFF766FC2846FFF763FC30466B
:101580000021FFF7E5F910212846FFF7E1F91434AF
:101590003846FFF71FFA204603F095FBD7E700BF58
:1015A0006C0000208E0000208000002070B503F049
:1015B00033FB04460A4E0B4D4FF40041084801F03E
:1015C0006EF92B78012B06D14FF48041304601F0A3
:1015D00066F900232B70FA34204603F074FBEBE726
:1015E00000100140A000002010B594B0142200218A
:1015F0000CA805F0E1F9142200210DEB020005F022
:10160000DBF91022002101A805F0D6F902244FF4DD
:1016100080330122CDE91143CDE90A234FF4E013D1
:101620000AA80E92139302F04DF808B172B6FEE7C5
:101630000F23CDE905344FF480630790CDE90830DE
:10164000214605A802F000FA08B172B6FEE7039041
:1016500001A8019402F0B4FA08B172B6FEE714B022
:1016600010BD000080B59AB000F04AFCFFF7BCFF47
:101670001022002112A805F09FF9AB4B4FF46041F6
:101680009A69AA4842F010029A619A69002402F00D
:1016900010020192019A9A69022642F020029A6190
:1016A0009A69012702F020020292029A9A69202583
:1016B00042F004029A619A6902F004020392039ACA
:1016C0009A6942F008029A619B69002203F00803BC
:1016D0000493049B01F0DEF8002240F212219448AA
:1016E00001F0D8F8002241F21A01924801F0D2F834
:1016F0004FF460438D4812A9CDE91446CDE9123765
:1017000000F086FF40F21223894812A9CDE9123772
:10171000CDE9144600F07CFF854812A9CDE91254AA
:10172000149400F075FF41F21A03824812A9CDE922
:101730001446CDE9123700F06BFF4FF4C8437D48E3
:1017400012A9CDE9123414947B4E00F061FF7B485E
:101750007B4BC0E90244C0E900634FF48043C0E919
:101760000644C0E90434046201F0A2F8044608B15A
:1017700072B6FEE70146102212A805F01DF94FF6D9
:10178000FF774FF080436F4ECDE90B443046C6E9FA
:101790000034C6E90374B460B46102F029FC08B1F6
:1017A00072B6FEE74FF48058304612A9CDF8488053
:1017B00002F004FD08B172B6FEE7CDE90B000BA9FB
:1017C000304602F02FFE034608B172B6FEE74FF432
:1017D000E1325D485D49C0E90233C0E900120C22E4
:1017E0000361C0E90523C36102F00CFF044608B1A0
:1017F00072B6FEE70146102207A805F0DDF81C22AC
:1018000021460BA8CDE9054405F0D6F82A46214625
:101810004F4D12A805F0D0F84E4B2846C5E90034CC
:10182000C5E90247C5E90444AC6102F0E1FB08B137
:1018300072B6FEE7284607A9CDF81C8002F0BEFC70
:1018400008B172B6FEE7284602F0FEFB08B172B698
:10185000FEE7CDE9050005A9284602F0E3FD0246B2
:1018600008B172B6FEE76023CDE90D00CDE90B307B
:10187000CDE90F0011900BA9284602F03DFC08B1FC
:1018800072B6FEE7082232480BA902F035FC08B117
:1018900072B6FEE74FF40053CDE91200CDE9140013
:1018A0001690199012A92A48179302F0E9FD0546EF
:1018B00008B172B6FEE7264800F004FA1022294665
:1018C0000BA805F079F81C22294612A8224CCDE974
:1018D000075505F071F8214B2046C4E900354FF655
:1018E000FF73A560C4E90335A56102F081FB08B16F
:1018F00072B6FEE74FF4805320460BA90B9302F01B
:101900005DFC08B172B6FEE7204602F09DFB08B10F
:1019100072B6FEE7CDE9070007A9204602F082FD76
:101920000246E8B172B6FEE7001002400010014026
:1019300000080140000C01400054004064050020F4
:10194000A0860100D404002044040020004400408C
:101950001C050020002C01408C04002000040040E5
:1019600060231490CDE91230169012A9204602F09F
:10197000C3FB08B172B6FEE70422204612A902F0AA
:10198000BBFB054608B172B6FEE7204600F09AF9A7
:10199000354C364BCDE9125514952360A5604FF4B4
:1019A000602325732575656001252046E361256167
:1019B00000F0B4FC08B172B6FEE7CDE91205149050
:1019C00012A9204600F068FB08B172B6FEE70021BC
:1019D000274802F0E9FC10B90122264B1A700021B9
:1019E000254802F0E1FC10B90122224B1A700024B4
:1019F000224B1C60224B1C60224B1C70FFF7A6FA86
:101A00004FF480722146204804F0D6FF1F4B1C7013
:101A10001F4B1C7000F092FA1E4B012218601A49ED
:101A20001D4803F0BCF803F0CBF821461B4A1C48C4
:101A300003F0F9F81B4B214618601B4A1B4803F0C2
:101A4000F2F81B4B214618601A4A1B4803F0EBF8CA
:101A50001A4B214618601A4A1A4803F0E4F81A4B48
:101A6000186003F0BFF8FEE7B8050020002401402D
:101A70008C040020410400201C050020A800002048
:101A8000A4000020A10000202A0300202903002038
:101A9000280300202403002044040020E86A0008F2
:101AA0005D1400083C040020C46A0008A914000862
:101AB00038040020A06A000835150008340400200E
:101AC0007C6A0008AD15000830040020154B07B5EE
:101AD0009A690F2142F001029A619A696FF0010040
:101AE00002F001020092009ADA6942F08052DA6153
:101AF000DB69002203F080530193019B00F0B8FCE6
:101B000005210022084600F0B3FC052000F0E0FCAF
:101B1000054A536823F0E06343F00073536003B059
:101B20005DF804FB001002400000014010B50446BF
:101B300086B01022002102A804F03EFF2268104B5C
:101B40009A421BD103F56C439A690E4842F4007225
:101B50009A619A6902A902F400720092009A9A6945
:101B600042F004029A619B69012203F0040301938D
:101B7000019B0323CDE9022300F04AFD06B010BD0E
:101B8000002401400008014010B5044686B0102230
:101B9000002102A804F010FF2268194B9A422CD1B0
:101BA000184CC022A369184843F00803A361A36935
:101BB00002A903F008030093009B1223CDE902233E
:101BC0000323059300F024FDE369002243F400138E
:101BD000E361E369052103F400131F200193019BD6
:101BE00000F046FC1F2000F073FC2020002205219D
:101BF00000F03EFC202000F06BFC06B010BD00BFE2
:101C00000054004000100240000C01401FB5036862
:101C1000294A934224D1294B05219A69182042F47C
:101C200000629A619B69002203F400630193019BA7
:101C300000F01EFC182000F04BFC002205211920AA
:101C400000F016FC192000F043FC1B2000220521A7
:101C500000F00EFC1B2005B05DF804EB00F038BC72
:101C6000B3F1804F11D103F50433DA691C2042F03F
:101C70000102DA61DB69002203F00103029305210E
:101C8000029B00F0F5FB1C20E5E70D4A934210D1C2
:101C90000A4B1D20DA69052142F00202DA61DB6994
:101CA000002203F002030393039B00F0E1FB1D20DD
:101CB000D1E705B05DF804FB002C014000100240A4
:101CC0000004004010B5044686B01022002102A88E
:101CD00004F072FE2368144A934215D1134B9A699B
:101CE00042F004029A619B6903F004030093009B95
:101CF0004FF4A063029302230D4802A903930593B6
:101D000000F086FC06B010BD0A4A9342FAD1074B98
:101D10009A6942F004029A619B6903F004030193FB
:101D2000019BC023E6E700BF002C014000100240E9
:101D3000000801400004004010B5044686B010229F
:101D4000002102A804F038FE22681A4B9A422FD1D3
:101D500003F5E633DA69184842F40032DA61DA69E9
:101D600002A902F400320092009A9A69002442F01B
:101D700004029A619B69042203F004030193019B0E
:101D80000223CDE902230323059300F041FC08233D
:101D900009480DEB0301CDE90234049400F038FC4E
:101DA00026202246052100F063FB262000F090FB50
:101DB00006B010BD004400400008014008B50268AC
:101DC000084B9A420DD1084A0848D3690C2123F4E4
:101DD0000033D36100F0F0FCBDE80840262000F09D
:101DE00085BB08BD004400400010024000080140CF
:101DF000FEE7FEE7FEE7FEE7FEE7704708B500F006
:101E000091F804F0AFF8012803D0BDE8084004F0D1
:101E100029BC08BD70470000014802F023B800BF8C
:101E20001C050020FFF7F8BFFFF7F6BF014802F0DE
:101E300019B800BFD4040020014802F013B800BF55
:101E40008C040020014800F045BF00BF640500205D
:101E5000014801F097BB00BF64050020014802F073
:101E60003BBD00BF4404002070470000FFF7FCFFAB
:101E70000B480C490C4A002302E0D458C4500433E8
:101E8000C4188C42F9D3094A094C002301E01360BD
:101E90000432A242FBD304F097FDFFF7E3FB704747
:101EA0000000002014000020506B000814000020E7
:101EB000381F0020FEE7000038B50E4B05461A78A3
:101EC0004FF47A73B3FBF2F30B4A1068B0FBF3F0F4
:101ED00000F01EFB044658B90F2D09D802462946CA
:101EE0004FF0FF3000F0C4FA2046044B1D6038BDAF
:101EF0000120FCE708000020040000200C00002066
:101F0000074A08B51368032043F01003136000F07C
:101F10009DFA0F20FFF7D0FFFFF7D8FD002008BD86
:101F200000200240034A044B11681B780B441360E5
:101F3000704700BFE805002008000020014B18682A
:101F4000704700BFE8050020F7B5002604460D469F
:101F50000196FFF7F3FF236807469A68D10508D575
:101F60000120A36A84F8246043F02003A36203B035
:101F7000F0BD5A68D20503D4DB6A13F4700F3DD06C
:101F80003D4B02201E6801F095FE23683B4A19690B
:101F9000B6FBF0F611423A4A51D1D86839490842A5
:101FA0004DD1196911425BD1DA68374B1A420CBF27
:101FB000142329235E43019BB34223D26A1C04D01D
:101FC000002D53D1019BB3420AD3019B01330193EE
:101FD000F1E76E1C13D065B923681B6898070DD410
:101FE000A36A032043F00403A362002384F824308F
:101FF000BDE7FFF7A3FFC01BA842EDD82268136816
:102000009907E6D56FF0120322681360A36A43F4C0
:102010000073A362936803F46023B3F5602F0CD1BF
:10202000237B53B9A36A23F48073A362A36ADB04FE
:1020300003D4A36A43F00103A362002097E7196960
:10204000114203D1D968104A11420BD019690F4AC5
:10205000114209D1DB6813420CBF5423FC23A9E7CA
:102060002923A7E75423A5E7FC23A3E7FFF766FF8F
:10207000C01BA842A6D8A8E7040000202449922447
:102080009224491224499200922449004992240042
:102090000368D86C70470000002373B5019390F873
:1020A00024300446012B6CD0012380F824304D6885
:1020B0000268062D086805EB850322D81F26556B9C
:1020C000053B9E4025EA060500FA03F32B435363C4
:1020D00009288B6800EB40054FF0070129D9D66825
:1020E0001E3DA94026EA0101AB400B43D360A0F19D
:1020F0001003012B25D90020002384F8243002B0DE
:1021000070BD0C2D4FF01F0509D8166B233B9D4069
:1021100026EA050500FA03F32B431363D8E7D66AD2
:10212000413B9D4026EA050500FA03F32B43D362A9
:10213000CEE71069A94020EA0101AB400B431361CF
:10214000D9E7114B9A4216D193681B02D3D49368F6
:10215000102843F400039360CDD10C4B0C4A1B684C
:10216000B3FBF2F30A2253430193019B002BC2D02D
:10217000019B013BF8E7A36A012043F02003A3621F
:10218000BAE70220BBE700BF0024014004000020A2
:1021900040420F00002337B50193036804469A6854
:1021A000D20702D5002003B030BD9A6842F0010288
:1021B0009A60144B144A1B68B3FBF2F30193019B22
:1021C000E3B9FFF7BBFE054623689B68DB07E9D44C
:1021D000FFF7B4FE401B0228F6D923689B6813F072
:1021E0000103F1D1A26A012042F01002A262E26A68
:1021F00084F8243042F00102E262D4E7019B013B03
:10220000DCE700BF0400002040420F0010B590F84A
:1022100024300446012B54D0012380F82430FFF7EA
:10222000B9FF002849D1A36A274A23F4407323F059
:10223000010343F48073A3622368934204D12349CA
:102240004A6812F4702F2ED1A26A22F48012A26280
:102250005A68520541BFA26A22F4405242F48052A9
:10226000A262A26A12F480521CBFE26A22F0060245
:10227000E262002284F824206FF002021A609A6859
:1022800002F46022B2F5602F13D10F4A934205D1B8
:10229000A2F58062526812F4702F0AD19A6842F453
:1022A000A0029A6010BDA26A42F48012A2624A683B
:1022B000CFE79A6842F48012F3E7002384F82430D1
:1022C000F0E70220EEE700BF0028014000240140B3
:1022D00038B5036804469A68D10701D4002038BD98
:1022E0009A6822F001029A60FFF728FE05462368EB
:1022F0009B68DB07F2D5FFF721FE401B0228F6D9C9
:1023000023689B68DA07F2D5A36A012043F0100323
:10231000A362E36A43F00103E362E0E7F8B5044631
:1023200000286DD0836A23B9C36280F82430FFF798
:10233000FDFB2046FFF7CCFFA36A13F0100361D129
:1023400000285FD1A26A616822F4885222F002025A
:1023500042F00202E569A668A262227B2943B6F533
:10236000807F41EA420136D0771E7D427D412D02B9
:10237000277D012F06D182BBA269013A45EA42328C
:1023800042F400652268B6F5807F576827F46947F4
:1023900045EA0705556097681D4D05EA070545EABA
:1023A0000105956001D0012E02D12369013B1B0577
:1023B000D56A25F470052B43D3629268154B134000
:1023C000994213D10023E362A36A23F0030343F08D
:1023D0000103A362F8BD3546CAE7A26A42F02002B3
:1023E000A262E26A42F00102E262CBE7A36A23F052
:1023F000120343F01003A362E36A43F00103E362B4
:102400000120E7E7A36A43F01003A362F8E700BFE7
:10241000FDF7E1FFFE0E1FFF10B590F824300446D3
:10242000012B11D0012380F82430FFF751FF38B978
:10243000A36A23F4885323F0010343F00103A3624A
:10244000002384F8243010BD0220FCE70749030272
:10245000CA6803F4E06322F4E0621204120C13432E
:1024600043F0BF6343F40033CB60704700ED00E0FE
:10247000154B30B5DC68C4F30224C4F10703251DF5
:10248000042B28BF0423062D4FF0FF3594BF0024F2
:10249000033C05FA03F321EA0303A54022EA0502FF
:1024A000A340002843EA0203ACBF00F16040074AA2
:1024B0004FEA0313DBB2ABBF00F5614000F00F0041
:1024C00080F80033135430BD00ED00E014ED00E05F
:1024D000002807DB01234109034A00F01F00834065
:1024E00042F82130704700BF00E100E000280CDB1B
:1024F00001220649430900F01F008240203341F8C1
:102500002320BFF34F8FBFF36F8F704700E100E0D0
:102510000138B0F1807F0BD24FF0E023F021054A63
:10252000586182F823100020072298611A617047D1
:102530000120704700ED00E090F821200346022AB8
:1025400006D0042282630120002283F820207047F5
:102550000268C06B116821F00E011160116821F052
:102560000101116001211A6C01FA02F2426000209F
:1025700083F82110E8E7000008B590F82130022B1D
:1025800003D004238363012008BD03681A6822F086
:102590000E021A601A6822F001021A60174A93426A
:1025A0001FD0143293421ED0143293421DD01432E5
:1025B00093421DD0143293421DD01432934214BF63
:1025C0004FF080734FF480130D4A5360012380F85D
:1025D0002130002380F82030436B03B1984700205E
:1025E000D2E70123F0E71023EEE74FF48073EBE727
:1025F0004FF48053E8E74FF48033E5E708000240EA
:102600000000024090F821007047806B7047000086
:102610002DE9F74F00244FF00F0E2646DFF884C156
:10262000614B00F104080A6832FA06F502D103B0E2
:10263000BDE8F08F012505FA06F702EA070537EA3B
:10264000020276D14A68032A07D8013A022A00F228
:102650008380DFE802F091969C00122A00F09480BB
:1026600069D8112A00F08A80FF2D94BF8146C146A7
:102670004FEA8602D9F8007088BF203A0EFA02FAB3
:1026800027EA0A0704FA02F21743C9F80070D1F8E2
:10269000049019F0805F4CD0DCF8182026F0030776
:1026A00042F00102CCF81820DCF8182007F180472E
:1026B00002F00102019207F5803706F0030A019A41
:1026C0004FEA8A0ABA680EFA0AFB22EA0B0B374A6B
:1026D000904260D002F5806290425ED002F5806246
:1026E00090425CD002F58062904214BF0422032223
:1026F00002FA0AF242EA0B02BA609A6819F4801FE1
:1027000014BF2A43AA439A60DA6819F4001F14BF61
:102710002A43AA43DA605A6819F4003F14BF2A43D7
:10272000AA435A601A6819F4803F14BF2A43AA4387
:102730001A60013677E7DFF878904A450CD014D854
:10274000A9F580194A4507D009F570294A4503D0F3
:10275000A9F580194A4587D18A68D2B1012A4FF07C
:1027600008040CBF076147617EE7DFF848904A45DF
:10277000F2D009F58039EDE7CC6875E7CC68043410
:1027800072E7CC6808346FE7CC680C346CE700243F
:102790006AE7042468E70022AAE70122A8E70222E8
:1027A000A6E700BF001002400004014000080140FD
:1027B00000002210000031102DE9F74F4FF0040BFC
:1027C00000224FF0010A4FF00F0800EB0B030193BA
:1027D0002E4B31FA02F402D103B0BDE8F08F0AFAB1
:1027E00002F70F4049D022F0030404F1804404F5BD
:1027F000803402F0030CA5684FEA8C0C08FA0CF93F
:1028000009EA050E224DA84239D005F58065A84297
:1028100037D005F58065A84235D005F58065A8421A
:1028200014BF0425032505FA0CF575456FEA070664
:102830000FD11D6835401D605D6835405D60DD6805
:102840003540DD609D6835409D60A56825EA090535
:10285000A560FF2F94BF0746019F4FEA82043D68A1
:1028600088BF203C08FA04FC25EA0C050BFA04F4A6
:1028700025433D60C4683440C4600132A9E70025A7
:10288000D1E70125CFE70225CDE700BF00040140D5
:10289000000801400AB1016170470904FBE7C36801
:1028A00001EA030221EA030141EA024101617047A2
:1028B00070B5044608B9012070BD90F83D3003F0B2
:1028C000FF021BB980F83C20FFF75EF9242384F84F
:1028D0003D3023681A6822F001021A601A6842F437
:1028E00000421A601A6822F400421A6001F048F9A6
:1028F0003F4B65689D4294BF3E4B3F4B98428CBF17
:1029000000230123002BD6D1394E3C4BB542B0FBFE
:10291000F3F388BF4FF496762268516821F03F01A7
:1029200041EA030182BF73434FF47A76B3FBF6F3B7
:102930005160116A013321F03F010B431362D169E9
:10294000431E2B4821F44F41854221F0FF0132D82C
:102950006D00B3FBF5F340F6FC700133034242D047
:10296000C3F30B031943D1611168D4E9073021F097
:10297000C00103430B4313609168D4E9030321F4BE
:102980000341034321F0FF010B439360D168D4E975
:10299000053021F0FF0103430B43D360136800208F
:1029A00043F0010313602023206484F83D3020634A
:1029B00084F83E0080E7A06850B905EB4505B3FBFD
:1029C000F5F30133C3F30B037BB143F40043C9E7D1
:1029D00019206843B3FBF0F30133C3F30B0323B1B6
:1029E00043F44043BEE70423BCE70123BAE700BF3A
:1029F000A08601007F841E00FF083D0040420F00BA
:102A0000704770477047704770477047704790F83D
:102A10003D2008B5036DD2B283B9C36C0268012BA7
:102A2000836C05D1DBB21361036D0233036508BD0E
:102A3000C3F307231361036D0133F7E7036D012B24
:102A400003D1836C0268DBB2F4E7036D022B2FD154
:102A5000222A05D10268136843F480731360EAE701
:102A6000438D9BB263B1212A0AD1436A026813F8ED
:102A7000011B11614362438D013B9BB24385D6E745
:102A8000438D9BB2002BD2D1212AD0D1026851684C
:102A900021F4E0615160116841F40071116020225D
:102AA000036380F83D2080F83E30FFF7AFFFBEE7BC
:102AB00003685A69120644BF00221A61B7E77047DB
:102AC00070477047002337B546F2A81101932C4B8D
:102AD000406A1B6890F83D20B3FBF1F323214B4380
:102AE00001930368D2B2019941BB016C41F020010E
:102AF0000164446B0CB10021A162816B09B1002516
:102B00008D621D6825F480651D600025458504B132
:102B1000656301B14D63196821F00101196090F8F6
:102B20003D10602911D1202380F83D30002380F82A
:102B30003E300364FFF7C5FF03B030BD0199013992
:102B4000019119688905CED4D3E702F02802282A1A
:102B50000ED1196841F001011960196841F48061D2
:102B600019600023036380F83D20FFF7A9FFE3E726
:102B7000202380F83D30002380F83E30F5E700BF89
:102B80000400002010B590F83D2090F83E30044637
:102B9000102BD9B2D2B2036801D0402913D1222A16
:102BA00011D1196821F400611960596811F40061AC
:102BB00006D1602A1EBF202284F83D2084F83E10F2
:102BC0000022226307E002F028012829EDD100222B
:102BD000226384F83D105A6812F400624FD05A689C
:102BE000606B22F400625A6090F82130012B374B61
:102BF0002BD04363FFF7C0FC50B12268606B1368B1
:102C000023F001031360202384F83D30436B984781
:102C1000236C19071FBF2268536823F4E0635360D5
:102C200094F83D30226CDBB252070DD5282B0BD126
:102C3000274B2022E36200232046236384F83D20B3
:102C400084F83E30FFF7E1FE10BDA06B4363FFF751
:102C500093FC0028DCD023685A69510605D51A690F
:102C6000636A1A70636A013363622268A06B136837
:102C700023F001031360202384F83D30C6E794F865
:102C80003D10602915D1202184F83D1022645A6935
:102C9000520605D51A69636A1A70636A0133636262
:102CA00022682046136823F001031360FFF709FF31
:102CB000AEE75A69500605D51A69636A1A70636AE5
:102CC000013363622046FFF7FBFEA1E7C52A000837
:102CD0000000FFFFF0B5044603688FB05A68C66A6B
:102CE00090F83E0094F83D101028C5B2C9B202D049
:102CF000402D40F0E5829F69586910F0010F07D11F
:102D0000B6F52A0F02D0B6F12A4F51D10FB0F0BD5F
:102D100096054DD5E26AB2F52A0F0CD10122E26286
:102D200094F83E20402A11D1226D52B9626C02F013
:102D3000FE021A61EAE7E26AB2F12A4FF0D10822F4
:102D4000EDE7626C42F00102D2B2F2E72269B2F51D
:102D5000804F1AD194F83D20212A626C11D102F0E3
:102D6000FE021A61626B0AB1926A2AB9A26B002A4A
:102D7000CCD0926A002AC9D05A6842F400625A60E4
:102D8000C4E742F00102D2B2EBE7226D32B9626CC5
:102D9000D21102F0060242F0F002CAE7226D012AC7
:102DA000B4D1626CD21102F0060242F0F102C0E727
:102DB000060703D5960501D5626CE4E7860740F166
:102DC000F080960540F1ED8094F83E10E26A256BA4
:102DD00094F83D00C9B2222840F0DB80206D40B954
:102DE000402906D100905A6900929B690093009B8C
:102DF0008CE7216D89B92069B0F5404F0DD1019163
:102E00005A6901929A690192019A1A6842F4807291
:102E10001A60236D0133236578E7618D89B251B95A
:102E200002915A6902929A690292029A1A6842F4CD
:102E300000721A6019E0618D89B2012949D112F539
:102E4000803F1BD11A6822F480621A605A6812F41B
:102E500000620CD01A6822F480621A600022039289
:102E60005A6903929B690393039B0023D3E704925F
:102E70005A6904929A690492049AD7E7082A1CD0E6
:102E8000202A1AD0122D0DD1012A16D11A6822F447
:102E900080621A60002205925A6905929B69059327
:102EA000059BE2E7102AF1D8864941FA02F2D707DA
:102EB000ECD41A6842F48062EBE71A6822F480626C
:102EC0001A60002206925A6906929A690692069A38
:102ED000ACE7618D89B2022938D1102A03D87A492A
:102EE000D140CE0718D4196841F40061196000215F
:102EF000079159690791996907910799196821F410
:102F00008061196059680D05AFD5202A1BD8072AA2
:102F10000ED8012AA9D111E0196841F48061196025
:102F20000021089159690891996908910899E9E780
:102F3000A2F10801654ACA40D00796D55A6842F402
:102F400080525A6091E712F5803FE3E7196841F437
:102F5000806119605968090510D5202A16D8072AFA
:102F600006D8012A0AD15A6842F480525A6005E014
:102F7000A2F10801554ACA40D207F4D400220992AE
:102F80005A6909929B690993099B6EE712F5803F84
:102F9000E8E700220A925A690A929B690A930A9BFF
:102FA000B4E67F0740F194805E6836053FF5AEAE2B
:102FB000070600F004063ED550053CD5002E3DD155
:102FC00094F83D20258D94F83E10D2B2E06AC9B243
:102FD000C5B9212A18D1082858D0202856D010F574
:102FE000803F53D05A6822F4E0625A601123236371
:102FF000002384F83E302023204684F83D30FFF73C
:10300000FFFC83E6212A05D040297FF47FAE222AE7
:103010007FF47CAE628D92B21AB95A6822F4806253
:10302000ADE694F83E20402A16D120460FB0BDE808
:10303000F040FFF7ECBC002E3FF468AE97057FF53B
:1030400065AE212939D1E16A94F83D20212A7FF427
:103050005DAE628D92B24AB1626A12F8011B1961CB
:103060006262638D013B9BB263854FE608290DD0F8
:1030700020290BD011F5803F08D0596821F4E06178
:1030800059601123236384F83E20B4E75A68204630
:1030900022F4E0625A601A6842F400721A60002357
:1030A0002022236384F83D2094F83E2084F83E30AB
:1030B000402AA4D1FFF7AAFC28E6402D7FF426AED3
:1030C000B3E700BFEBFFFEFF1400010001010001A8
:1030D00059680E053FF51AAE450600F0040140F1AF
:1030E0008680500540F18380002940F0838094F869
:1030F0003D20222A7FF40AAEE06A628D92B2032A52
:1031000014D91A69636A1A70636A01336362638D42
:10311000013B9BB26385638D9BB2032B7FF4F6ADBD
:103120002268536823F480635360EFE5E56A022D5B
:103130003FF473AF012A3FF670AF0B9146F2A8112E
:10314000784A1268B2FBF1F202EB82020B920B9A00
:10315000013A0B920B99D1B9226C204642F0200221
:1031600022645A6822F4E0625A601A69636A1A702B
:10317000636A01336362638D013B9BB263852023E5
:1031800084F83D3084F83E10FFF79AFCBEE51A68DB
:1031900012F40072DBD1196821F48061196059685A
:1031A00021F4E06159601969636A1970636A013337
:1031B0006362638D013B9BB26385202384F83D30BD
:1031C00094F83E3084F83E20402B04D12263204600
:1031D000FFF775FC9AE5082801D0202801D10023CB
:1031E00000E0122320462363FFF70BFC8EE5002945
:1031F0003FF48CAD92057FF589ADE26A608D616A1E
:1032000080B2042809D15A6822F480625A601B698E
:103210000B70636A0133636223E7608D80B2032819
:103220000CD15868042A20F480605860EFD0022A3C
:10323000EDD01A6822F480621A60E8E7608D80B2EF
:103240000228E4D1042A33D007D8012A07D0022A61
:103250002ED0186840F4007004E0102AF9D11868E4
:1032600020F4806018601B690B70616A4B1C6362FC
:10327000638D013B9BB2638523681B694B70636A56
:10328000216801336362638D013B9BB263854B68A8
:1032900023F440734B60202384F83D3094F83E3093
:1032A000402B4FF0000384F83E3005D123638EE7B6
:1032B000186840F48060D5E7082A90D0202A8DE76E
:1032C000206C10B30025586987072DD596052BD59E
:1032D000226C02B19D6994F83D2002F02802282A50
:1032E00016D15A682F0622F480625A604FF000030C
:1032F00085F00401204654BFA289228BC1F38001CE
:1033000084F83C30FFF780FB00E59D695869DBE7F6
:1033100000220C9259690C919B6984F83C200C9313
:103320000C9BF3E404000020C60640F1B180950533
:1033300040F1AE8094F83D505A68EDB222F4E0625C
:103340005A6000220D925A690D921A6842F00102E9
:103350001A600D9A1A6822F480621A605A68100581
:1033600020D505F0F702222A4AD1A06B02685268E4
:1033700092B26285628D92B21AB1226C42F004025E
:1033800022645A6822F400625A60FFF73BF9012870
:1033900008D0A06B794B4363FFF7EEF810B1A06B38
:1033A000436B9847638D9BB213B323685A695107E7
:1033B00009D51A69636A1A70636A01336362638D9F
:1033C000013B9BB2638523685A69520609D51A6985
:1033D000636A1A70636A01336362638D013B9BB257
:1033E0006385638D9BB21BB1236C43F0040323649C
:1033F000236C13B320460FB0BDE8F040FFF7C2BB0B
:10340000606B0268526892B26285628D92B21AB1A4
:10341000226C42F0040222645A6822F400625A606C
:10342000FFF7F0F80128BDD0606B544B4363FFF702
:10343000A3F80028B6D0606BB2E72A2D06D123632B
:103440002823204684F83D30FFF7DDFA94F83D301C
:10345000282B0CD14A4B2022E36200232046236311
:1034600084F83D2084F83E30FFF7CFFA4EE4236B1A
:10347000222B02D0222D7FF449AC0023202223638B
:1034800084F83D2084F83E302046FFF7BCFA3DE446
:1034900001F0F701212900F0040535D1070627D5F1
:1034A000560525D53DBB94F83D00628DC0B292B261
:1034B000002A3FF42BAC626A12F8015B1D61626264
:1034C000628D013A92B26285628D92B2002A7FF4D7
:1034D0001DAC29287FF41AAC5A68204622F4806279
:1034E0005A602823216384F83D30FFF78BFA0DE4FE
:1034F000002D3FF40BAC95057FF508AC628D92B2C0
:10350000002A3FF403ACA7E5400627D5510525D591
:103510003DBB94F83D20618DD2B289B200293FF4C1
:10352000F5AB1969636A1970636A01336362638D6D
:10353000013B9BB26385638D9BB2002B7FF4E6ABAE
:103540002A2A7FF4E3AB2268536823F48063536034
:1035500022232363282384F83D3095E7002D3FF490
:10356000D5AB92057FF5D2AB628D92B2002A3FF4C3
:10357000CDAB1A69636A1A704BE600BFC52A000812
:103580000000FFFFF8B5036804465F695E6890F8C5
:103590003E2017F48075D2B20AD016F4807507D099
:1035A0006FF4807101255961196841F40041196077
:1035B000B80506D5F10542BF6FF4007145F002056C
:1035C0005961780536D5F10534D5608D94F83D10F4
:1035D000202AD4F830C080B2C9B25FD100285DD1B2
:1035E00001F0F700212804D0282957D1BCF1210F80
:1035F00054D194F83D20E16AD2B2082901D02029A3
:103600002AD1282A28D12E4A2046E2625A6822F47A
:10361000E0625A606FF480625A611A6822F4806234
:103620001A6000232022236384F83D2084F83E3072
:10363000FFF7EBF93A053FD5F3053DD56FF400628E
:10364000236845F008055A61236C20462B43236408
:10365000BDE8F840FFF796BA212A1BD11849E1626C
:1036600022630021202284F83D2084F83E105A680D
:1036700022F4E0625A606FF480625A611A6822F4A0
:1036800080621A605A69100648BF19612046FFF728
:10369000B9F9CFE76FF480625A61CBE76FF48061CC
:1036A000102A596145F0040501D0402AC2D11A6898
:1036B00042F400721A60BDE7002DC5D1F8BD00BF0D
:1036C0000000FFFF2DE9F341054638B30368DB072F
:1036D00010D42B689F075ED42B68190700F19580E2
:1036E0002B685A0700F1C180EB69002B40F02C8158
:1036F000002029E0904C636803F00C03042B07D0F2
:10370000636803F00C03082B0AD16368DE0307D556
:1037100023689C03DDD56B68002BDAD1012013E010
:103720006B68B3F5803F12D1236843F48033236084
:10373000FEF704FC064623689803CAD4FEF7FEFB96
:10374000801B6428F7D9032002B0BDE8F0819BB943
:10375000236823F480332360236823F480232360C9
:10376000FEF7ECFB064623689903B2D5FEF7E6FBAD
:10377000801B6428F7D9E6E7B3F5A02F236803D1AF
:1037800043F480232360CFE723F48033236023684E
:1037900023F48023CBE7684C636813F00C0F07D049
:1037A000636803F00C03082B10D16368DA030DD4AF
:1037B00023689B0702D52B69012BAFD123686A6967
:1037C00023F0F80343EAC203236085E72A695B4BD1
:1037D0006AB101221A60FEF7B1FB064623689F0713
:1037E000ECD4FEF7ABFB801B0228F7D9ABE71A60DD
:1037F000FEF7A4FB0646236898077FF56DAFFEF73A
:103800009DFB801B0228F6D99DE7AA694A4E4B4BC7
:10381000E2B10122C3F88024FEF790FB0446736AEC
:103820009B070DD54FF4FA52454B1B68B3FBF2F3DF
:10383000019300BF019B5A1E0192002BF9D14FE763
:10384000FEF77CFB001B0228E9D97CE7C3F8802443
:10385000FEF774FB0446736A9F077FF541AFFEF7DE
:103860006DFB001B0228F6D96DE7334CE369D800E5
:1038700024D40127E36943F08053E361E36903F053
:1038800080530093009B2F4E3368D90518D5EB6801
:10389000012B26D1236A43F001032362FEF74EFB7E
:1038A00041F288380646236A9B073FD5002F3FF434
:1038B0001BAFE36923F08053E36115E70027E2E7DC
:1038C000336843F480733360FEF738FB8046336817
:1038D000DA05DCD4FEF732FBA0EB08006428F6D949
:1038E00031E7ABB9236A41F2883823F00103236240
:1038F000236A23F004032362FEF720FB0646236AB3
:103900009807D3D5FEF71AFB801B4045F7D91AE775
:10391000052B236A03D143F004032362BAE723F0A3
:1039200001032362236A23F00403B6E7FEF706FBD4
:10393000801B4045B7D906E7001002400000424214
:1039400004000020007000402A4C626802F00C0263
:10395000082A3ED00022022B274B1A662CD1FEF7F4
:10396000EDFA06462368990120D42B6AB3F5803F0F
:1039700005D16268A96822F400320A436260696A6C
:1039800062680B4322F474121343012263601A4BE2
:103990001A66FEF7D3FA054623689A013FF5A8AEEA
:1039A000FEF7CCFA401B0228F6D9CCE6FEF7C6FAA1
:1039B000801B0228D6D9C6E6FEF7C0FA0546236862
:1039C0009B017FF595AEFEF7B9FA401B0228F6D9A8
:1039D000B9E6012B3FF4A2AE60682B6A00F4803296
:1039E0009A427FF49BAE6B6A00F47010C01A18BF45
:1039F0000120A9E600100240000042420D4A53682F
:103A000003F00C01082912D10B48C3F38341DB03F7
:103A1000405C09D55368094AC3F340435043084A00
:103A2000D35CB0FBF3F07047064B58437047034834
:103A3000704700BF00100240266B000800127A0099
:103A4000246B000800093D002DE9F0410D460446B5
:103A500010B90120BDE8F081444A136803F0070360
:103A60008B4228D321688E0730D4CA0743D43F4AFB
:103A7000136803F00703AB4265D822683C4D12F08F
:103A8000040F6CD1130706D56B68226923F46053C9
:103A900043EAC2036B60FFF7B1FF6B68354AC3F3BB
:103AA0000313D35CD840344B1860344B1868FEF7CE
:103AB00003FA0020CEE7136823F007030B431360DB
:103AC000136803F007038B42C3D1CBE7284B11F0F7
:103AD000040F1EBF5A6842F4E0625A60080742BFF2
:103AE0005A6842F460525A605A68A06822F0F002A4
:103AF00002435A60B9E762681D4E012A33681AD141
:103B000013F4003FA5D0736841F2883823F0030313
:103B100013437360FEF712FA07467368626803F096
:103B20000C03B3EB820FA2D0FEF708FAC01B40458E
:103B3000F3D903208EE7022A02D113F0007FE1E7D8
:103B400013F0020FDEE7136823F007032B43136023
:103B5000136803F00703AB427FF47BAF8DE76B681C
:103B6000E16823F4E0630B436B608BE700200240C5
:103B700000100240146B0008040000200C0000201C
:103B8000044B054A5B68C3F30223D35C034A106805
:103B9000D8407047001002400C6B00080400002061
:103BA000044B054A5B68C3F3C223D35C034A106825
:103BB000D8407047001002400C6B00080400002041
:103BC00003682DE9F3410546D80721D5364CE36952
:103BD000D9002BD40126E36943F08053E361E36904
:103BE00003F080530193019B304F3B68DA051FD5EA
:103BF000236A6A6813F440732ED1236A6A6823F437
:103C00004073134323621EB1E36923F08053E361E1
:103C10002A68910706D52449A8684B6823F44043D5
:103C200003434B60D30636D4002012E00026DBE7C6
:103C30003B6843F480733B60FEF780F980463B6845
:103C4000DB05D5D4FEF77AF9A0EB08006428F6D995
:103C5000032002B0BDE8F08102F440729A42CCD059
:103C60000120134A236AC2F84004002023F4407163
:103C7000DF07C2F840042162BFD5FEF75FF941F2C9
:103C800088380746236A9807B7D4FEF757F9C01B50
:103C90004045F7D9DCE7044AE968536823F4800318
:103CA0000B435360C0E700BF0010024000700040AB
:103CB00000004242022808B544D0102803D0012851
:103CC00022D0002034E0254B5A68186810F080702C
:103CD0002ED0C2F383412248D20348BF5A68405CC9
:103CE00041BF2049C2F34042895C1F4A5B684CBF18
:103CF000B2FBF1F21D4A5B0202FB00F018D4032371
:103D00004000B0FBF3F013E040F20231134A136AB3
:103D10001940B1F5817F1ED003F44073B3F5007FE5
:103D200007D149F64040536A13F0020F08BF002044
:103D300008BDB3F5407FC4D113684FF2244013F49B
:103D4000003FF3E7FFF72CFF044B5B68C3F38133BD
:103D500001335B00D5E74FF40040E9E70010024073
:103D6000386B0008366B000800127A0000093D002D
:103D7000036A026A70B522F0010202624468826935
:103D80000D6822F073022A438D6823F002032B434F
:103D90000A4DA8420BD1CD6823F008032B4324F42D
:103DA0004074D1E90556354323F004032C434460A5
:103DB00082614A684263036270BD00BF002C01400B
:103DC000036A026A70B522F4807202624468C269B2
:103DD0000D6822F073022A438D6823F4007343EACE
:103DE00005230B4DA8420DD1CD6823F4006343EAAF
:103DF000052324F44054D1E90556354323F4806368
:103E000044EA05144460C2614A68C263036270BD3B
:103E1000002C0140036A026A30B522F4805202622B
:103E20004468C2690D6822F4E64242EA05228D68C0
:103E300023F4005343EA0533064DA84202BF4D69FF
:103E400024F4804444EA85144460C2614A680264F0
:103E5000036230BD002C01407047704770477047C7
:103E600070477047036870B5DD681E690446B10786
:103E70000DD5AA070BD56FF002021A610122027755
:103E80009B699B0769D0FFF7EAFF0023237771073F
:103E900010D56A070ED56FF00402236820461A6118
:103EA000022222779B6913F4407F5CD0FFF7D7FF93
:103EB0000023237733070FD528070DD56FF00802AD
:103EC000236820461A6104222277DB69990750D0C3
:103ED000FFF7C5FF00232377F20610D5EB060ED5BA
:103EE0006FF01002236820461A6108222277DB69EE
:103EF00013F4407F43D0FFF7B2FF00232377F0078E
:103F000008D5E90706D56FF00102236820461A613B
:103F1000FFF7A3FF320608D52B0606D56FF0800207
:103F2000236820461A6100F0D2FA700608D56906A7
:103F300006D56FF04002236820461A61FFF791FF13
:103F4000B20622D5AB0620D56FF0200223682046AA
:103F5000BDE870401A6100F0B9BAFFF77FFF204654
:103F6000FFF77EFF91E7FFF779FF2046FFF778FF25
:103F70009EE7FFF773FF2046FFF772FFAAE7FFF700
:103F80006DFF2046FFF76CFFB7E770BD174A036867
:103F900090420AD0B0F1804F07D0A2F594329042FF
:103FA00003D002F58062904207D14A6823F0700383
:103FB0001343CA6823F4407313434A6923F0800310
:103FC000134303608B68C3620B688362074B98429C
:103FD00004BF0B690363012343610369DB0742BF2D
:103FE000036923F001030361704700BF002C014007
:103FF00010B5044630B390F83D3003F0FF021BB912
:1040000080F83C20FDF702FE0223206884F83D3052
:10401000211DFFF7BBFF0123002084F8463084F800
:104020003E3084F83F3084F8403084F8413084F8E2
:10403000423084F8433084F8443084F8453084F8C2
:104040003D3010BD0120FCE710B5044630B390F8B8
:104050003D3003F0FF021BB980F83C20FFF7FCFE67
:104060000223206884F83D30211DFFF78FFF0123D4
:10407000002084F8463084F83E3084F83F3084F8DD
:10408000403084F8413084F8423084F8433084F87A
:10409000443084F8453084F83D3010BD0120FCE701
:1040A000036A026A70B522F01002026244688269F3
:1040B0000D6822F4E64242EA05228D6823F02003CF
:1040C00043EA05130B4DA8420DD1CD6823F08003C0
:1040D00043EA051324F44064D1E90556354323F03F
:1040E000400344EA8504446082614A688263036253
:1040F00070BD00BF002C014038B590F83C3004463C
:10410000012B4FD00120082A84F83C003AD006D871
:10411000BAB1042A26D0002384F83C3038BD0C2ADA
:10412000F9D12068FFF776FEC3690A6943F400639A
:10413000C361C36923F48063C361C36943EA022393
:104140002EE02068FFF714FE83690A6943F0080334
:104150008361836923F0040383618369134383616B
:104160000020D8E72068FFF79BFF83690A6943F4C2
:1041700000638361836923F480638361836943EA15
:104180000223ECE72068FFF71BFEC3690A6943F0CE
:104190000803C361C36923F00403C361C369134304
:1041A000C361DDE70220B9E710B584680A4324F44F
:1041B0007F4442EA03222243826010BD38B590F862
:1041C0003C300446012B4FF0020000F08E800122AB
:1041D00084F83D00206884F83C20836823F47F4302
:1041E00023F0770383600B68602B4FD032D8402BCD
:1041F00064D016D8202B0DD00AD833F0100109D086
:10420000012384F83D30002384F83C30104638BD4B
:10421000302BF5D1826822F07002134343F007037C
:1042200028E0502BECD14A68CD68016A036A21F07E
:104230000A0123F00103036283690A4323F0F003B8
:1042400043EA051383610262836823F0700343F03D
:1042500057030FE0B3F5805F0DD0B3F5005F0CD0CE
:10426000702BCDD1CB68D1E90121FFF79DFF836889
:1042700043F0770383600022C2E7CB68D1E90121D4
:10428000FFF792FF836843F48043F3E7036A026A0F
:104290004D6822F01002C9680262826923F0A0030F
:1042A00022F4704243EA051342EA0132826103625A
:1042B000836823F0700343F06703DBE74A68CD6847
:1042C000016A036A21F00A0123F001030362836992
:1042D0000A4323F0F00343EA051383610262836813
:1042E00023F0700343F04703C4E702468EE710B59E
:1042F0000124036A01F01F018C4023EA04030362D6
:10430000036A8A401A43026210BD000008B529B949
:1043100090F83E30012B1DD001202EE0042907D15A
:1043200090F83F30012BF7D1022380F83F3014E0A2
:10433000082907D190F84030012BEDD1022380F8F5
:1043400040300AE090F84130012BE5D1022380F89B
:10435000413002E0022380F83E3000680122FFF77E
:10436000C6FF0F4B984209D0B0F1804F0BD1836844
:1043700003F00703062B0DD1002008BD436C43F466
:1043800000434364F3E7074B9842F0D003F58063A2
:104390009842ECD0036843F001030360ECE700BFF0
:1043A000002C014000040040FFF7B0BF38B50022E8
:1043B000044600680D46FFF79AFF184B98420DD14E
:1043C00041F21113026A1A4208D140F24443026AD0
:1043D0001A4202BF436C23F40043436441F21113B9
:1043E000026A1A4208D140F24443026A1A4202BFEA
:1043F000036823F00103036001231DB984F83E30F4
:10440000002038BD042D02D184F83F30F8E7082D94
:104410000CBF84F8403084F84130F1E7002C0140B3
:10442000FFF7C4BF30B590F83C300246012B4FF087
:10443000020022D0136882F83D005C680D6824F009
:1044400070042C4398685C600C4CA3420AD0B3F112
:10445000804F07D0A4F59434A34203D004F58064C0
:10446000A34204D1496820F08000014399600123F0
:10447000002082F83D3082F83C0030BD002C014025
:1044800090F83C300246012B1ED0CB68886823F49C
:1044900040730343486823F480630343086823F4AC
:1044A00000630343086923F480530343486923F4FA
:1044B000005303430020C96923F480430B43116870
:1044C0004B6482F83C007047022070477047704789
:1044D000026802F10C0353E8003F23F490730C329E
:1044E00042E8003102680029F2D102F1140353E8D6
:1044F000003F23F0010302F1140C4CE800310029C5
:10450000F3D1036B012B0BD102F10C0353E8003FF5
:1045100023F0100302F10C0C4CE800310029F3D118
:10452000202380F8423000230363704710B504460F
:104530000368C1681A6922F440520A431A6182680A
:104540000069D9680243606921F4B05121F00C017F
:1045500002430A43DA605A69A16922F440720A43AD
:104560005A610E4A934215D1FFF71AFB19234343B0
:10457000626820689200B3FBF2F36422B3FBF2F1AD
:1045800002FB11331B013233B3FBF2F303EB0113D4
:10459000836010BDFFF7F4FAE8E700BF0038014080
:1045A000F7B505460C4617461E462A68136834EAD6
:1045B000030301D1002021E0701CF7D0FDF7BEFC01
:1045C000C01B86421CD3DEB12B68DA685107ECD5DC
:1045D000802CEAD0402CE8D01A681207E5D50024D8
:1045E00001941A68284601925B680193019BFFF7CA
:1045F0006FFF082301206B6485F8404003B0F0BDD5
:104600000320FBE710B5044648B390F8413003F0AF
:10461000FF021BB980F84020FDF78EFB242322689F
:1046200084F84130D368204623F40053D360FFF769
:104630007DFF236800201A6922F490421A615A69AA
:1046400022F02A025A61DA6842F40052DA6020232A
:10465000606484F8413084F84230606310BD01200A
:10466000FCE710B50446A0B12423026880F841306D
:10467000D36823F40053D360FDF7A0FB00206064EF
:1046800084F8400084F8410084F8420020636063AD
:1046900010BD0120FCE72DE9F843984690F8413021
:1046A0000446202B0E4617463FD100293FD0002A52
:1046B0003DD021230025456480F84130FDF73EFCC4
:1046C000A3688146B3F5805FA784E78403D123699B
:1046D0000BB935461E46E38C9BB253B943464A4656
:1046E00040212046FFF75CFF202350B984F8413079
:1046F0000AE043464A4680212046FFF751FF28B191
:104700002023032084F84130BDE8F88322684EB9A5
:1047100035F8023BC3F308035360E18C013989B2D9
:10472000E184D8E716F8013BF6E70220ECE7012028
:10473000EAE710B50446226802F10C0353E8003F93
:1047400023F4F0730C3242E8003123680029F2D1DF
:1047500003F1140252E8002F22F0010203F11400C9
:1047600040E800210029F3D1226B012A0BD103F18B
:104770000C0252E8002F22F0100203F10C0040E876
:1047800000210029F3D15A6912061AD503F1140247
:1047900052E8002F22F0800203F1140040E80021CB
:1047A0000029F3D1A06B60B14163FDF7C5FE40B1B4
:1047B000A06BFDF72AFF202803D110230320636498
:1047C00010BD226853695B0616D502F1140353E845
:1047D000003F23F0400302F1140040E800310029BB
:1047E000F3D1E06B40B14163FDF7A6FE20B1E06B71
:1047F000FDF70BFF2028E0D000202023E084E08597
:10480000606484F8423084F841302063D8E7704710
:1048100008B50023406AC385C384FCF761FC08BD6A
:10482000704790F8423007B5222B42D18168026868
:10483000B1F5805F836A3FD1016900293FD1526899
:10484000C2F3080223F8022B8362C38D013B9BB2A3
:10485000C385002B2DD10268D16821F02001D160E1
:10486000D16821F48071D160516921F00101516159
:10487000202280F842204363026B012A026828D17B
:10488000036302F10C0353E8003F23F0100302F12D
:104890000C0C4CE800310029F3D11368DB0605D578
:1048A00001911368019353680193019B818DFFF778
:1048B000B7FF03B05DF804FB39B9016929B9526843
:1048C000D2B21A70836A0133BEE7526802F07F02E7
:1048D000F7E7FCF7B9FBECE7036873B51A68044621
:1048E0001607D9685D6908D1960668D58D0666D524
:1048F00002B0BDE87040FFF794BF05F0010001F47D
:10490000907505435BD0D60705D5CD0542BF636CD6
:1049100043F001036364530704D518B1636C43F09B
:1049200002036364960704D518B1636C43F0040373
:104930006364150707D501F0200303431EBF636CB2
:1049400043F008036364636C002B32D0920604D5F5
:104950008B0602D52046FFF764FF26682046736960
:10496000626C03F0400302F0080253EA020522D011
:10497000FFF7AEFD73695E0618D5226802F11403D5
:1049800053E8003F23F04003143242E8003100298D
:10499000F3D1E06B50B1744B4363FDF7EDFD40B1D3
:1049A000E06B436B02B0BDE8704018472046FCF74F
:1049B00097FB02B070BDFCF793FB6564F9E7206BD1
:1049C000012840F09480D50640F19180C80640F15E
:1049D0008E80002201921A6801925A680192019A0F
:1049E0005A6952064DD5E16B0A68526892B2002AA4
:1049F000DFD0A08D9042DCD9E2858A69202A36D0AA
:104A000003F10C0252E8002F22F4807203F10C0033
:104A100040E800210029F3D103F1140252E8002FED
:104A200022F0010203F1140040E800210029F3D133
:104A300003F1140252E8002F22F0400203F11400A7
:104A400040E800210029F3D1202284F8422021638C
:104A500003F10C0252E8002F22F0100203F10C00C7
:104A600040E800210029F3D1E06BFDF765FD02234A
:104A70006363E38DA18DC91A89B22046FFF7D0FE8A
:104A800097E7E28DE08DA18D80B292B2002890D0A0
:104A9000891A89B200298CD003F10C0252E8002F48
:104AA00022F4907203F10C0545E800200028F3D1B0
:104AB00003F1140252E8002F22F0010203F1140561
:104AC00045E800200028F3D1202284F8422020630A
:104AD00003F10C0252E8002F22F0100203F10C0542
:104AE00045E800200028F3D102236363C5E71606DA
:104AF00028D50D0626D594F84120212A7FF459AFF8
:104B0000A168226AB1F5805F17D12169A9B932F88D
:104B1000021BC1F3080159602262E28C013A92B291
:104B2000E284002A7FF445AFDA6822F08002DA607E
:104B3000DA6842F04002DA603BE7511C21621278E9
:104B40005A60EAE750067FF534AF4A067FF531AF89
:104B5000DA68204622F04002DA60202384F84130EF
:104B6000FFF755FE25E700BF114800080023C28566
:104B7000436422238285026980F84230816203689F
:104B80001AB1DA6842F48072DA605A69002042F0A1
:104B900001025A61DA6842F02002DA60704770B4AC
:104BA00090F84260202E06D141B13AB1002404634E
:104BB00070BCFFF7DBBF022070BC70470120FBE731
:104BC000EFF305832BB9064B186828B901221A6048
:104BD00070476FF0050070474FF0FF30704700BF1F
:104BE000A40C002010B5EFF305845CB9084B1A68DB
:104BF000012A0AD1074AD47702221A6000F0D2FEB5
:104C0000204610BD6FF00500FBE74FF0FF30F8E7DE
:104C1000A40C002000ED00E0EFF305830BB100F0E1
:104C200015BF00F00DBFF0B51446002287B00B464B
:104C30000592EFF30582FAB9F0B154B3A56925B135
:104C4000691E372902D9002017E018256268D207AB
:104C5000F9D466699EB1B2082168D4E9027C87B1B3
:104C6000BCF15B0F08D9246934B12EB1CDE90147FD
:104C7000009500F030FE0590059807B0F0BD802249
:104C8000EAE7BCF1000FF7D12469002CF4D10C46FF
:104C900001E01825802205A9CDE9005192B22146F4
:104CA00000F051FE01281CBF00230593E4E708B57E
:104CB000EFF3058222B908B101F026F8002008BD03
:104CC0006FF00500FBE737B50546EFF305845CB9E7
:104CD00000F0B6FE291A0029019008DD01A800F0B5
:104CE000C9FF204603B030BD6FF00500FAE76FF052
:104CF0000300F7E738B503460C4620F0010003F047
:104D00000102EFF3058595B9012B13D962B100F0CB
:104D100029FC012801D1002038BD002C14BF6FF000
:104D200001006FF00200F7E700F05FFBF1E76FF0C2
:104D30000500F1E76FF00300EEE7024608B520F04A
:104D4000010002F00103EFF3058179B9012A10D9BE
:104D50003BB100F030FA01280CBF00206FF00200D8
:104D600008BD1A46194600F074F9F4E76FF0050023
:104D7000F6E76FF00300F3E7034B0360034B0B60B0
:104D800080231360704700BF480C0020480A0020B1
:104D9000034B0360034B0B604FF480731360704749
:104DA000EC090020EC0500204FF0FF3200F1080371
:104DB000C0E90223436003610023036070470023BE
:104DC0000361704743689A684B608A6051609960DC
:104DD0000368086101330360704730B50C68631CD9
:104DE0000AD103695A684A6091608B605960036810
:104DF00008610133036030BD00F1080213465268B8
:104E00001568A542FAD9EDE70369D0E901128A6075
:104E100051605968814208BF5A60002202611A68D5
:104E2000013A1A601868704710B5044601F0C2FBD9
:104E3000A46B01F0DFFBB4FA84F0400910BD70B53B
:104E40001646026C0446856B42B906689EB98068B6
:104E500001F0D6F8A6600135A56370BD6EB9406853
:104E600001F0D6FD6368226C1344A268636093422C
:104E700024BF236863600020EDE7C06801F0C8FD2F
:104E8000226CE36851429B1A2268E36093423EBF62
:104E9000A3685B18E360022EEDD10DB1013DEAE796
:104EA0002846D8E703461A6C084610B462B1DC689D
:104EB000996814448C4228BF1968DC6028BFD96007
:104EC000D96810BC01F0A4BD10BC704770B5044691
:104ED00001F070FB94F8455004F124066DB2002DEA
:104EE00001DD636AB3B9FF2384F8453001F082FB2A
:104EF00001F060FB94F8445004F110066DB2002DEF
:104F000001DD23697BB9FF2384F84430BDE870409C
:104F100001F070BB304600F091FF08B101F016F8C7
:104F2000013D6DB2DBE7304600F088FF08B101F0CB
:104F30000DF8013D6DB2E2E738B50D46044640B9C3
:104F40004FF0500383F31188BFF36F8FBFF34F8F80
:104F5000FEE701F02FFBD4E90F314B432268D01854
:104F60005B1AA060626000201A44FF23A063E26025
:104F700084F8443084F84530A5B9236973B104F14D
:104F8000100000F05BFF48B14FF0E0234FF080527B
:104F9000C3F8042DBFF34F8FBFF36F8F01F02AFBCF
:104FA000012038BD04F11000FFF7FEFE04F12400DB
:104FB000FFF7FAFEF2E737B50D461C4640B94FF051
:104FC000500383F31188BFF36F8FBFF34F8FFEE75A
:104FD00043B94FF0500383F31188BFF36F8FBFF3D2
:104FE0004F8FFEE74AB191B94FF0500383F3118818
:104FF000BFF36F8FBFF34F8FFEE741B14FF0500308
:1050000083F31188BFF36F8FBFF34F8FFEE75023F9
:105010000193019B502B08D04FF0500383F311886C
:10502000BFF36F8FBFF34F8FFEE70121002D08BF45
:105030002246C4E90F0584F8461020462260019BF1
:10504000FFF77AFF20469DF8183084F84C3003B003
:1050500030BD2DE9FF410F461E460446019240B97E
:105060004FF0500383F31188BFF36F8FBFF34F8F5F
:10507000FEE751B9036C43B14FF0500383F311883D
:10508000BFF36F8FBFF34F8FFEE7022E0BD1E36BA1
:10509000012B08D04FF0500383F31188BFF36F8FBB
:1050A000BFF34F8FFEE700F05DFF054620B30025FC
:1050B0004FF0000801F07EFAA26BE36B9A4227D210
:1050C000324639462046FFF7BAFE636A1BB104F147
:1050D000240000F0B3FE48B14FF0E0234FF08052BF
:1050E000C3F8042DBFF34F8FBFF36F8F01F082FA27
:1050F000012004B0BDE8F081019B002BD8D04FF017
:10510000500383F31188BFF36F8FBFF34F8FFEE718
:10511000022ED5D0019B1BB901F06CFA0020E8E704
:1051200015B902A800F0CAFE01F064FA00F080FC94
:1051300001F040FA94F84430FF2B08BF84F8448013
:1051400094F84530FF2B08BF84F8458001F052FAEF
:1051500001A902A800F0BEFE38BB01F02BFAA26B39
:10516000E36B9A420ED101F045FA019904F1100067
:1051700000F02AFE2046FFF7A9FE00F007FD48B127
:10518000012597E701F036FA2046FFF79FFE00F071
:10519000FDFCF5E74FF0E0234FF08052C3F8042DFB
:1051A000BFF34F8FBFF36F8FEAE72046FFF78EFE06
:1051B00000F0ECFCB2E738B5044640B94FF05003BC
:1051C00083F31188BFF36F8FBFF34F8FFEE78568BE
:1051D00000F0C2FE85420BD1E368013BE3600BB1F6
:1051E000012038BD1A4619462046FFF732FFF7E77F
:1051F0000020F6E72DE9F843894617461E46044687
:1052000040B94FF0500383F31188BFF36F8FBFF3A2
:105210004F8FFEE751B9036C43B14FF0500383F356
:105220001188BFF36F8FBFF34F8FFEE7022E0BD1B4
:10523000E36B012B08D04FF0500383F31188BFF3C9
:105240006F8FBFF34F8FFEE701F08CFAEFF31188F9
:105250004FF0500383F31188BFF36F8FBFF34F8F6D
:10526000A26BE36B9A4201D3022E1ED194F84550F3
:105270003246494620466DB2A36BFFF7E0FD6B1C3A
:105280000ED1636A3BB104F1240000F0D7FD10B1E8
:105290000FB101233B60012088F31188BDE8F8833A
:1052A00001356DB284F84550F5E70020F4E72DE9AB
:1052B000FF410E460446019240B94FF0500383F37C
:1052C0001188BFF36F8FBFF34F8FFEE751B9036CA7
:1052D00043B14FF0500383F31188BFF36F8FBFF3D7
:1052E0004F8FFEE700F03EFE054618B300254FF055
:1052F000000801F05FF9A76B47B331462046013F34
:10530000FFF7D0FDA763236973B104F1100000F02B
:1053100095FD48B14FF0E0234FF08052C3F8042DC3
:10532000BFF34F8FBFF36F8F01F064F9012004B01A
:10533000BDE8F081019B002BD9D04FF0500383F3DF
:105340001188BFF36F8FBFF34F8FFEE7019B1BB92F
:1053500001F050F90020EAE715B902A800F0AEFD0F
:1053600001F048F900F064FB01F024F994F84430AE
:10537000FF2B08BF84F8448094F84530FF2B08BF0A
:1053800084F8458001F036F901A902A800F0A2FDD9
:1053900000BB2046FFF748FDB0B1019904F124009D
:1053A00000F012FD2046FFF791FD00F0EFFB48B939
:1053B0004FF0E0234FF08052C3F8042DBFF34F8F1E
:1053C000BFF36F8F012594E72046FFF77FFD00F0C4
:1053D000DDFBF7E72046FFF779FD00F0D7FB20461D
:1053E000FFF722FD0028EDD0B4E7F0B585B0044604
:1053F000019140B94FF0500383F31188BFF36F8FD1
:10540000BFF34F8FFEE7056C45B14FF0500383F3B8
:105410001188BFF36F8FBFF34F8FFEE700F0A2FD3F
:10542000064620B32E46002701F0C4F8A36B53B301
:10543000013BA363236813B900F072FEA0602369E7
:1054400073B104F1100000F0F9FC48B14FF0E02313
:105450004FF08052C3F8042DBFF34F8FBFF36F8F0F
:1054600001F0C8F8012005B0F0BD3546DBE7019B2F
:10547000002BFAD04FF0500383F31188BFF36F8FE6
:10548000BFF34F8FFEE7019B53B9002D66D04FF05D
:10549000500383F31188BFF36F8FBFF34F8FFEE785
:1054A00016B902A800F00AFD01F0A4F800F0C0FA55
:1054B00001F080F894F84430FF2B08BF84F8447062
:1054C00094F84530FF2B08BF84F8457001F092F83E
:1054D00001A902A800F0FEFC50BB2046FFF7A4FC87
:1054E00000B323683BB901F065F8A06800F04AFDFD
:1054F000054601F07FF8019904F1240000F064FCF6
:105500002046FFF7E3FC00F041FB48B94FF0E023F1
:105510004FF08052C3F8042DBFF34F8FBFF36F8F4E
:10552000012681E72046FFF7D1FC00F02FFBF7E7CB
:105530002046FFF7CBFC00F029FB2046FFF774FC68
:105540000028EDD065B101F035F8616A19B1236B1F
:105550001968C1F13801A06800F094FD01F04AF823
:10556000002080E770B50D46044640B94FF0500367
:1055700083F31188BFF36F8FBFF34F8FFEE7866809
:1055800000F0EAFC864204D10120E3680133E360C5
:1055900070BD29462046FFF728FF0028F8D0E368B1
:1055A0000133E360F4E70000002330B5064A52F807
:1055B000335002EBC3041DB942F83310606030BDB4
:1055C0000133082BF3D1FAE7A80C002070B504468C
:1055D0000D46164600F0EEFF94F84430FF2B04BF52
:1055E000002384F8443094F84530FF2B04BF002397
:1055F00084F8453000F0FEFFA36B2BB932462946F4
:1056000004F1240000F0FAFB2046BDE87040FFF7EB
:105610005DBC00002DE9F041044600F0CBFF304BAB
:10562000304E1A68304F01321A603568002D4BD168
:1056300034601B68012B1FD1B84640460135FFF787
:10564000B3FB382D08F11408F7D1DFF8A080284DFE
:105650004046FFF7A9FB2846FFF7A6FB2548FFF7C2
:10566000A3FB2548FFF7A0FB2448FFF79DFB244B35
:10567000C3F80080234B1D601420234A13680133B4
:105680001360224A63641168E36A8B4200FB037073
:1056900004F1040188BF1360FFF794FB00F0AAFF38
:1056A0001B4B1B6873B13368DA6AE36A9A4209D20A
:1056B0004FF0E0234FF08052C3F8042DBFF34F8F1B
:1056C000BFF36F8FBDE8F081114B1A68E36A002ABF
:1056D000D2D13268D26A9A4298BF3460CCE700BF18
:1056E0000C0D0020E0110020800D00206C0D00202A
:1056F000580D00203C0D0020280D0020100D00202A
:10570000540D0020500D0020F00C0020040D00204E
:10571000000D0020F8B50646144B154D1C6828688E
:105720000F460430FFF770FB731C07D137B12968AF
:1057300010480431BDE8F840FFF744BB2B68A419BA
:105740005C6007D30C4B18682968BDE8F840043149
:10575000FFF743BB094B186829680431FFF73DFB8D
:10576000074B1A68A24288BF1C60F8BD080D0020D4
:10577000E0110020100D0020500D0020540D0020DD
:10578000EC0C0020064A13681968064B19B94FF053
:10579000FF321A6070471268D268D2685268F8E720
:1057A000540D0020EC0C002010B590F85930044640
:1057B0003BB9006B01F0C2F82046BDE8104001F093
:1057C000BDB8012BF9D0022B08D04FF0500383F362
:1057D0001188BFF36F8FBFF34F8FFEE710BD00003E
:1057E00080B5134C134F144D236873B9134B1B68CA
:1057F000012BF8D94FF0E0234FF08052C3F8042D6D
:10580000BFF34F8FBFF36F8FEDE700F0D3FEFB6860
:10581000DE68301DFFF7F8FA2B68013B2B60236828
:10582000013B236000F0E6FE3046FFF7BDFFDBE7FB
:10583000240D0020280D00200C0D0020800D0020DC
:105840002DE9F0470D46DDE90994960032460746FA
:10585000A521206B984601F0AFF8236B043E1E444F
:1058600026F00706A5B36B1E04F133020F3513F8BB
:10587000011F02F8011F09B1AB42F8D1002384F8DF
:105880004330089D4FF0000A372D28BF3725201DD3
:10589000E562E564C4F850A0FFF791FAC5F1380558
:1058A00004F11800FFF78BFAC4F854A042463946B9
:1058B00030462461A561646284F858A000F054FE6B
:1058C0002060B9F1000F01D0C9F80040BDE8F087B1
:1058D00084F83450D5E770B586B0DDE90B5445B98E
:1058E0004FF0500383F31188BFF36F8FBFF34F8FD7
:1058F000FEE744B94FF0500383F31188BFF36F8F75
:10590000BFF34F8FFEE75C260596059E5C2E08D000
:105910004FF0500383F31188BFF36F8FBFF34F8FA6
:10592000FEE72563022584F8595004AD01950A9DD0
:1059300002940095059EFFF783FF2046FFF76AFE5D
:10594000049806B070BD2DE9F043074685B090007D
:1059500088461646994600F059FF054620B94FF093
:10596000FF3005B0BDE8F0835C2000F04FFF044637
:1059700098B1002380F859300D9B056301930C9B6F
:10598000324641460290009338464B46FFF758FF97
:105990002046FFF73FFE0120E3E7284600F0CEFF58
:1059A000DDE7000010B5002488B007AA06A905A805
:1059B000CDE90544FFF7E0F9059B079A0293069BA2
:1059C0001649CDE9004316482346FFF784FF18B374
:1059D00000F004FC012814D14FF0500383F3118828
:1059E000BFF36F8FBFF34F8F4FF0FF320D4B1A6035
:1059F0000D4B18600D4B1C6008B0BDE8104000F066
:105A000059BE013008D14FF0500383F31188BFF322
:105A10006F8FBFF34F8FFEE708B010BD6A6A0008B2
:105A2000E1570008EC0C0020000D0020080D0020BC
:105A3000024A136801331360704700BFE80C00206E
:105A4000014B1868704700BF080D002008B500F032
:105A500089FE014B186808BD080D0020404B2DE958
:105A6000F74F1B68002B73D13E4B1C6801341C6040
:105A7000BCB93D4B1A68126842B14FF0500383F332
:105A80001188BFF36F8FBFF34F8FFEE7374A196856
:105A9000106818601160364A136801331360FFF70D
:105AA00071FE344D4FF0000B2B68334E9C42334F48
:105AB00012D214213A68D26A4A43B258022A304AB2
:105AC00028BF4FF0010B1268002A18BF4FF0010BDE
:105AD000584603B0BDE8F08FDFF88C90DFF8A4A043
