:020000040800F2
:1000000000500020911A0008151A0008171A00085D
:10001000191A00081B1A00081D1A00080000000029
:10002000000000000000000000000000A15C0008CB
:100030001F1A000800000000315D0008211A0008A6
:10004000D91A0008D91A0008D91A0008D91A0008C4
:10005000D91A0008391A0008D91A0008D91A000854
:10006000D91A0008D91A0008D91A0008D91A0008A4
:10007000D91A0008D91A0008D91A0008D91A000894
:10008000D91A0008D91A0008D91A0008D91A000884
:10009000D91A0008D91A0008D91A0008D91A000874
:1000A0003D1A0008491A0008D91A00084D1A00081C
:1000B000511A00085D1A0008D91A0008691A0008C8
:1000C000751A0008D91A0008D91A0008D91A0008A8
:1000D000D91A0008D91A0008811A0008D91A00088C
:1000E000D91A0008D91A0008D91A0008000000001F
:1000F0000000000000000000000000000000000000
:0C01000000000000000000005FF808F1A3
:1001100010B5054C237833B9044B13B10448AFF341
:1001200000800123237010BD140000200000000097
:100130003C61000808B5034B1BB103490348AFF30A
:10014000008008BD00000000180000203C6100088D
:1001500080F0004002E000BF81F0004142001FBF7C
:100160005FEA410392EA030F7FEA226C7FEA236C85
:100170006AD04FEA1262D2EB1363C1BFD21841407A
:1001800048404140B8BF5B42192B88BF704710F010
:10019000004F40F4000020F07F4018BF404211F0B3
:1001A000004F41F4000121F07F4118BF494292EA1B
:1001B000030F3FD0A2F1010241FA03FC10EB0C0047
:1001C000C3F1200301FA03F100F0004302D54942D4
:1001D00060EB4000B0F5000F13D3B0F1807F06D381
:1001E00040084FEA310102F10102FE2A51D2B1F179
:1001F000004F40EBC25008BF20F0010040EA03006E
:100200007047490040EB0000013A28BFB0F5000FED
:10021000EDD2B0FA80FCACF1080CB2EB0C0200FAA3
:100220000CF0AABF00EBC25052421843BCBFD040F2
:100230001843704792F0000F81F4000106BF80F46C
:1002400000000132013BB5E74FEA41037FEA226C2F
:1002500018BF7FEA236C21D092EA030F04D092F0FA
:10026000000F08BF0846704790EA010F1CBF00202E
:10027000704712F07F4F04D1400028BF40F000408B
:10028000704712F100723CBF00F50000704700F0AB
:10029000004343F0FE4040F4000070477FEA2262D2
:1002A00016BF08467FEA23630146420206BF5FEAA3
:1002B000412390EA010F40F4800070474FF00003A3
:1002C00004E000BF10F0004348BF40425FEA000C6A
:1002D00008BF704743F0964301464FF000001CE012
:1002E00050EA010208BF70474FF000030AE000BF68
:1002F00050EA010208BF704711F0004302D54042A6
:1003000061EB41015FEA010C02BF84460146002017
:1003100043F0B64308BFA3F18053A3F50003BCFA32
:100320008CF2083AA3EBC25310DB01FA02FC6344DF
:1003300000FA02FCC2F12002BCF1004F20FA02F2E6
:1003400043EB020008BF20F00100704702F12002D9
:1003500001FA02FCC2F1200250EA4C0021FA02F23A
:1003600043EB020008BF20EADC7070474FF0FF0C3F
:100370001CEAD0521EBF1CEAD15392EA0C0F93EA3A
:100380000C0F6FD01A4480EA010C400218BF5FEADC
:1003900041211ED04FF0006343EA501043EA51114F
:1003A000A0FB01310CF00040B1F5000F3EBF490049
:1003B00041EAD3715B0040EA010062F17F02FD2A4D
:1003C0001DD8B3F1004F40EBC25008BF20F0010030
:1003D000704790F0000F0CF0004C08BF49024CEA47
:1003E000502040EA51207F3AC2BFD2F1FF0340EAD9
:1003F000C250704740F400004FF00003013A5DDC4A
:1004000012F1190FDCBF00F000407047C2F100028A
:10041000410021FA02F1C2F1200200FA02FC5FEA77
:10042000310040F1000053EA4C0308BF20EADC70C1
:10043000704792F0000F00F0004C02BF400010F433
:10044000000F013AF9D040EA0C0093F0000F01F0E0
:10045000004C02BF490011F4000F013BF9D041EA02
:100460000C018FE70CEAD15392EA0C0F18BF93EA04
:100470000C0F0AD030F0004C18BF31F0004CD8D12E
:1004800080EA010000F00040704790F0000F17BFB5
:1004900090F0004F084691F0000F91F0004F14D0FB
:1004A00092EA0C0F01D142020FD193EA0C0F03D153
:1004B0004B0218BF084608D180EA010000F0004056
:1004C00040F0FE4040F40000704740F0FE4040F431
:1004D000400070474FF0FF0C1CEAD0521EBF1CEAD0
:1004E000D15392EA0C0F93EA0C0F69D0A2EB0302EE
:1004F00080EA010C49024FEA402037D04FF0805388
:1005000043EA111143EA10130CF000408B4238BF4C
:100510005B0042F17D024FF4000C8B4224BF5B1A5A
:1005200040EA0C00B3EB510F24BFA3EB510340EAA8
:100530005C00B3EB910F24BFA3EB910340EA9C0056
:10054000B3EBD10F24BFA3EBD10340EADC001B01C6
:1005500018BF5FEA1C1CE0D1FD2A3FF650AF8B426A
:1005600040EBC25008BF20F0010070470CF0004C77
:100570004CEA50207F32C2BFD2F1FF0340EAC250A2
:10058000704740F400004FF00003013A37E792F063
:10059000000F00F0004C02BF400010F4000F013AC1
:1005A000F9D040EA0C0093F0000F01F0004C02BFBC
:1005B000490011F4000F013BF9D041EA0C0195E725
:1005C0000CEAD15392EA0C0F08D142027FF47DAFBE
:1005D00093EA0C0F7FF470AF084676E793EA0C0FAE
:1005E00004D14B023FF44CAF08466EE730F0004CAC
:1005F00018BF31F0004CCAD130F000427FF45CAF3C
:1006000031F000437FF43CAF5FE700BF4FF0FF3CA9
:1006100006E000BF4FF0010C02E000BF4FF0010CFC
:100620004DF804CD4FEA40024FEA41037FEA226CC5
:1006300018BF7FEA236C11D001B052EA530C18BFE7
:1006400090EA010F58BFB2EB030088BFC81738BF4C
:100650006FEAE17018BF40F0010070477FEA226C3A
:1006600002D15FEA402C05D17FEA236CE4D15FEA36
:10067000412CE1D05DF8040B704700BF844608466A
:100680006146FFE70FB5FFF7C9FF002848BF10F12B
:10069000000F0FBD4DF808EDFFF7F4FF0CBF012070
:1006A00000205DF808FB00BF4DF808EDFFF7EAFFFA
:1006B00034BF012000205DF808FB00BF4DF808EDB5
:1006C000FFF7E0FF94BF012000205DF808FB00BFAA
:1006D0004DF808EDFFF7D2FF94BF012000205DF830
:1006E00008FB00BF4DF808EDFFF7C8FF34BF01203D
:1006F00000205DF808FB00BF42000ED2B2F1FE4FB1
:100700000BD34FF09E03B3EB126209D44FEA0023E0
:1007100043F0004323FA02F070474FF000007047A7
:1007200012F1610F01D1420202D14FF0FF30704748
:100730004FF00000704700BF38B5084C204601F06C
:1007400077FB0A21204601F011FA204601F0B2FAA7
:100750000546204601F072FCA8B238BD9405002081
:100760002DE9F04164250024DFF84C80134F144E2E
:10077000FFF7E2FFFFF7A6FD4146FFF7F7FD394619
:10078000FFF7EAFC3146FFF7A5FE01462046FFF7DA
:10079000E5FC0446012004F059F8013DE8D109497F
:1007A0002046FFF7E3FDFFF7A7FF074B80B2A3F852
:1007B0004A00BDE8F08100BFD044D83CF62858413B
:1007C00000007A440000C842B60100201E4B33F8F6
:1007D000112002704A1C33F8122042708A1C33F830
:1007E00012208270CA1C33F81220C2700A1D33F81E
:1007F000122002714A1D33F8122042718A1D33F80B
:1008000012208271CA1D33F81220C27101F1080250
:1008100033F81220027201F1090233F812204272F9
:1008200001F10A0233F81220827201F10B0233F84F
:100830001220C27201F10C0233F812200D31027342
:1008400033F8113043737047B601002002781F4B14
:1008500010B523F8112044784A1C23F812408478FC
:100860008A1C23F81240C478CA1C23F81240047969
:100870000A1D23F8124044794A1D23F81240847956
:100880008A1D23F81240C479CA1D23F81240047A45
:1008900001F1080223F81240447A01F1090223F819
:1008A0001240847A01F10A0223F81240C47A01F15D
:1008B0000B0223F81240047B01F10C0223F81240D2
:1008C000427B0D3123F8112010BD00BFB60100207E
:1008D00038B5044688B9114D0246102128711048D8
:1008E00001F0EAFD224602210E4801F0E5FD0E4B23
:1008F000EC701B685C639C6338BD012808D102461C
:10090000064B18711021BDE83840054801F0D4BDF0
:100910000228F1D1014B00221871F3E77600002084
:1009200000080140000C01406804002038B504466E
:1009300060B90F4D0246287102210E4801F0BCFD3E
:100940000D4BEC701B685C63DC6338BD012808D17B
:100950000246074B18710221BDE83840054801F0F6
:10096000ABBD0228F1D1024B00221871F3E700BFA2
:1009700068000020000C0140F8040020F8B506468D
:100980000D4607684FF07E5110461446FFF796FE5D
:1009900068B10DB97D63F8BD042D4FF0000301D19E
:1009A000BB63F8E7082D0CBFFB633B64F3E720460D
:1009B0002949FFF797FE00B1274C284B9F42284F4B
:1009C0003AD102F0FFFE7B6813F4605F18BF40006D
:1009D000FFF774FC2146FFF77DFD4FF08F4107467E
:1009E000FFF780FE044660B14FF05E513846FFF7D6
:1009F000BDFCFFF781FE4FF6FF73984228BF1846F3
:100A00000446601CFFF75AFC01463846FFF762FDBA
:100A1000FFF772FE28B14FF6FF720138904228BFEF
:100A20001046012132689462D0625161411800B1D0
:100A300049083DB95163AEE702F0B4FE7B6813F498
:100A4000E06FC3E7042D01D19163A4E7082D0CBF2B
:100A5000D16311649FE700BF00504347002C014061
:100A600000100240074A084B0849012808BF1346F6
:100A7000074A59611A6000225A609A60DA601A6166
:100A80009A6170474C000020300000206F12833ABA
:100A9000000048432DE9F74F694B6A4D98426A4B75
:100AA000044608BF1D46437814BF4FF0020A4FF0BA
:100AB000010A23B10378022B01D1037983B950468F
:100AC000FFF7D0FF01284FF000034FF000000CBFEC
:100AD0005E4A5F4A12685363E07003B0BDE8F08F6E
:100AE0006423C0795843C838FFF7ECFB8046A078F0
:100AF000FFF7E8FB5749FFF7EDFC4146FFF736FCEF
:100B00005549FFF72BFBD5F818B028605946074622
:100B1000FFF722FB5149064620F00040FFF7C4FDD5
:100B2000002840F086800021304694F80990FFF7B5
:100B3000D9FD002877D04846FFF7C4FB4549FFF7A9
:100B400015FC0146D5F81490A9604846FFF70EFC45
:100B50006968FFF703FB237A064618460193FFF7FF
:100B6000B1FB3C49FFF702FC014600903046FFF71D
:100B7000B9FD019B08B100990E465842FFF7A2FB50
:100B80003449FFF7F3FB31460090FFF7ABFD08B1A6
:100B9000009B1E4631466E604846FFF7E7FB59460C
:100BA000FFF7DCFA064601463846FFF77DFD00B147
:100BB0003E4630462849FFF777FD00B1264E3146C4
:100BC000AE614846FFF7D2FB0146E868FFF7C6FA78
:100BD0002149E8603046FFF7BFFA4146FFF77AFC4B
:100BE0001C49FFF7C3FB00210546FFF75DFD10BB65
:100BF00028461849FFF776FDF8B92846FFF77CFD2F
:100C0000E0703046FFF778FD80B2FFF757FBBAF18E
:100C1000010F02464FF000010CBF0C480C48FFF7D3
:100C2000ADFEE07859E74846FFF748FB00F1004089
:100C300084E7002186E70025DFE7064DDDE700BFFA
:100C400076000020300000204C00002068040020C6
:100C5000F80400200000C84200004843BD37863534
:100C600038B545780446012D13D12A464FF400715A
:100C7000124801F021FC2378022B02D12046FFF715
:100C800009FF0F4B20799C4212D1BDE83840FFF795
:100C90001FBE8DB909482A464FF4007101F00CFCC3
:100CA000084B257328461D83054B2571E570EAE73F
:100CB000BDE83840FFF73ABE38BD00BF000801402C
:100CC00076000020B60100200022F0B505210120A9
:100CD00004241427022664252A4BA3F80012A3F843
:100CE0000212A3F80422A3F80602A3F80842A3F80C
:100CF0000A02A3F80C02A3F80E22A3F81022A3F80C
:100D0000122218805A809A80DA801A81DF81198233
:100D10005E821A835A835D819A819982DC8218846B
:100D20005A849A84DA841A85DF8519865E861A8742
:100D30005A875D859A859986DC86A3F84020A3F8BA
:100D40004220A3F84420A3F84620A3F84820A3F8A3
:100D50004A20A3F86020A3F86220A3F86420A3F837
:100D60006620A3F86820084B1A805A809A80DA809F
:100D70001A81064B1A605A60054B1A705A709A70A5
:100D8000DA70F0BDB6010020AC010020A401002003
:100D9000A001002070B5002204464FF6FF70084EF7
:100DA0008A4200DB70BD0825A35C584040F3000375
:100DB000334083EA5003013D98B2F7D10132EFE7A7
:100DC00001A0FFFF08B502680A4B9A4210D100F05B
:100DD000C7FE094A094B0A491860137809480133CC
:100DE000DBB2137019440122BDE8084003F0ADBC2A
:100DF00008BD00BF00440040950000209000002086
:100E0000960000202004002002680D4B10B59A4285
:100E100015D14FF400510B4801F053FB00230A4C4D
:100E20000A4A0B482370137003F059FA23780949D2
:100E30000122BDE810400648194403F086BC10BDED
:100E40000044004000100140950000209400002064
:100E5000200400209600002010B5084C204603F026
:100E60003EFA0023064A20461370064A06491370CC
:100E7000BDE81040012203F068BC00BF2004002040
:100E80009500002094000020960000202DE9F041FC
:100E90007E4DC0B02E78052E40F292807C4C277893
:100EA000052F40F08D80B11E2046FFF773FF625C76
:100EB000C3B29A4206D1264416F8013CC0F30F2073
:100EC000834207D04FF40051724840B0BDE8F04172
:100ED00001F0F7BA63788DF80070062B8DF80130B9
:100EE00000F0A58007D8032B30D0042B75D0012249
:100EF00043F080038FE0102BF9D16288A38852BAA7
:100F00005BBA92B29BB202EB030EBEF5967F94F8E9
:100F100002C0E77826796079A17900F38680B1EB89
:100F2000430F40F082805C4901EB420200218B427A
:100F300004F1020440F3998094F8058094F806E0E7
:100F400001314EEA082E22F802EBF0E76088A28811
:100F500040BA52BA80B292B28118B1F5967F58DC8D
:100F60004D4C510004EB400000248DF802105F1C32
:100F70001E46A24203F10203FFB2DBB223DC0331BF
:100F8000C9B26846FFF706FF4B1C0DF80100DBB243
:100F9000000A8A1C0DF80300694664233F48D2B258
:100FA00003F04FF900286AD03A484FF4005101F09D
:100FB00088FA3A4803F093F90023394A2B701370EA
:100FC00040B0BDE8F08130F802CB01344FEA1C2E6E
:100FD0000DF806E00DF807C0C9E76288A38852BA89
:100FE0005BBA92B29BB2D11805291ADC2D480024B5
:100FF00000EB42006A4659008DF80210A34202F14C
:101000000202BCDD30F8026B0134370A577096706B
:10101000F4E78323022203218DF801308DF80220AA
:10102000AFE78423F6E78623F4E79023F2E7B4F8EA
:1010300002E094F802C09EFA9EF292B2B2F5967F58
:10104000E778A18826796079EDD2134B4CBA23F862
:10105000124040F60112964507D1B1F5807F04D1C8
:1010600000225A835A87A3F8102206218DF802C065
:101070008DF803708DF804608DF8050081E74FF45A
:101080000041044801F01DFA96E700BF95000020DA
:101090009600002000100140B6010020200400202E
:1010A00094000020AC01002008B5184BB3F80212E0
:1010B000174B1A788A4228D00139164A03291FD8BB
:1010C000DFE801F0020F1419012119704FF41653D3
:1010D0001048536003F09BF8BDE808400D4803F04A
:1010E00067B8022119704FF49643F1E70321197094
:1010F0004FF41643ECE7042119704FF46143E7E71E
:10110000052119704FF4E133E2E708BDB601002074
:10111000000000202004002008B5084D084C2B6872
:1011200001332B60238000F01BFD6080FFF718FB6C
:101130004FF47A7003F08AFBF1E700BF9C010020B6
:10114000AC01002008B5012003F080FBFBE70000A4
:1011500080B5184E184F3368184C013333603B7814
:10116000174D93B100F0FCFC2368C01A05280CD978
:1011700001232B70FFF78AFE002301221149124838
:101180003B702B7003F0E1FA02E02B78002BF1D1D9
:1011900000F0E6FC2368C01A42F21073984204D9AA
:1011A000FFF75AFE00F0DCFC2060012003F04EFB4C
:1011B000D1E700BF9801002095000020900000209A
:1011C00094000020960000202004002038B5012063
:1011D000FFF748FC0220FFF745FC0F4D0F4C284657
:1011E0000021FFF7F3FA10212046FFF7EFFAFFF78F
:1011F0005BFF2846FFF734FD2046FFF731FD284608
:101200000021FFF723FB20461021FFF71FFB0A20D8
:1012100003F01CFBE3E700BF76000020680000201D
:1012200010B594B0142200210CA804F04DFF142234
:1012300000210DEB020004F047FF1022002101A85D
:1012400004F042FF02244FF480330122CDE9114320
:10125000CDE90A234FF4E0130AA80E92139302F08B
:1012600043F808B172B6FEE70F23CDE905344FF419
:1012700080630790CDE90830214605A802F0F6F911
:1012800008B172B6FEE7039001A8019402F0AAFA31
:1012900008B172B6FEE714B010BD000080B59AB078
:1012A00000F040FCFFF7BCFF1022002112A804F060
:1012B0000BFFAB4B4FF460419A69AA4842F0100211
:1012C0009A619A69002402F010020192019A9A69C7
:1012D000022642F020029A619A69012702F0200258
:1012E0000292029A9A69202542F004029A619A6950
:1012F00002F004020392039A9A6942F008029A618A
:101300009B69002203F008030493049B01F0D4F8C6
:10131000002240F21221944801F0CEF8002241F25E
:101320001A01924801F0C8F84FF460438D4812A9A1
:10133000CDE91446CDE9123700F07CFF40F21223CC
:10134000894812A9CDE91237CDE9144600F072FFA1
:10135000854812A9CDE91254149400F06BFF41F2B4
:101360001A03824812A9CDE91446CDE9123700F0DC
:1013700061FF4FF4C8437D4812A9CDE9123414949B
:101380007B4E00F057FF7B487B4BC0E90244C0E92D
:1013900000634FF48043C0E90644C0E904340462AA
:1013A00001F098F8044608B172B6FEE70146102233
:1013B00012A804F089FE4FF6FF774FF080436F4E7E
:1013C000CDE90B443046C6E90034C6E90374B46085
:1013D000B46102F01FFC08B172B6FEE74FF480580A
:1013E000304612A9CDF8488002F0FAFC08B172B676
:1013F000FEE7CDE90B000BA9304602F0E9FD0346FC
:1014000008B172B6FEE74FF4E1325D485D49C0E9CC
:101410000233C0E900120C220361C0E90523C36155
:1014200002F0C6FE044608B172B6FEE7014610227D
:1014300007A804F049FE1C2221460BA8CDE905446B
:1014400004F042FE2A4621464F4D12A804F03CFE0D
:101450004E4B2846C5E90034C5E90247C5E90444B6
:10146000AC6102F0D7FB08B172B6FEE7284607A9C7
:10147000CDF81C8002F0B4FC08B172B6FEE7284635
:1014800002F0F4FB08B172B6FEE7CDE9050005A94C
:10149000284602F09DFD024608B172B6FEE76023C1
:1014A000CDE90D00CDE90B30CDE90F0011900BA96E
:1014B000284602F033FC08B172B6FEE70822324833
:1014C0000BA902F02BFC08B172B6FEE74FF40053F3
:1014D000CDE91200CDE914001690199012A92A48FE
:1014E000179302F0A3FD054608B172B6FEE7264841
:1014F00000F0FAF9102229460BA804F0E5FD1C22A1
:10150000294612A8224CCDE9075504F0DDFD214BF8
:101510002046C4E900354FF6FF73A560C4E90335E2
:10152000A56102F077FB08B172B6FEE74FF4805375
:1015300020460BA90B9302F053FC08B172B6FEE7EC
:10154000204602F093FB08B172B6FEE7CDE9070032
:1015500007A9204602F03CFD0246E8B172B6FEE75C
:10156000001002400010014000080140000C014042
:101570000054004040050020A0860100B004002077
:101580002004002000440040F8040020002C01400A
:10159000680400200004004060231490CDE912305C
:1015A000169012A9204602F0B9FB08B172B6FEE708
:1015B0000422204612A902F0B1FB054608B172B61A
:1015C000FEE7204600F090F9314C324BCDE9125540
:1015D00014952360A5604FF460232573257565601D
:1015E00001252046E361256100F0AAFC08B172B62E
:1015F000FEE7CDE91205149012A9204600F05EFB2B
:1016000008B172B6FEE700240021234802F0DEFC98
:101610000021224802F0DAFC214B1C60214B1C60A7
:10162000214B1C70FFF750FB4FF4807221461F487E
:1016300004F04AFD1E4B1C701E4B1C7000F090FA0B
:101640001D4B0122186019491C4803F07EF803F075
:101650008DF821461A4A1B4803F0B4F81A4B21466C
:1016600018601A4A1A4803F0ADF81A4B2146186060
:10167000194A1A4803F0A6F8194B21461860194A6E
:10168000194803F09FF8194B186003F081F8FEE742
:10169000940500200024014068040020F804002084
:1016A0008C0000208800002084000020960000208C
:1016B00095000020940000209000002020040020CD
:1016C000F8610008191100081C040020D46100080A
:1016D0005111000818040020B0610008CD11000865
:1016E000140400208C61000845110008100400203B
:1016F000154B07B59A690F2142F001029A619A6968
:101700006FF0010002F001020092009ADA6942F0E3
:101710008052DA61DB69002203F080530193019B60
:1017200000F0B8FC05210022084600F0B3FC0520BB
:1017300000F0E0FC054A536823F0E06343F00073D7
:10174000536003B05DF804FB00100240000001404C
:1017500010B5044686B01022002102A804F0B4FCA3
:101760002268104B9A421BD103F56C439A690E48CC
:1017700042F400729A619A6902A902F4007200921E
:10178000009A9A6942F004029A619B69012203F06F
:1017900004030193019B0323CDE9022300F04AFDDA
:1017A00006B010BD002401400008014010B50446F9
:1017B00086B01022002102A804F086FC2268194B92
:1017C0009A422CD1184CC022A369184843F0080350
:1017D000A361A36902A903F008030093009B1223ED
:1017E000CDE902230323059300F024FDE3690022E1
:1017F00043F40013E361E369052103F400131F20A0
:101800000193019B00F046FC1F2000F073FC202098
:101810000022052100F03EFC202000F06BFC06B009
:1018200010BD00BF0054004000100240000C0140F9
:101830001FB50368294A934224D1294B05219A698F
:10184000182042F400629A619B69002203F400634D
:101850000193019B00F01EFC182000F04BFC0022BD
:101860000521192000F016FC192000F043FC1B2074
:101870000022052100F00EFC1B2005B05DF804EBF2
:1018800000F038BCB3F1804F11D103F50433DA69AD
:101890001C2042F00102DA61DB69002203F001033F
:1018A00002930521029B00F0F5FB1C20E5E70D4AA1
:1018B000934210D10A4B1D20DA69052142F0020241
:1018C000DA61DB69002203F002030393039B00F05B
:1018D000E1FB1D20D1E705B05DF804FB002C0140C1
:1018E000001002400004004010B5044686B01022EB
:1018F000002102A804F0E8FB2368144A934215D1A2
:10190000134B9A6942F004029A619B6903F0040345
:101910000093009B4FF4A063029302230D4802A999
:101920000393059300F086FC06B010BD0A4A93426B
:10193000FAD1074B9A6942F004029A619B6903F05D
:1019400004030193019BC023E6E700BF002C014084
:1019500000100240000801400004004010B5044699
:1019600086B01022002102A804F0AEFB22681A4BB8
:101970009A422FD103F5E633DA69184842F400326F
:10198000DA61DA6902A902F400320092009A9A69D7
:10199000002442F004029A619B69042203F00403CC
:1019A0000193019B0223CDE902230323059300F059
:1019B00041FC082309480DEB0301CDE902340494EE
:1019C00000F038FC26202246052100F063FB26208B
:1019D00000F090FB06B010BD00440040000801403C
:1019E00008B50268084B9A420DD1084A0848D369E5
:1019F0000C2123F40033D36100F0F0FCBDE8084073
:101A0000262000F085BB08BD0044004000100240C5
:101A100000080140FEE7FEE7FEE7FEE7FEE770474D
:101A200008B500F091F803F0BDFE012803D0BDE831
:101A3000084004F09FB908BD70470000014802F05B
:101A400023B800BFF8040020FFF7F8BFFFF7F6BF88
:101A5000014802F019B800BFB0040020014802F0AC
:101A600013B800BF68040020014800F045BF00BF64
:101A700040050020014801F097BB00BF4005002051
:101A8000014802F0FFBC00BF2004002070470000A6
:101A9000FFF7FCFF0B480C490C4A002302E0D45826
:101AA000C4500433C4188C42F9D3094A094C0023AA
:101AB00001E013600432A242FBD304F00DFBFFF7F8
:101AC000EDFB704700000020140000206062000859
:101AD00014000020141F0020FEE7000038B50E4B54
:101AE00005461A784FF47A73B3FBF2F30B4A106889
:101AF000B0FBF3F000F01EFB044658B90F2D09D8D7
:101B0000024629464FF0FF3000F0C4FA2046044B4D
:101B10001D6038BD0120FCE7080000200400002003
:101B20000C000020074A08B51368032043F0100397
:101B3000136000F09DFA0F20FFF7D0FFFFF7D8FDEC
:101B4000002008BD00200240034A044B11681B78A6
:101B50000B441360704700BFC4050020080000203C
:101B6000014B1868704700BFC4050020F7B5002678
:101B700004460D460196FFF7F3FF236807469A686F
:101B8000D10508D50120A36A84F8246043F020031E
:101B9000A36203B0F0BD5A68D20503D4DB6A13F424
:101BA000700F3DD03D4B02201E6801F095FE23686A
:101BB0003B4A1969B6FBF0F611423A4A51D1D8684E
:101BC000394908424DD1196911425BD1DA68374B66
:101BD0001A420CBF142329235E43019BB34223D234
:101BE0006A1C04D0002D53D1019BB3420AD3019B40
:101BF00001330193F1E76E1C13D065B923681B68AC
:101C000098070DD4A36A032043F00403A3620023C2
:101C100084F82430BDE7FFF7A3FFC01BA842EDD82E
:101C2000226813689907E6D56FF0120322681360E3
:101C3000A36A43F40073A362936803F46023B3F5CB
:101C4000602F0CD1237B53B9A36A23F48073A36262
:101C5000A36ADB0403D4A36A43F00103A362002058
:101C600097E71969114203D1D968104A11420BD084
:101C700019690F4A114209D1DB6813420CBF542382
:101C8000FC23A9E72923A7E75423A5E7FC23A3E71F
:101C9000FFF766FFC01BA842A6D8A8E704000020F3
:101CA0002449922492244912244992009224490002
:101CB000499224000368D86C70470000002373B574
:101CC000019390F824300446012B6CD0012380F856
:101CD00024304D680268062D086805EB850322D87C
:101CE0001F26556B053B9E4025EA060500FA03F3C7
:101CF0002B43536309288B6800EB40054FF0070125
:101D000029D9D6681E3DA94026EA0101AB400B4304
:101D1000D360A0F11003012B25D90020002384F803
:101D2000243002B070BD0C2D4FF01F0509D8166B82
:101D3000233B9D4026EA050500FA03F32B4313637A
:101D4000D8E7D66A413B9D4026EA050500FA03F331
:101D50002B43D362CEE71069A94020EA0101AB40D2
:101D60000B431361D9E7114B9A4216D193681B02BA
:101D7000D3D49368102843F400039360CDD10C4B67
:101D80000C4A1B68B3FBF2F30A2253430193019BF5
:101D9000002BC2D0019B013BF8E7A36A012043F06E
:101DA0002003A362BAE70220BBE700BF0024014082
:101DB0000400002040420F00002337B50193036860
:101DC00004469A68D20702D5002003B030BD9A6855
:101DD00042F001029A60144B144A1B68B3FBF2F301
:101DE0000193019BE3B9FFF7BBFE054623689B689F
:101DF000DB07E9D4FFF7B4FE401B0228F6D92368BD
:101E00009B6813F00103F1D1A26A012042F0100295
:101E1000A262E26A84F8243042F00102E262D4E76E
:101E2000019B013BDCE700BF0400002040420F00A3
:101E300010B590F824300446012B54D0012380F8CB
:101E40002430FFF7B9FF002849D1A36A274A23F4B9
:101E5000407323F0010343F48073A3622368934229
:101E600004D123494A6812F4702F2ED1A26A22F4B9
:101E70008012A2625A68520541BFA26A22F44052FF
:101E800042F48052A262A26A12F480521CBFE26A3B
:101E900022F00602E262002284F824206FF002029F
:101EA0001A609A6802F46022B2F5602F13D10F4ACB
:101EB000934205D1A2F58062526812F4702F0AD1C4
:101EC0009A6842F4A0029A6010BDA26A42F480129D
:101ED000A2624A68CFE79A6842F48012F3E70023CF
:101EE00084F82430F0E70220EEE700BF002801402C
:101EF0000024014038B5036804469A68D10701D42C
:101F0000002038BD9A6822F001029A60FFF728FE8F
:101F1000054623689B68DB07F2D5FFF721FE401BCF
:101F20000228F6D923689B68DA07F2D5A36A012054
:101F300043F01003A362E36A43F00103E362E0E7C6
:101F4000F8B5044600286DD0836A23B9C36280F8CF
:101F50002430FFF7FDFB2046FFF7CCFFA36A13F008
:101F6000100361D100285FD1A26A616822F488520F
:101F700022F0020242F00202E569A668A262227B18
:101F80002943B6F5807F41EA420136D0771E7D4273
:101F90007D412D02277D012F06D182BBA269013A26
:101FA00045EA423242F400652268B6F5807F576800
:101FB00027F4694745EA0705556097681D4D05EA0E
:101FC000070545EA0105956001D0012E02D123697C
:101FD000013B1B05D56A25F470052B43D36292683B
:101FE000154B1340994213D10023E362A36A23F0F7
:101FF000030343F00103A362F8BD3546CAE7A26AB2
:1020000042F02002A262E26A42F00102E262CBE701
:10201000A36A23F0120343F01003A362E36A43F0C0
:102020000103E3620120E7E7A36A43F01003A36220
:10203000F8E700BFFDF7E1FFFE0E1FFF10B590F8B7
:1020400024300446012B11D0012380F82430FFF7FF
:1020500051FF38B9A36A23F4885323F0010343F0F6
:102060000103A362002384F8243010BD0220FCE7A2
:1020700007490302CA6803F4E06322F4E062120431
:10208000120C134343F0BF6343F40033CB6070473B
:1020900000ED00E0154B30B5DC68C4F30224C4F158
:1020A0000703251D042B28BF0423062D4FF0FF3501
:1020B00094BF0024033C05FA03F321EA0303A5407F
:1020C00022EA0502A340002843EA0203ACBF00F164
:1020D0006040074A4FEA0313DBB2ABBF00F5614033
:1020E00000F00F0080F80033135430BD00ED00E025
:1020F00014ED00E0002807DB01234109034A00F04A
:102100001F00834042F82130704700BF00E100E02B
:1021100000280CDB01220649430900F01F00824021
:10212000203341F82320BFF34F8FBFF36F8F7047E9
:1021300000E100E00138B0F1807F0BD24FF0E023E6
:10214000F021054A586182F8231000200722986187
:102150001A6170470120704700ED00E090F82120DF
:102160000346022A06D0042282630120002283F85B
:10217000202070470268C06B116821F00E011160C9
:10218000116821F00101116001211A6C01FA02F2BB
:102190004260002083F82110E8E7000008B590F8BD
:1021A0002130022B03D004238363012008BD036880
:1021B0001A6822F00E021A601A6822F001021A60F0
:1021C000174A93421FD0143293421ED014329342C6
:1021D0001DD0143293421DD0143293421DD01432BC
:1021E000934214BF4FF080734FF480130D4A536035
:1021F000012380F82130002380F82030436B03B1A5
:1022000098470020D2E70123F0E71023EEE74FF4D0
:102210008073EBE74FF48053E8E74FF48033E5E752
:10222000080002400000024090F821007047806BD7
:10223000704700002DE9F74F00244FF00F0E26469F
:10224000DFF884C1614B00F104080A6832FA06F530
:1022500002D103B0BDE8F08F012505FA06F702EAC6
:10226000070537EA020276D14A68032A07D8013AFD
:10227000022A00F28380DFE802F091969C00122A85
:1022800000F0948069D8112A00F08A80FF2D94BF55
:102290008146C1464FEA8602D9F8007088BF203ACD
:1022A0000EFA02FA27EA0A0704FA02F21743C9F8FB
:1022B0000070D1F8049019F0805F4CD0DCF8182041
:1022C00026F0030742F00102CCF81820DCF81820B1
:1022D00007F1804702F00102019207F5803706F00E
:1022E000030A019A4FEA8A0ABA680EFA0AFB22EA3E
:1022F0000B0B374A904260D002F5806290425ED06C
:1023000002F5806290425CD002F58062904214BF78
:102310000422032202FA0AF242EA0B02BA609A6825
:1023200019F4801F14BF2A43AA439A60DA6819F48B
:10233000001F14BF2A43AA43DA605A6819F4003F09
:1023400014BF2A43AA435A601A6819F4803F14BF85
:102350002A43AA431A60013677E7DFF878904A45A6
:102360000CD014D8A9F580194A4507D009F5702971
:102370004A4503D0A9F580194A4587D18A68D2B168
:10238000012A4FF008040CBF076147617EE7DFF8C0
:1023900048904A45F2D009F58039EDE7CC6875E7F9
:1023A000CC68043472E7CC6808346FE7CC680C342E
:1023B0006CE700246AE7042468E70022AAE7012208
:1023C000A8E70222A6E700BF001002400004014077
:1023D0000008014000002210000031102DE9F74FE5
:1023E0004FF0040B00224FF0010A4FF00F0800EBF2
:1023F0000B0301932E4B31FA02F402D103B0BDE876
:10240000F08F0AFA02F70F4049D022F0030404F1DA
:10241000804404F5803402F0030CA5684FEA8C0C6C
:1024200008FA0CF909EA050E224DA84239D005F543
:102430008065A84237D005F58065A84235D005F5FE
:102440008065A84214BF0425032505FA0CF57545DF
:102450006FEA07060FD11D6835401D605D68354085
:102460005D60DD683540DD609D6835409D60A56834
:1024700025EA0905A560FF2F94BF0746019F4FEA93
:1024800082043D6888BF203C08FA04FC25EA0C055C
:102490000BFA04F425433D60C4683440C460013243
:1024A000A9E70025D1E70125CFE70225CDE700BF49
:1024B00000040140000801400AB1016170470904AD
:1024C000FBE7C36801EA030221EA030141EA024192
:1024D0000161704770B5044608B9012070BD90F8DD
:1024E0003D3003F0FF021BB980F83C20FFF75EF996
:1024F000242384F83D3023681A6822F001021A6010
:102500001A6842F400421A601A6822F400421A6003
:1025100001F048F93F4B65689D4294BF3E4B3F4BED
:1025200098428CBF00230123002BD6D1394E3C4B5F
:10253000B542B0FBF3F388BF4FF49676226851683A
:1025400021F03F0141EA030182BF73434FF47A76E1
:10255000B3FBF6F35160116A013321F03F010B43E5
:102560001362D169431E2B4821F44F41854221F06B
:10257000FF0132D86D00B3FBF5F340F6FC70013378
:10258000034242D0C3F30B031943D1611168D4E96C
:10259000073021F0C00103430B4313609168D4E975
:1025A000030321F40341034321F0FF010B43936034
:1025B000D168D4E9053021F0FF0103430B43D36018
:1025C0001368002043F0010313602023206484F883
:1025D0003D30206384F83E0080E7A06850B905EBE9
:1025E0004505B3FBF5F30133C3F30B037BB143F4B0
:1025F0000043C9E719206843B3FBF0F30133C3F389
:102600000B0323B143F44043BEE70423BCE701239B
:10261000BAE700BFA08601007F841E00FF083D00CE
:1026200040420F00704770477047704770477047CF
:10263000704790F83D2008B5036DD2B283B9C36CE2
:102640000268012B836C05D1DBB21361036D023389
:10265000036508BDC3F307231361036D0133F7E777
:10266000036D012B03D1836C0268DBB2F4E7036DC9
:10267000022B2FD1222A05D10268136843F48073FC
:102680001360EAE7438D9BB263B1212A0AD1436A02
:10269000026813F8011B11614362438D013B9BB239
:1026A0004385D6E7438D9BB2002BD2D1212AD0D1CE
:1026B0000268516821F4E0615160116841F40071D1
:1026C00011602022036380F83D2080F83E30FFF740
:1026D000AFFFBEE703685A69120644BF00221A61C1
:1026E000B7E7704770477047002337B546F2A81127
:1026F00001932C4B406A1B6890F83D20B3FBF1F32B
:1027000023214B4301930368D2B2019941BB016C71
:1027100041F020010164446B0CB10021A162816B86
:1027200009B100258D621D6825F480651D600025B6
:10273000458504B1656301B14D63196821F001015C
:10274000196090F83D10602911D1202380F83D30A8
:10275000002380F83E300364FFF7C5FF03B030BDAF
:1027600001990139019119688905CED4D3E702F0A6
:102770002802282A0ED1196841F001011960196850
:1027800041F4806119600023036380F83D20FFF766
:10279000A9FFE3E7202380F83D30002380F83E3096
:1027A000F5E700BF0400002010B590F83D2090F838
:1027B0003E300446102BD9B2D2B2036801D0402972
:1027C00013D1222A11D1196821F4006119605968C6
:1027D00011F4006106D1602A1EBF202284F83D203A
:1027E00084F83E100022226307E002F02801282925
:1027F000EDD10022226384F83D105A6812F4006281
:102800004FD05A68606B22F400625A6090F8213011
:10281000012B374B2BD04363FFF7C0FC50B122682C
:10282000606B136823F001031360202384F83D30AC
:10283000436B9847236C19071FBF2268536823F422
:10284000E063536094F83D30226CDBB252070DD543
:10285000282B0BD1274B2022E36200232046236341
:1028600084F83D2084F83E30FFF7E1FE10BDA06BF8
:102870004363FFF793FC0028DCD023685A695106B4
:1028800005D51A69636A1A70636A01336362226844
:10289000A06B136823F001031360202384F83D30FC
:1028A000C6E794F83D10602915D1202184F83D1029
:1028B00022645A69520605D51A69636A1A70636AF6
:1028C0000133636222682046136823F0010313601A
:1028D000FFF709FFAEE75A69500605D51A69636A22
:1028E0001A70636A013363622046FFF7FBFEA1E7BB
:1028F000E92600080000FFFFF0B5044603688FB02A
:102900005A68C66A90F83E0094F83D101028C5B287
:10291000C9B202D0402D40F0E5829F69586910F09D
:10292000010F07D1B6F52A0F02D0B6F12A4F51D1C7
:102930000FB0F0BD96054DD5E26AB2F52A0F0CD165
:102940000122E26294F83E20402A11D1226D52B950
:10295000626C02F0FE021A61EAE7E26AB2F12A4F03
:10296000F0D10822EDE7626C42F00102D2B2F2E748
:102970002269B2F5804F1AD194F83D20212A626C69
:1029800011D102F0FE021A61626B0AB1926A2AB991
:10299000A26B002ACCD0926A002AC9D05A6842F4AD
:1029A00000625A60C4E742F00102D2B2EBE7226D46
:1029B00032B9626CD21102F0060242F0F002CAE7AC
:1029C000226D012AB4D1626CD21102F0060242F0EB
:1029D000F102C0E7060703D5960501D5626CE4E76E
:1029E000860740F1F080960540F1ED8094F83E10A6
:1029F000E26A256B94F83D00C9B2222840F0DB80E2
:102A0000206D40B9402906D100905A6900929B6917
:102A10000093009B8CE7216D89B92069B0F5404F88
:102A20000DD101915A6901929A690192019A1A682D
:102A300042F480721A60236D0133236578E7618D5B
:102A400089B251B902915A6902929A690292029A24
:102A50001A6842F400721A6019E0618D89B2012986
:102A600049D112F5803F1BD11A6822F480621A60A6
:102A70005A6812F400620CD01A6822F480621A605C
:102A8000002203925A6903929B690393039B0023DC
:102A9000D3E704925A6904929A690492049AD7E798
:102AA000082A1CD0202A1AD0122D0DD1012A16D1A5
:102AB0001A6822F480621A60002205925A6905920F
:102AC0009B690593059BE2E7102AF1D8864941FAF4
:102AD00002F2D707ECD41A6842F48062EBE71A6876
:102AE00022F480621A60002206925A6906929A695C
:102AF0000692069AACE7618D89B2022938D1102A74
:102B000003D87A49D140CE0718D4196841F400613E
:102B100019600021079159690791996907910799EF
:102B2000196821F48061196059680D05AFD5202A14
:102B30001BD8072A0ED8012AA9D111E0196841F43F
:102B4000806119600021089159690891996908917B
:102B50000899E9E7A2F10801654ACA40D00796D56D
:102B60005A6842F480525A6091E712F5803FE3E7D9
:102B7000196841F4806119605968090510D5202A47
:102B800016D8072A06D8012A0AD15A6842F4805278
:102B90005A6005E0A2F10801554ACA40D207F4D4B0
:102BA000002209925A6909929B690993099B6EE771
:102BB00012F5803FE8E700220A925A690A929B695F
:102BC0000A930A9BB4E67F0740F194805E6836055D
:102BD0003FF5AEAE070600F004063ED550053CD5E5
:102BE000002E3DD194F83D20258D94F83E10D2B2B0
:102BF000E06AC9B2C5B9212A18D1082858D02028BE
:102C000056D010F5803F53D05A6822F4E0625A60E3
:102C100011232363002384F83E302023204684F8C8
:102C20003D30FFF7FFFC83E6212A05D040297FF4E1
:102C30007FAE222A7FF47CAE628D92B21AB95A68B6
:102C400022F48062ADE694F83E20402A16D1204658
:102C50000FB0BDE8F040FFF7ECBC002E3FF468AECB
:102C600097057FF565AE212939D1E16A94F83D20B9
:102C7000212A7FF45DAE628D92B24AB1626A12F887
:102C8000011B19616262638D013B9BB263854FE654
:102C900008290DD020290BD011F5803F08D05968A4
:102CA00021F4E06159601123236384F83E20B4E7E6
:102CB0005A68204622F4E0625A601A6842F40072B0
:102CC0001A6000232022236384F83D2094F83E20DC
:102CD00084F83E30402AA4D1FFF7AAFC28E6402D14
:102CE0007FF426AEB3E700BFEBFFFEFF1400010048
:102CF0000101000159680E053FF51AAE450600F0C6
:102D0000040140F18680500540F18380002940F0A5
:102D1000838094F83D20222A7FF40AAEE06A628D17
:102D200092B2032A14D91A69636A1A70636A01336A
:102D30006362638D013B9BB26385638D9BB2032B02
:102D40007FF4F6AD2268536823F480635360EFE5A7
:102D5000E56A022D3FF473AF012A3FF670AF0B9185
:102D600046F2A811784A1268B2FBF1F202EB820235
:102D70000B920B9A013A0B920B99D1B9226C204617
:102D800042F0200222645A6822F4E0625A601A6912
:102D9000636A1A70636A01336362638D013B9BB29D
:102DA0006385202384F83D3084F83E10FFF79AFCB9
:102DB000BEE51A6812F40072DBD1196821F4806153
:102DC0001960596821F4E06159601969636A1970E2
:102DD000636A01336362638D013B9BB26385202389
:102DE00084F83D3094F83E3084F83E20402B04D1E6
:102DF00022632046FFF775FC9AE5082801D02028B9
:102E000001D1002300E0122320462363FFF70BFCCF
:102E10008EE500293FF48CAD92057FF589ADE26A1D
:102E2000608D616A80B2042809D15A6822F48062F8
:102E30005A601B690B70636A0133636223E7608D1C
:102E400080B203280CD15868042A20F480605860AE
:102E5000EFD0022AEDD01A6822F480621A60E8E707
:102E6000608D80B20228E4D1042A33D007D8012A29
:102E700007D0022A2ED0186840F4007004E0102A0F
:102E8000F9D1186820F4806018601B690B70616AC2
:102E90004B1C6362638D013B9BB2638523681B6996
:102EA0004B70636A216801336362638D013B9BB29F
:102EB00063854B6823F440734B60202384F83D30D6
:102EC00094F83E30402B4FF0000384F83E3005D19B
:102ED00023638EE7186840F48060D5E7082A90D015
:102EE000202A8DE7206C10B30025586987072DD55F
:102EF00096052BD5226C02B19D6994F83D2002F015
:102F00002802282A16D15A682F0622F480625A60B5
:102F10004FF0000385F00401204654BFA289228BA4
:102F2000C1F3800184F83C30FFF780FB00E59D6928
:102F30005869DBE700220C9259690C919B6984F86F
:102F40003C200C930C9BF3E404000020C60640F1E7
:102F5000B180950540F1AE8094F83D505A68EDB2CD
:102F600022F4E0625A6000220D925A690D921A68AA
:102F700042F001021A600D9A1A6822F480621A6007
:102F80005A68100520D505F0F702222A4AD1A06B15
:102F90000268526892B26285628D92B21AB1226C56
:102FA00042F0040222645A6822F400625A60FFF779
:102FB0003BF9012808D0A06B794B4363FFF7EEF88B
:102FC00010B1A06B436B9847638D9BB213B323681A
:102FD0005A69510709D51A69636A1A70636A01331D
:102FE0006362638D013B9BB2638523685A69520615
:102FF00009D51A69636A1A70636A01336362638D63
:10300000013B9BB26385638D9BB21BB1236C43F084
:1030100004032364236C13B320460FB0BDE8F040D3
:10302000FFF7C2BB606B0268526892B26285628D24
:1030300092B21AB1226C42F0040222645A6822F45D
:1030400000625A60FFF7F0F80128BDD0606B544B66
:103050004363FFF7A3F80028B6D0606BB2E72A2DD0
:1030600006D123632823204684F83D30FFF7DDFA9C
:1030700094F83D30282B0CD14A4B2022E3620023E8
:103080002046236384F83D2084F83E30FFF7CFFAD2
:103090004EE4236B222B02D0222D7FF449AC002377
:1030A0002022236384F83D2084F83E302046FFF739
:1030B000BCFA3DE401F0F701212900F0040535D107
:1030C000070627D5560525D53DBB94F83D00628DF2
:1030D000C0B292B2002A3FF42BAC626A12F8015BD4
:1030E0001D616262628D013A92B26285628D92B216
:1030F000002A7FF41DAC29287FF41AAC5A682046B8
:1031000022F480625A602823216384F83D30FFF75F
:103110008BFA0DE4002D3FF40BAC95057FF508AC60
:10312000628D92B2002A3FF403ACA7E5400627D592
:10313000510525D53DBB94F83D20618DD2B289B2B1
:1031400000293FF4F5AB1969636A1970636A0133AA
:103150006362638D013B9BB26385638D9BB2002BE1
:103160007FF4E6AB2A2A7FF4E3AB2268536823F4AA
:103170008063536022232363282384F83D3095E73E
:10318000002D3FF4D5AB92057FF5D2AB628D92B2A4
:10319000002A3FF4CDAB1A69636A1A704BE600BF90
:1031A000E92600080000FFFFF8B5036804465F69E0
:1031B0005E6890F83E2017F48075D2B20AD016F4FB
:1031C000807507D06FF4807101255961196841F449
:1031D00000411960B80506D5F10542BF6FF40071D2
:1031E00045F002055961780536D5F10534D5608D75
:1031F00094F83D10202AD4F830C080B2C9B25FD113
:1032000000285DD101F0F700212804D0282957D1EA
:10321000BCF1210F54D194F83D20E16AD2B20829C3
:1032200001D020292AD1282A28D12E4A2046E2621C
:103230005A6822F4E0625A606FF480625A611A6838
:1032400022F480621A6000232022236384F83D2048
:1032500084F83E30FFF7EBF93A053FD5F3053DD54D
:103260006FF40062236845F008055A61236C20461C
:103270002B432364BDE8F840FFF796BA212A1BD1FF
:103280001849E16222630021202284F83D2084F85D
:103290003E105A6822F4E0625A606FF480625A610C
:1032A0001A6822F480621A605A69100648BF1961D0
:1032B0002046FFF7B9F9CFE76FF480625A61CBE798
:1032C0006FF48061102A596145F0040501D0402A4D
:1032D000C2D11A6842F400721A60BDE7002DC5D150
:1032E000F8BD00BF0000FFFF2DE9F341054638B3EC
:1032F0000368DB0710D42B689F075ED42B6819077F
:1033000000F195802B685A0700F1C180EB69002B12
:1033100040F02C81002029E0904C636803F00C03FE
:10332000042B07D0636803F00C03082B0AD16368F1
:10333000DE0307D523689C03DDD56B68002BDAD14B
:10334000012013E06B68B3F5803F12D1236843F48A
:1033500080332360FEF704FC064623689803CAD432
:10336000FEF7FEFB801B6428F7D9032002B0BDE8FE
:10337000F0819BB9236823F480332360236823F40E
:1033800080232360FEF7ECFB064623689903B2D541
:10339000FEF7E6FB801B6428F7D9E6E7B3F5A02F1C
:1033A000236803D143F480232360CFE723F48033E1
:1033B0002360236823F48023CBE7684C636813F011
:1033C0000C0F07D0636803F00C03082B10D163685F
:1033D000DA030DD423689B0702D52B69012BAFD1EB
:1033E00023686A6923F0F80343EAC203236085E790
:1033F0002A695B4B6AB101221A60FEF7B1FB0646EF
:1034000023689F07ECD4FEF7ABFB801B0228F7D99B
:10341000ABE71A60FEF7A4FB0646236898077FF522
:103420006DAFFEF79DFB801B0228F6D99DE7AA69C8
:103430004A4E4B4BE2B10122C3F88024FEF790FBC9
:103440000446736A9B070DD54FF4FA52454B1B682F
:10345000B3FBF2F3019300BF019B5A1E0192002BB4
:10346000F9D14FE7FEF77CFB001B0228E9D97CE786
:10347000C3F88024FEF774FB0446736A9F077FF548
:1034800041AFFEF76DFB001B0228F6D96DE7334C08
:10349000E369D80024D40127E36943F08053E36152
:1034A000E36903F080530093009B2F4E3368D905E6
:1034B00018D5EB68012B26D1236A43F00103236260
:1034C000FEF74EFB41F288380646236A9B073FD53C
:1034D000002F3FF41BAFE36923F08053E36115E74E
:1034E0000027E2E7336843F480733360FEF738FB6C
:1034F00080463368DA05DCD4FEF732FBA0EB080027
:103500006428F6D931E7ABB9236A41F2883823F051
:1035100001032362236A23F004032362FEF720FBE6
:103520000646236A9807D3D5FEF71AFB801B404551
:10353000F7D91AE7052B236A03D143F0040323626A
:10354000BAE723F001032362236A23F00403B6E7FA
:10355000FEF706FB801B4045B7D906E70010024086
:103560000000424204000020007000402A4C6268C3
:1035700002F00C02082A3ED00022022B274B1A66CA
:103580002CD1FEF7EDFA06462368990120D42B6A68
:10359000B3F5803F05D16268A96822F400320A437E
:1035A0006260696A62680B4322F474121343012259
:1035B00063601A4B1A66FEF7D3FA054623689A0130
:1035C0003FF5A8AEFEF7CCFA401B0228F6D9CCE6B0
:1035D000FEF7C6FA801B0228D6D9C6E6FEF7C0FA67
:1035E000054623689B017FF595AEFEF7B9FA401BAF
:1035F0000228F6D9B9E6012B3FF4A2AE60682B6A27
:1036000000F480329A427FF49BAE6B6A00F4701033
:10361000C01A18BF0120A9E6001002400000424273
:103620000D4A536803F00C01082912D10B48C3F36B
:103630008341DB03405C09D55368094AC3F3404327
:103640005043084AD35CB0FBF3F07047064B584335
:1036500070470348704700BF001002403662000800
:1036600000127A003462000800093D002DE9F041A3
:103670000D46044610B90120BDE8F081444A1368A4
:1036800003F007038B4228D321688E0730D4CA0782
:1036900043D43F4A136803F00703AB4265D822685E
:1036A0003C4D12F0040F6CD1130706D56B682269EC
:1036B00023F4605343EAC2036B60FFF7B1FF6B680A
:1036C000354AC3F30313D35CD840344B1860344BF2
:1036D0001868FEF703FA0020CEE7136823F007030B
:1036E0000B431360136803F007038B42C3D1CBE78E
:1036F000284B11F0040F1EBF5A6842F4E0625A6072
:10370000080742BF5A6842F460525A605A68A0687B
:1037100022F0F00202435A60B9E762681D4E012AA6
:1037200033681AD113F4003FA5D0736841F288388A
:1037300023F0030313437360FEF712FA074673681E
:10374000626803F00C03B3EB820FA2D0FEF708FA15
:10375000C01B4045F3D903208EE7022A02D113F0A3
:10376000007FE1E713F0020FDEE7136823F00703A1
:103770002B431360136803F00703AB427FF47BAF66
:103780008DE76B68E16823F4E0630B436B608BE7C4
:1037900000200240001002402462000804000020C3
:1037A0000C000020044B054A5B68C3F30223D35C82
:1037B000034A1068D8407047001002401C6200089D
:1037C00004000020044B054A5B68C3F3C223D35CAA
:1037D000034A1068D8407047001002401C6200087D
:1037E0000400002003682DE9F3410546D80721D5E0
:1037F000364CE369D9002BD40126E36943F08053AA
:10380000E361E36903F080530193019B304F3B6810
:10381000DA051FD5236A6A6813F440732ED1236A30
:103820006A6823F44073134323621EB1E36923F0F3
:103830008053E3612A68910706D52449A8684B683C
:1038400023F4404303434B60D30636D4002012E0F8
:103850000026DBE73B6843F480733B60FEF780F9AA
:1038600080463B68DB05D5D4FEF77AF9A0EB08006B
:103870006428F6D9032002B0BDE8F08102F440725A
:103880009A42CCD00120134A236AC2F84004002097
:1038900023F44071DF07C2F840042162BFD5FEF770
:1038A0005FF941F288380746236A9807B7D4FEF7D4
:1038B00057F9C01B4045F7D9DCE7044AE96853686B
:1038C00023F480030B435360C0E700BF00100240A5
:1038D0000070004000004242022808B544D0102881
:1038E00003D0012822D0002034E0254B5A68186804
:1038F00010F080702ED0C2F383412248D20348BF1B
:103900005A68405C41BF2049C2F34042895C1F4A6B
:103910005B684CBFB2FBF1F21D4A5B0202FB00F098
:1039200018D403234000B0FBF3F013E040F202315F
:10393000134A136A1940B1F5817F1ED003F4407316
:10394000B3F5007F07D149F64040536A13F0020FE8
:1039500008BF002008BDB3F5407FC4D113684FF203
:10396000244013F4003FF3E7FFF72CFF044B5B68A0
:10397000C3F3813301335B00D5E74FF40040E9E73F
:1039800000100240486200084662000800127A00F7
:1039900000093D00036A026A70B522F0010202626A
:1039A000446882690D6822F073022A438D6823F00F
:1039B00002032B430A4DA8420BD1CD6823F0080324
:1039C0002B4324F44074D1E90556354323F0040316
:1039D0002C43446082614A684263036270BD00BF49
:1039E000002C0140036A026A70B522F48072026200
:1039F0004468C2690D6822F073022A438D6823F47B
:103A0000007343EA05230B4DA8420DD1CD6823F482
:103A1000006343EA052324F44054D1E905563543B5
:103A200023F4806344EA05144460C2614A68C263B7
:103A3000036270BD002C0140036A026A30B522F4B3
:103A4000805202624468C2690D6822F4E64242EA8A
:103A500005228D6823F4005343EA0533064DA8423E
:103A600002BF4D6924F4804444EA85144460C26175
:103A70004A680264036230BD002C01407047704701
:103A80007047704770477047036870B5DD681E69FE
:103A90000446B1070DD5AA070BD56FF002021A61D3
:103AA000012202779B699B0769D0FFF7EAFF002399
:103AB0002377710710D56A070ED56FF004022368CB
:103AC00020461A61022222779B6913F4407F5CD062
:103AD000FFF7D7FF0023237733070FD528070DD52E
:103AE0006FF00802236820461A6104222277DB69FE
:103AF000990750D0FFF7C5FF00232377F20610D5B2
:103B0000EB060ED56FF01002236820461A610822DA
:103B10002277DB6913F4407F43D0FFF7B2FF002325
:103B20002377F00708D5E90706D56FF0010223686F
:103B300020461A61FFF7A3FF320608D52B0606D5EB
:103B40006FF08002236820461A6100F096FA700632
:103B500008D5690606D56FF04002236820461A6131
:103B6000FFF791FFB20622D5AB0620D56FF02002F9
:103B700023682046BDE870401A6100F07DBAFFF767
:103B80007FFF2046FFF77EFF91E7FFF779FF204692
:103B9000FFF778FF9EE7FFF773FF2046FFF772FFFE
:103BA000AAE7FFF76DFF2046FFF76CFFB7E770BD90
:103BB000174A036890420AD0B0F1804F07D0A2F5AF
:103BC0009432904203D002F58062904207D14A6855
:103BD00023F070031343CA6823F4407313434A6904
:103BE00023F08003134303608B68C3620B68836216
:103BF000074B984204BF0B690363012343610369C8
:103C0000DB0742BF036923F001030361704700BF74
:103C1000002C014010B5044630B390F83D3003F05D
:103C2000FF021BB980F83C20FDF702FE022320684A
:103C300084F83D30211DFFF7BBFF0123002084F8ED
:103C4000463084F83E3084F83F3084F8403084F8C1
:103C5000413084F8423084F8433084F8443084F8AA
:103C6000453084F83D3010BD0120FCE710B5044616
:103C700030B390F83D3003F0FF021BB980F83C20D0
:103C8000FFF7FCFE0223206884F83D30211DFFF77A
:103C90008FFF0123002084F8463084F83E3084F8FA
:103CA0003F3084F8403084F8413084F8423084F862
:103CB000433084F8443084F8453084F83D3010BDFA
:103CC0000120FCE7036A026A70B522F0100202626A
:103CD000446882690D6822F4E64242EA05228D6852
:103CE00023F0200343EA05130B4DA8420DD1CD6804
:103CF00023F0800343EA051324F44064D1E9055618
:103D0000354323F0400344EA8504446082614A68F5
:103D10008263036270BD00BF002C014038B590F88B
:103D20003C300446012B4FD00120082A84F83C0087
:103D30003AD006D8BAB1042A26D0002384F83C3001
:103D400038BD0C2AF9D12068FFF776FEC3690A69ED
:103D500043F40063C361C36923F48063C361C3692F
:103D600043EA02232EE02068FFF714FE83690A6904
:103D700043F008038361836923F00403836183694B
:103D8000134383610020D8E72068FFF79BFF836916
:103D90000A6943F400638361836923F48063836168
:103DA000836943EA0223ECE72068FFF71BFEC3693F
:103DB0000A6943F00803C361C36923F00403C361C4
:103DC000C3691343C361DDE70220B9E710B5846816
:103DD0000A4324F47F4442EA03222243826010BD56
:103DE00038B590F83C300446012B4FF0020000F04B
:103DF0008E80012284F83D00206884F83C2083688E
:103E000023F47F4323F0770383600B68602B4FD04C
:103E100032D8402B64D016D8202B0DD00AD833F0DE
:103E2000100109D0012384F83D30002384F83C3090
:103E3000104638BD302BF5D1826822F07002134352
:103E400043F0070328E0502BECD14A68CD68016AA3
:103E5000036A21F00A0123F00103036283690A4324
:103E600023F0F00343EA051383610262836823F0C1
:103E7000700343F057030FE0B3F5805F0DD0B3F547
:103E8000005F0CD0702BCDD1CB68D1E90121FFF7B9
:103E90009DFF836843F0770383600022C2E7CB680D
:103EA000D1E90121FFF792FF836843F48043F3E7F0
:103EB000036A026A4D6822F01002C96802628269D0
:103EC00023F0A00322F4704243EA051342EA0132D0
:103ED00082610362836823F0700343F06703DBE7CA
:103EE0004A68CD68016A036A21F00A0123F00103E0
:103EF000036283690A4323F0F00343EA05138361F5
:103F00000262836823F0700343F04703C4E702466C
:103F10008EE710B50124036A01F01F018C4023EAEB
:103F200004030362036A8A401A43026210BD000060
:103F300008B529B990F83E30012B1DD001202EE0A4
:103F4000042907D190F83F30012BF7D1022380F8E4
:103F50003F3014E0082907D190F84030012BEDD113
:103F6000022380F840300AE090F84130012BE5D17F
:103F7000022380F8413002E0022380F83E300068DE
:103F80000122FFF7C6FF0F4B984209D0B0F1804FD6
:103F90000BD1836803F00703062B0DD1002008BD69
:103FA000436C43F400434364F3E7074B9842F0D07B
:103FB00003F580639842ECD0036843F0010303608B
:103FC000ECE700BF002C014000040040FFF7B0BF49
:103FD00030B590F83C300246012B4FF0020022D061
:103FE000136882F83D005C680D6824F070042C436F
:103FF00098685C600C4CA3420AD0B3F1804F07D0A4
:10400000A4F59434A34203D004F58064A34204D100
:10401000496820F08000014399600123002082F864
:104020003D3082F83C0030BD002C014090F83C301F
:104030000246012B1ED0CB68886823F440730343EB
:10404000486823F480630343086823F40063034350
:10405000086923F480530343486923F4005303435E
:104060000020C96923F480430B4311684B6482F834
:104070003C0070470220704770477047026802F1A9
:104080000C0353E8003F23F490730C3242E80031F4
:1040900002680029F2D102F1140353E8003F23F033
:1040A000010302F1140C4CE800310029F3D1036B39
:1040B000012B0BD102F10C0353E8003F23F0100356
:1040C00002F10C0C4CE800310029F3D1202380F8D8
:1040D000423000230363704710B504460368C1688B
:1040E0001A6922F440520A431A6182680069D96849
:1040F0000243606921F4B05121F00C0102430A43EC
:10410000DA605A69A16922F440720A435A610E4A80
:10411000934215D1FFF756FB192343436268206889
:104120009200B3FBF2F36422B3FBF2F102FB113312
:104130001B013233B3FBF2F303EB0113836010BDB9
:10414000FFF730FBE8E700BF00380140F7B5054650
:104150000C4617461E462A68136834EA030301D149
:10416000002021E0701CF7D0FDF7FAFCC01B86424E
:104170001CD3DEB12B68DA685107ECD5802CEAD06D
:10418000402CE8D01A681207E5D5002401941A687B
:10419000284601925B680193019BFFF76FFF08239C
:1041A00001206B6485F8404003B0F0BD0320FBE7BD
:1041B00010B5044648B390F8413003F0FF021BB934
:1041C00080F84020FDF7CAFB2423226884F84130A0
:1041D000D368204623F40053D360FFF77DFF2368A4
:1041E00000201A6922F490421A615A6922F02A02C8
:1041F0005A61DA6842F40052DA602023606484F87D
:10420000413084F84230606310BD0120FCE710B5F6
:104210000446A0B12423026880F84130D36823F417
:104220000053D360FDF7DCFB0020606484F840009D
:1042300084F8410084F842002063606310BD0120CF
:10424000FCE72DE9F843984690F841300446202BCE
:104250000E4617463FD100293FD0002A3DD02123EA
:104260000025456480F84130FDF77AFCA36881465B
:10427000B3F5805FA784E78403D123690BB9354682
:104280001E46E38C9BB253B943464A464021204622
:10429000FFF75CFF202350B984F841300AE0434621
:1042A0004A4680212046FFF751FF28B120230320F2
:1042B00084F84130BDE8F88322684EB935F8023BF6
:1042C000C3F308035360E18C013989B2E184D8E774
:1042D00016F8013BF6E70220ECE70120EAE710B50B
:1042E0000446226802F10C0353E8003F23F4F07304
:1042F0000C3242E8003123680029F2D103F11402A4
:1043000052E8002F22F0010203F1140040E80021DE
:104310000029F3D1226B012A0BD103F10C0252E8E0
:10432000002F22F0100203F10C0040E800210029C8
:10433000F3D15A6912061AD503F1140252E8002F7C
:1043400022F0800203F1140040E800210029F3D19B
:10435000A06B60B14163FDF701FF40B1A06BFDF7B9
:1043600066FF202803D110230320636410BD226858
:1043700053695B0616D502F1140353E8003F23F09E
:10438000400302F1140040E800310029F3D1E06B52
:1043900040B14163FDF7E2FE20B1E06BFDF747FF5E
:1043A0002028E0D000202023E084E085606484F8A9
:1043B000423084F841302063D8E7704708B50023C5
:1043C000406AC385C384FCF71FFD08BD704790F8A1
:1043D000423007B5222B42D181680268B1F5805F77
:1043E000836A3FD1016900293FD15268C2F30802B4
:1043F00023F8022B8362C38D013B9BB2C385002B44
:104400002DD10268D16821F02001D160D16821F45A
:104410008071D160516921F001015161202280F841
:1044200042204363026B012A026828D1036302F130
:104430000C0353E8003F23F0100302F10C0C4CE88E
:1044400000310029F3D11368DB0605D5019113680B
:10445000019353680193019B818DFFF7B7FF03B070
:104460005DF804FB39B9016929B95268D2B21A70F2
:10447000836A0133BEE7526802F07F02F7E7FCF778
:10448000A1FCECE7036873B51A6804461607D968FF
:104490005D6908D1960668D58D0666D502B0BDE87F
:1044A0007040FFF794BF05F0010001F490750543DB
:1044B0005BD0D60705D5CD0542BF636C43F0010341
:1044C0006364530704D518B1636C43F0020363645B
:1044D000960704D518B1636C43F0040363641507B1
:1044E00007D501F0200303431EBF636C43F00803AC
:1044F0006364636C002B32D0920604D58B0602D520
:104500002046FFF764FF266820467369626C03F05B
:10451000400302F0080253EA020522D0FFF7AEFD85
:1045200073695E0618D5226802F1140353E8003F50
:1045300023F04003143242E800310029F3D1E06B4C
:1045400050B1744B4363FDF729FE40B1E06B436B00
:1045500002B0BDE8704018472046FCF755FC02B099
:1045600070BDFCF751FC6564F9E7206B012840F051
:104570009480D50640F19180C80640F18E800022DB
:1045800001921A6801925A680192019A5A69520678
:104590004DD5E16B0A68526892B2002ADFD0A08D37
:1045A0009042DCD9E2858A69202A36D003F10C02D8
:1045B00052E8002F22F4807203F10C0040E8002141
:1045C0000029F3D103F1140252E8002F22F0010276
:1045D00003F1140040E800210029F3D103F1140293
:1045E00052E8002F22F0400203F1140040E80021BD
:1045F0000029F3D1202284F84220216303F10C0228
:1046000052E8002F22F0100203F10C0040E80021D4
:104610000029F3D1E06BFDF7A1FD02236363E38D75
:10462000A18DC91A89B22046FFF7D0FE97E7E28D27
:10463000E08DA18D80B292B2002890D0891A89B203
:1046400000298CD003F10C0252E8002F22F4907262
:1046500003F10C0545E800200028F3D103F1140212
:1046600052E8002F22F0010203F1140545E8002072
:104670000028F3D1202284F84220206303F10C02A9
:1046800052E8002F22F0100203F10C0545E800204B
:104690000028F3D102236363C5E7160628D50D066B
:1046A00026D594F84120212A7FF459AFA168226AC7
:1046B000B1F5805F17D12169A9B932F8021BC1F3A6
:1046C000080159602262E28C013A92B2E284002A27
:1046D0007FF445AFDA6822F08002DA60DA6842F0EF
:1046E0004002DA603BE7511C216212785A60EAE727
:1046F00050067FF534AF4A067FF531AFDA682046C1
:1047000022F04002DA60202384F84130FFF755FEA2
:1047100025E700BFBD4300080023C2854364222370
:104720008285026980F84230816203681AB1DA68D2
:1047300042F48072DA605A69002042F001025A6144
:10474000DA6842F02002DA60704770B490F8426094
:10475000202E06D141B13AB10024046370BCFFF7AA
:10476000DBBF022070BC70470120FBE7EFF305833D
:104770002BB9064B186828B901221A6070476FF0F0
:10478000050070474FF0FF30704700BF800C0020DD
:1047900010B5EFF305845CB9084B1A68012A0AD1F9
:1047A000074AD47702221A6000F074FD204610BD3B
:1047B0006FF00500FBE74FF0FF30F8E7800C0020BA
:1047C00000ED00E0F0B51446002287B00B460592DC
:1047D000EFF30582FAB9F0B154B3A56925B1691EAA
:1047E000372902D9002017E018256268D207F9D4CA
:1047F00066699EB1B2082168D4E9027C87B1BCF138
:104800005B0F08D9246934B12EB1CDE90147009579
:1048100000F0D9FC0590059807B0F0BD8022EAE7CA
:10482000BCF1000FF7D12469002CF4D10C4601E053
:104830001825802205A9CDE9005192B2214600F049
:10484000FAFC01281CBF00230593E4E708B5EFF349
:10485000058222B908B100F07DFE002008BD6FF08E
:104860000500FBE7034B0360034B0B6080231360E1
:10487000704700BF240C0020240A0020034B036073
:10488000034B0B604FF4807313607047C80900201E
:10489000C80500204FF0FF3200F10803C0E90223F1
:1048A0004360036100230360704700230361704786
:1048B00043689A684B608A60516099600368086138
:1048C00001330360704730B50C68631C0AD103697B
:1048D0005A684A6091608B605960036808610133CF
:1048E000036030BD00F10802134652681568A54206
:1048F000FAD9EDE70369D0E901128A60516059687D
:10490000814208BF5A60002202611A68013A1A60A7
:104910001868704710B5044601F0D4F9A46B01F093
:10492000F1F9B4FA84F0400910BD70B51646026C76
:104930000446856B42B906689EB9806800F042FF64
:10494000A6600135A56370BD6EB9406801F0E8FB53
:104950006368226C1344A2686360934224BF236897
:1049600063600020EDE7C06801F0DAFB226CE368C9
:1049700051429B1A2268E36093423EBFA3685B18D2
:10498000E360022EEDD10DB1013DEAE72846D8E7FC
:1049900003461A6C084610B462B1DC689968144486
:1049A0008C4228BF1968DC6028BFD960D96810BC68
:1049B00001F0B6BB10BC704770B5044601F082F937
:1049C00094F8455004F124066DB2002D01DD636AB0
:1049D000B3B9FF2384F8453001F094F901F072F97E
:1049E00094F8445004F110066DB2002D01DD2369E6
:1049F0007BB9FF2384F84430BDE8704001F082B9F0
:104A0000304600F041FE08B100F0C6FE013D6DB237
:104A1000DBE7304600F038FE08B100F0BDFE013D96
:104A20006DB2E2E738B50D46044640B94FF0500389
:104A300083F31188BFF36F8FBFF34F8FFEE701F051
:104A400041F9D4E90F314B432268D0185B1AA060BA
:104A5000626000201A44FF23A063E26084F84430BF
:104A600084F84530A5B9236973B104F1100000F052
:104A70000BFE48B14FF0E0234FF08052C3F8042DF5
:104A8000BFF34F8FBFF36F8F01F03CF9012038BDAA
:104A900004F11000FFF7FEFE04F12400FFF7FAFE18
:104AA000F2E737B50D461C4640B94FF0500383F38B
:104AB0001188BFF36F8FBFF34F8FFEE743B94FF0FD
:104AC000500383F31188BFF36F8FBFF34F8FFEE75F
:104AD0004AB191B94FF0500383F31188BFF36F8F40
:104AE000BFF34F8FFEE741B14FF0500383F31188BE
:104AF000BFF36F8FBFF34F8FFEE750230193019BEE
:104B0000502B08D04FF0500383F31188BFF36F8F01
:104B1000BFF34F8FFEE70121002D08BF2246C4E9F5
:104B20000F0584F8461020462260019BFFF77AFFAC
:104B300020469DF8183084F84C3003B030BD2DE984
:104B4000FF410F461E460446019240B94FF0500304
:104B500083F31188BFF36F8FBFF34F8FFEE751B917
:104B6000036C43B14FF0500383F31188BFF36F8F91
:104B7000BFF34F8FFEE7022E0BD1E36B012B08D062
:104B80004FF0500383F31188BFF36F8FBFF34F8F44
:104B9000FEE700F007FE054620B300254FF00008B1
:104BA00001F090F8A26BE36B9A4227D23246394665
:104BB0002046FFF7BAFE636A1BB104F1240000F03F
:104BC00063FD48B14FF0E0234FF08052C3F8042D4D
:104BD000BFF34F8FBFF36F8F01F094F8012004B043
:104BE000BDE8F081019B002BD8D04FF0500383F338
:104BF0001188BFF36F8FBFF34F8FFEE7022ED5D022
:104C0000019B1BB901F07EF80020E8E715B902A866
:104C100000F07AFD01F076F800F082FB01F052F826
:104C200094F84430FF2B08BF84F8448094F8453052
:104C3000FF2B08BF84F8458001F064F801A902A8A1
:104C400000F06EFD38BB01F03DF8A26BE36B9A42B9
:104C50000ED101F057F8019904F1100000F0DAFCD0
:104C60002046FFF7A9FE00F001FC48B1012597E7B7
:104C700001F048F82046FFF79FFE00F0F7FBF5E74C
:104C80004FF0E0234FF08052C3F8042DBFF34F8F55
:104C9000BFF36F8FEAE72046FFF78EFE00F0E6FBDA
:104CA000B2E72DE9F843894617461E46044640B947
:104CB0004FF0500383F31188BFF36F8FBFF34F8F13
:104CC000FEE751B9036C43B14FF0500383F31188F1
:104CD000BFF36F8FBFF34F8FFEE7022E0BD1E36B55
:104CE000012B08D04FF0500383F31188BFF36F8F6F
:104CF000BFF34F8FFEE701F0BDF8EFF311884FF0DF
:104D0000500383F31188BFF36F8FBFF34F8FA26BF4
:104D1000E36B9A4201D3022E1ED194F845503246DD
:104D2000494620466DB2A36BFFF7FFFD6B1C0ED109
:104D3000636A3BB104F1240000F0A6FC10B10FB18E
:104D400001233B60012088F31188BDE8F883013519
:104D50006DB284F84550F5E70020F4E72DE9FF41F6
:104D60000E460446019240B94FF0500383F3118878
:104D7000BFF36F8FBFF34F8FFEE751B9036C43B1A1
:104D80004FF0500383F31188BFF36F8FBFF34F8F42
:104D9000FEE700F007FD054618B300254FF00008B8
:104DA00000F090FFA76B47B331462046013FFFF765
:104DB000EFFDA763236973B104F1100000F064FCF8
:104DC00048B14FF0E0234FF08052C3F8042DBFF3F9
:104DD0004F8FBFF36F8F00F095FF012004B0BDE847
:104DE000F081019B002BD9D04FF0500383F3118841
:104DF000BFF36F8FBFF34F8FFEE7019B1BB900F02E
:104E000081FF0020EAE715B902A800F07DFC00F060
:104E100079FF00F085FA00F055FF94F84430FF2B3D
:104E200008BF84F8448094F84530FF2B08BF84F80D
:104E3000458000F067FF01A902A800F071FC00BBEB
:104E40002046FFF767FDB0B1019904F1240000F09E
:104E5000E1FB2046FFF7B0FD00F008FB48B94FF03A
:104E6000E0234FF08052C3F8042DBFF34F8FBFF300
:104E70006F8F012594E72046FFF79EFD00F0F6FABC
:104E8000F7E72046FFF798FD00F0F0FA2046FFF71D
:104E900041FD0028EDD0B4E7002330B5064A52F8B2
:104EA000335002EBC3041DB942F83310606030BDCB
:104EB0000133082BF3D1FAE7840C002070B50446C7
:104EC0000D46164600F0FEFE94F84430FF2B04BF5A
:104ED000002384F8443094F84530FF2B04BF0023AE
:104EE00084F8453000F00EFFA36B2BB932462946FB
:104EF00004F1240000F0A8FB2046BDE87040FFF755
:104F00005BBD00002DE9F041044600F0DBFE304BB4
:104F1000304E1A68304F01321A603568002D4BD17F
:104F200034601B68012B1FD1B84640460135FFF79E
:104F3000B1FC382D08F11408F7D1DFF8A080284D16
:104F40004046FFF7A7FC2846FFF7A4FC2548FFF7DB
:104F5000A1FC2548FFF79EFC2448FFF79BFC244B4F
:104F6000C3F80080234B1D601420234A13680133CB
:104F70001360224A63641168E36A8B4200FB03708A
:104F800004F1040188BF1360FFF792FC00F0BAFE41
:104F90001B4B1B6873B13368DA6AE36A9A4209D221
:104FA0004FF0E0234FF08052C3F8042DBFF34F8F32
:104FB000BFF36F8FBDE8F081114B1A68E36A002AD6
:104FC000D2D13268D26A9A4298BF3460CCE700BF2F
:104FD000E80C0020BC1100205C0D0020480D0020D2
:104FE000340D0020180D0020040D0020EC0C0020D2
:104FF000300D00202C0D0020CC0C0020E00C0020F7
:10500000DC0C0020F8B50646144B154D1C682868CA
:105010000F460430FFF76EFC731C07D137B12968C7
:1050200010480431BDE8F840FFF742BC2B68A419D2
:105030005C6007D30C4B18682968BDE8F840043160
:10504000FFF741BC094B186829680431FFF73BFCA6
:10505000074B1A68A24288BF1C60F8BDE40C002010
:10506000BC110020EC0C00202C0D0020300D002085
:10507000C80C0020064A13681968064B19B94FF08E
:10508000FF321A6070471268D268D2685268F8E737
:10509000300D0020C80C002010B590F8593004469F
:1050A0003BB9006B00F0D2FF2046BDE8104000F095
:1050B000CDBF012BF9D0022B08D04FF0500383F362
:1050C0001188BFF36F8FBFF34F8FFEE710BD000055
:1050D00080B5134C134F144D236873B9134B1B68E1
:1050E000012BF8D94FF0E0234FF08052C3F8042D84
:1050F000BFF34F8FBFF36F8FEDE700F0E3FDFB6869
:10510000DE68301DFFF7F6FB2B68013B2B60236840
:10511000013B236000F0F6FD3046FFF7BDFFDBE703
:10512000000D0020040D0020E80C00205C0D002084
:105130002DE9F0470D46DDE9099496003246074611
:10514000A521206B984600F0BFFF236B043E1E4450
:1051500026F00706A5B36B1E04F133020F3513F8D2
:10516000011F02F8011F09B1AB42F8D1002384F8F6
:105170004330089D4FF0000A372D28BF3725201DEA
:10518000E562E564C4F850A0FFF78FFBC5F1380570
:1051900004F11800FFF789FBC4F854A042463946D1
:1051A00030462461A561646284F858A000F064FD73
:1051B0002060B9F1000F01D0C9F80040BDE8F087C8
:1051C00084F83450D5E770B586B0DDE90B5445B9A5
:1051D0004FF0500383F31188BFF36F8FBFF34F8FEE
:1051E000FEE744B94FF0500383F31188BFF36F8F8C
:1051F000BFF34F8FFEE75C260596059E5C2E08D018
:105200004FF0500383F31188BFF36F8FBFF34F8FBD
:10521000FEE72563022584F8595004AD01950A9DE7
:1052200002940095059EFFF783FF2046FFF76AFE74
:10523000049806B070BD2DE9F043074685B0900094
:1052400088461646994600F069FE054620B94FF09B
:10525000FF3005B0BDE8F0835C2000F05FFE04463F
:1052600098B1002380F859300D9B056301930C9B86
:10527000324641460290009338464B46FFF758FFAE
:105280002046FFF73FFE0120E3E7284600F0DEFE60
:10529000DDE7000010B5002488B007AA06A905A81C
:1052A000CDE90544FFF7DEFA059B079A0293069BBA
:1052B0001649CDE9004316482346FFF784FF18B38B
:1052C00000F014FB012814D14FF0500383F3118830
:1052D000BFF36F8FBFF34F8F4FF0FF320D4B1A604C
:1052E0000D4B18600D4B1C6008B0BDE8104000F07D
:1052F00069BD013008D14FF0500383F31188BFF32B
:105300006F8FBFF34F8FFEE708B010BD7A610008C2
:10531000D1500008C80C0020DC0C0020E40C002058
:10532000024A136801331360704700BFC40C0020A9
:10533000014B1868704700BFE40C0020404B2DE97A
:10534000F74F1B68002B73D13E4B1C6801341C6067
:10535000BCB93D4B1A68126842B14FF0500383F359
:105360001188BFF36F8FBFF34F8FFEE7374A19687D
:10537000106818601160364A136801331360FFF734
:1053800079FE344D4FF0000B2B68334E9C42334F67
:1053900012D214213A68D26A4A43B258022A304AD9
:1053A00028BF4FF0010B1268002A18BF4FF0010B05
:1053B000584603B0BDE8F08FDFF88C90DFF8A4A06A
:1053C000D9F8002012681AB94FF0FF322A60E0E7DE
:1053D000D9F80020D268D2F80C80D8F804108C429A
:1053E00001D22960D5E708F1040318460193FFF7BD
:1053F00081FAD8F8281019B108F11800FFF77AFAE5
:105400001423D8F82C00DAF80010884288BFCAF8B4
:10541000000008F1040103FB0060FFF749FA386857
:10542000D8F82C10C26A914228BF4FF0010BC7E791
:105430000D4A4FF0000B136801331360B8E700BF4B
:10544000C40C0020E40C0020300D00202C0D0020A6
:10545000D00C0020C80C00205C0D0020BC110020E6
:10546000D40C0020E00C0020D80C00202DE9F041E5
:10547000304C236843B94FF0500383F31188BFF3D6
:105480006F8FBFF34F8FFEE700F01CFC2368013BDA
:10549000236024682CB1002400F034FC2046BDE8D1
:1054A000F081254B1B68002BF5D0244D244EDFF8EE
:1054B00094801DE0EB68DC68271D04F11800FFF7FD
:1054C00019FA3846FFF716FA1420E36A326800FB2F
:1054D00003809342394688BF3360FFF7E9F91A4BDE
:1054E000E26A1B68DB6A9A4202D30122174B1A60F8
:1054F0002B68002BDED10CB1FFF7BCFD144D2C68DE
:1055000044B10127114EFFF719FF00B13760013C8C
:10551000F9D12C600D4B1B68002BBCD04FF0E02361
:105520004FF08052C3F8042DBFF34F8FBFF36F8F3E
:105530000124B1E7C40C0020E80C0020180D002065
:10554000E00C00205C0D0020BC110020D40C0020D9
:10555000D80C002008B550B94FF0E0234FF080522E
:10556000C3F8042DBFF34F8FBFF36F8F08BD0A4BF5
:10557000196841B14FF0500383F31188BFF36F8F67
:10558000BFF34F8FFEE7FFF7CBFEFFF73BFDFFF7C3
:105590006DFF0028E0D0E9E7C40C0020184B70B57F
:1055A0001A68184B12B101221A6070BD1426164DEC
:1055B0001A602A68154906FB02F3CC58C81894B142
:1055C0004468083364680B449C4208BF63684460C5
:1055D00008BF4360142303FB02114B68D9680C4BCE
:1055E00019602A60E1E742B94FF0500383F3118854
:1055F000BFF36F8FBFF34F8FFEE7013ADBE700BFCA
:10560000C40C0020D40C0020E00C00205C0D002015
:10561000BC11002010B50C4640B94FF0500383F385
:105620001188BFF36F8FBFF34F8FFEE7054B1968EB
:105630001831FFF748F92046BDE810400121FFF777
:10564000E1BC00BFBC11002038B50D46144640B97E
:105650004FF0500383F31188BFF36F8FBFF34F8F69
:10566000FEE7084B19681831FFF722F9002C214694
:1056700008BF2846BDE8384018BF4FF0FF30FFF79D
:10568000C1BC00BFBC11002038B5C368DC6844B998
:105690004FF0500383F31188BFF36F8FBFF34F8F29
:1056A000FEE704F118052846FFF724F9104B1B68A4
:1056B000DBB9251D2846FFF71DF90E4A1420116895
:1056C000E36A8B42294688BF13600B4A00FB032024
:1056D000FFF7EEF8094BE26A1B68DB6A9A4285BF66
:1056E0000120074B0020186038BD29460548EFE728
:1056F000C40C0020E00C00205C0D0020BC11002038
:10570000D40C0020180D0020034B1B680360034BD2
:105710001B684360704700BFD00C0020E40C0020E1
:1057200070B50C46054640B94FF0500383F311881D
:10573000BFF36F8FBFF34F8FFEE741B94FF05003B8
:1057400083F31188BFF36F8FBFF34F8FFEE700F035
:10575000B9FA0F4B196823685A1C10D00D482E68EF
:1057600000686A68864201D08A420FD9881A83424B
:105770000AD95B1A134428462360FFF7C5FF0024AB
:1057800000F0C0FA204670BD002323600124F7E733
:10579000E40C0020D00C00200122014B1A6070475D
:1057A000D40C0020054B1B6833B1054B1868B0FAC8
:1057B00080F040094000704701207047DC0C002059
:1057C000C40C002038B508B9002038BD1B4B1C683C
:1057D000844208D04FF0500383F31188BFF36F8FDA
:1057E000BFF34F8FFEE7236D43B94FF0500383F3B0
:1057F0001188BFF36F8FBFF34F8FFEE7E16AE26C52
:10580000013B91422365DFD0002BDDD1251D2846C9
:10581000FFF770F81420E36CC3F13802A261084A64
:10582000E36211688B4288BF1360064A294600FB79
:105830000320FFF73DF80120C7E700BFBC1100209F
:10584000E00C00205C0D0020914208B54160006131
:105850000AD8D21A83699A420DD2084B011D1868E2
:10586000FFF731F8002008BD9A4201D2994202D2D6
:10587000034B011DF3E70120F5E700BFBC12002038
:10588000C0120020F7B5114C00F01CFA2568BDB914
:105890000F4F104E3846FEF7FDFF3046FEF7FAFF79
:1058A0000D4B10211F600D4B0A201E600C4A0D4B42
:1058B0000095FFF7F6F8206010B10B49FFF7ECFAFE
:1058C00003B0BDE8F04000F01DBA00BFB8120020E0
:1058D000D8120020C4120020C0120020BC120020E8
:1058E00010120020C01100207F61000810B588B0A0
:1058F000FFF7C8FF124B1B68B3B1002407AA06A923
:1059000005A8CDE90544FEF7B9FF059B079A029368
:10591000069B0C49019302230B4800932346FFF793
:1059200052FC0A4B186040B94FF0500383F31188C2
:10593000BFF36F8FBFF34F8FFEE7012008B010BD9C
:10594000B8120020846100084D5A0008B4120020EB
:105950007FB5164604461A4640B94FF0500383F30C
:105960001188BFF36F8FBFF34F8FFEE70D4D28688F
:1059700080B10529CDE9001602940DDCFFF712FF76
:105980000023022818BF1A46694608BF089A2868EB
:10599000FFF7D5F804B070BD00236946FFF781F921
:1059A000F8E700BFB81200202DE9F3470646FFF7DD
:1059B000BFFCDFF88C800546D8F80030834209D957
:1059C000204F3B681A686AB91F4A11681360396032
:1059D000012300E0002328463360C8F8005002B0DD
:1059E000BDE8F087DB68DC68D3F8009004F1040AB6
:1059F0005046FEF77FFF236A2046984794F82830E8
:105A00005B07DED5A3694B44994506D251463868F9
:105A100063602461FEF757FFD3E700234A46194627
:105A200020460093FFF794FF0028CAD14FF050039F
:105A300083F31188BFF36F8FBFF34F8FFEE700BF73
:105A4000B0120020C0120020BC1200202DE9F0434B
:105A50006E4D6F4E89B02B68D3F80080B8F1000FFF
:105A600035D00024DB68D3F80080FFF759FC04A888
:105A7000FFF79AFF049B8146002B69D1002C4CD183
:105A8000404550D3FFF7F2FC2B68DB68DF68381D18
:105A9000FEF730FF97F8283058071AD5B969434602
:105AA0004A4638464144FFF7CFFEB0B1234642464E
:105AB000214638460094FFF74BFF70B94FF0500372
:105AC00083F31188BFF36F8FBFF34F8FFEE701247D
:105AD000CBE723F0010387F8283038463B6A984724
